:100000000C946C060C9489060C9489060C94890651
:100010000C9489060C9489060C9489060C94890624
:100020000C9489060C9489060C9453200C948F1F11
:100030000C949F160C9489060C9489060C948906DE
:100040000C9489060C9489060C9489060C948906F4
:100050000C9489060C942D160C9489060C94890630
:100060000C9489060C9489060C9489060C948906D4
:100070000C9489060C9489060C9489060C948906C4
:100080000C9489060C9489060C9489060C948906B4
:100090000C9489060C9489060C9489060C948906A4
:1000A0000C9489060C9489060C9489065E0A5E0AF3
:1000B0009C0A9C0AE50A050BD90C320D470B330C40
:1000C000450C450CE00DE50DEF0DE30DE80DED0DD4
:1000D000EB0D360E390E3C0E3F0E420E450E480E0D
:1000E000D41DFB1D671FFB1D671F431E661E671F78
:1000F000251F391F93259325A625A6259C25A625D2
:10010000A625A62593259325A125A625A625A125C7
:100110003900010029000100010000001E00140048
:1001200004621D4601001A501F001A0016641B4984
:100130003E052A0020000843076806483F052C4278
:100140002100150009611947400501002200170030
:100150000A0005000000AC000100015D00004A003B
:10016000000001000100010000004D00000001003E
:1001700023001C000B0011000000AB00240018003D
:100180000D6110003A0F010025000C440E682D008F
:100190003B0F2841260012450F6434003C0F4C00F1
:1001A0002700130033622F0001000100A7000100A7
:1001B0002B0001003D0400000100010001000100CE
:1001C0001050000001000100E100010001000100E9
:1001D00001000100F2000100010001000100F00037
:1001E000F10001000100E00001000100F300010046
:1001F00001000100010001000100010000000100F8
:10020000105001000000E2000000010001000100A8
:1002100000000100000001000100010001000100D8
:10022000000001000100FA00F400FB00A900010039
:1002300001000100F5000100010001000100F900CA
:100240000100FC000100F60001000100F600FD00C5
:100250000100010001000100FF0001000100000099
:100260000100010001000100105000000100010028
:10027000E10001000100010001000100E2000100B5
:100280000100010001000100E30001000100010084
:1002900001000100E0000100010001000100010077
:1002A0000100010000000100010001000000010048
:1002B0000000010001000100000001000000010039
:1002C000010001004A000100000001000100FA00E5
:1002D0005000FB000100010001005200510001002C
:1002E000010001000100F9004F00FC0001000100C5
:1002F000010001004D0001000100010001000100AA
:1003000001000100010000000100010001000100E6
:100310001050000001000100010001000100010077
:100320000100010050000100010001000100010076
:100330000100010001002C00010001004F0001003C
:1003400001000100010001000100010000000100A6
:100350000100010000000100000001000100010097
:100360000000010000000100010064142302640089
:1003700000000100010025142502380001000100E1
:10038000010026142602270201002800010024147F
:1003900036026402010001000100271421022D141D
:1003A0000100010001000100010001000100000046
:1003B0000100010001000100105000000100301494
:1003C00032022D0201000100010024021F021E0260
:1003D00001000100010030023600380201002C004B
:1003E0000100370237003000010001000100220245
:1003F000141432000000010001000100000001009F
:1004000000000100010001000000010000000100E7
:1004100001000100010001000000010001000100D5
:100420005000010001000100010001000100010075
:1004300001002800010001004F000100010001003F
:1004400001000100010001000100010001000100A4
:100450000100010001000000010001000100010095
:1004600010500000010035023702010001000100B8
:1004700001003714381401000100010001000814C4
:100480003500010001000100010020022E020100E0
:100490000100010001000100010001000000010055
:1004A0000100010000000100000001000100010046
:1004B0000000010000000100010001000100010036
:1004C0000000010001000100010001000100010025
:1004D0000100010001000100010001000100010014
:1004E0000100010001000100010001000100010004
:1004F00001000100010001000100010001000000F5
:100500000100010001000100105000000100010085
:1005100001000100010001000100010001000100D3
:1005200001000100010001000100010001000100C3
:1005300001000100010001000100010001000100B3
:1005400001000100000001000100010000000100A5
:100550000000010001000100000001000000010096
:1005600001003E01010001000000010001004B03F9
:10057000010001000100010001003001380101000B
:100580000100010001004E03010001000100010013
:100590000100010001000100010001000100010053
:1005A0000100010001000000010001000100010044
:1005B0001050000001000100E100010001000100F5
:1005C00001000100E2000100010001000100010042
:1005D000E300010001002C0001000100E000010027
:1005E0000100010001000100010001000000010004
:1005F00001000100000001000000010001000100F5
:1006000000004101000001000100010001000100A3
:100610000000010042003E003A000100010001001C
:1006200043003F003B00010001002800440040005F
:100630003C00010001000100450041003D000100B7
:1006400001000100010001000100010001000000A3
:100650000100010001000100105000000100010034
:100660000100010001000100010001000100010082
:1006700001000100010001000100010001002C0047
:100680000100010001000100010001000100010062
:100690000100010000000100010001000000010054
:1006A0000000010001000100000001000000010045
:1006B00001005300010001000000010001005F0083
:1006C0005C00590001000100010060005D005A005B
:1006D00001006200010061005E005B00010001009A
:1006E000010036006300010001000100010001006B
:1006F00001000100010000000100010001000100F3
:100700001050000001000100010001000100010083
:1007100001000100010001000100010001000100D1
:1007200001000100010001000100010001000100C1
:1007300001000100010001000100010000000100B2
:1007400001000100000001000000010001000100A3
:100750000000010000000100010001000100010093
:100760000000010042073E073A07010001000100B6
:1007700043073F073B070100010001004407400712
:100780003C07010001000100450741073D0701004A
:100790000100010001000100010001000100000052
:1007A0000100010029000100105000001E001C0182
:1007B000E1000B54010010501F000401E2000C5432
:1007C00001002A0020000601E3000D5401002C0066
:1007D00021001901E00001000100010022001B01BD
:1007E0004C00010000004D000100280000004A00FC
:1007F00000000100010001000000010000000100F4
:1008000001000100010001000000010001000100E1
:1008100001000100010001000100010001000100D0
:1008200001000100010001000100010001000100C0
:1008300001000100010001000100010001000100B0
:1008400001000100010000000100010001000100A1
:10085000105000000100140004000100010001001C
:1008600001001A001600010001000100010008004B
:10087000070001000100010001001500090001004E
:1008800001000100010017000A0001000000010042
:100890000100010000000100000001000100010052
:1008A0000000010000000100010001000100010042
:1008B0000000010001000100010001000100010031
:1008C0000100010001000100010001000100010020
:1008D0000100010001000100010001000100010010
:1008E0000100010001000100010001000100000001
:1008F00001000100010001001050000001003E074E
:100900003A0701000100010001003F073B07010019
:1009100001000100010040073C0701000100010047
:10092000010041073D070100010001000100010035
:1009300001000100000001000100010000000100B1
:1009400000000100010001000000010000000100A2
:100950000100010001000100000001000100010090
:10096000010001000100010001000100010001007F
:10097000010001000100010001000100010001006F
:10098000010001000100010001000100010001005F
:100990000100010001000000010001000100010050
:1009A0001050000001003E003A000100010001006B
:1009B00001003F003B000100010001000100400078
:1009C0003C00010001000100010041003D00010068
:1009D0000100010001000100010001000000010010
:1009E0000100010000000100000001000100010001
:1009F00000000100000001000100010001000100F1
:100A000000000100010001000100010001000100DF
:100A100001000100010001000100010001000100CE
:100A200001000100010001000100010001000100BE
:100A300001000100010001000100010001000000AF
:100A40000A00000000000306B200080001000000D8
:100A5000A800080002000200A0001400030057498B
:100A60004E555342000000000000000000008400CA
:100A7000040007002A004400650076006900630056
:100A8000650049006E007400650072006600610038
:100A900063006500470055004900440073000000F2
:100AA00050007B003900440042003700460031000E
:100AB000460044002D0037004500370041002D005E
:100AC00034003000300038002D003900330036008B
:100AD00042002D0036004200410036004300310044
:100AE0003900410033003000380063007D00000011
:100AF00000001B0301636F6E6669677572652E6582
:100B000072676F646F782D657A2E636F6D000501D3
:100B10000902A10185020901A100050919012905A0
:100B20001500250195057501810295017503810167
:100B30000501093009311581257F95027508810667
:100B400009381581257F950175088106050C0A383D
:100B5000021581257F950175088106C0C005010930
:100B600080A10185031A81002A8300160100260353
:100B700000950175108100C0050C0901A1018504D3
:100B80001A01002A9C02160100269C02950175108C
:100B90008100C005010906A1018505050719E029A5
:100BA000E71500250195087501810205071900293F
:100BB000EF1500250195F07501810205081901293D
:100BC00005950575019102950175039101C0050117
:100BD0000906A101050719E029E715002501950877
:100BE000750181029501750881010507190029FF2A
:100BF000150026FF009506750881000508190129D2
:100C000005950575019102950175039101C00902D1
:100C10005200030100A0FA090400000103010100D1
:100C20000921110100012240000705810308000A83
:100C30000904010001030000000921110100012243
:100C4000C0000705820320000A0904020002FF0019
:100C50000000070583034000050705040340000565
:100C60001201100200000008EDFE0713010001024E
:100C70000301040330000000160345007200670002
:100C80006F0064006F007800200045005A000000EB
:100C900008035A0053004100000004030904050F33
:100CA0003900021C100500DF60DDD88945C74C9C67
:100CB000D2659D9E648A9F00000306B2004500181D
:100CC00010050038B60834A909A0478BFDA0768826
:100CD00015B665000142010011241FBECFEFDAE016
:100CE000DEBFCDBF11E0A0E0B1E0E6EEF3E502C06B
:100CF00005900D92A83CB107D9F723E0A8ECB1E02C
:100D000001C01D92A530B207E1F70E9484220C9425
:100D1000F1290C9400008F929F92AF92BF92CF92D4
:100D2000DF92EF92FF920F931F93CF93DF93CDB794
:100D3000DEB72D970FB6F894DEBF0FBECDBFFC0116
:100D4000F080118183819481892B09F4C9C61F3FEA
:100D500021F40FEFF01609F4C3C66F0185E0DE0140
:100D6000169601900D928A95E1F7F60122818E8107
:100D70009F81222349F00E944C18082F682F8E81F2
:100D80009F810E94C51803C00E949818082F26E072
:100D9000129FF001112434E5039FE00DF11D112491
:100DA000EF0DF11DEE0FFF1FE05FFE4F0591149157
:100DB0008091FF028823A9F01982F60182818111B6
:100DC00002C082E001C081E08A83F60180818B83CA
:100DD00081818C838EEF8D8365E0CE0101960E9428
:100DE000E3140230FDE51F0709F040C0F6018281DF
:100DF0008823E1F19091BD0281E0890F8770987F8F
:100E0000853020F4892B8093BD0202C09093BD02EF
:100E10008091BD028770FFEF8F9FC00111249595CF
:100E20008795959587959927909389008093880059
:100E300090938B0080938A0090938D0080938C0018
:100E40004091BD025091BE026091BF027091C002FC
:100E50008FE090E00E9474286091FB027091FC0288
:100E60008091FD029091FE020E942612F60182817D
:100E7000882319F1033EFCE51F07C1F050F4013E41
:100E80003CE5130781F0023E8CE51807B1F481E0E0
:100E900010C0043E9CE5190759F0053EECE51E071D
:100EA00061F484E006C01092B90205C082E001C07E
:100EB00083E08093B9020E94A70F17FF71C0F6016B
:100EC0008281882309F4ABC080917C028093C801A1
:100ED00010927C028091B902813071F048F082302A
:100EE000C1F08430E1F486EE0E94852788E115C0C8
:100EF00082EE0E946B2613C083E00E94E52588E104
:100F00000E946B2688E10E94042683E00E94DA2575
:100F100006C082EE0E946B2687E50E9485278FE33C
:100F20009CE90197F1F700C000007801E894F7F818
:100F30005CE0A52EB12CC7010A2C02C096958795BE
:100F40000A94E2F7282F2F7041F0822F90E02A3088
:100F500010F44D9604C0069702C087E290E00E940C
:100F6000852794E0A91AB108ECEFAE16EFEFBE06A4
:100F700011F78091B902813039F040F0823031F0C0
:100F8000843051F488E206C08CE204C082EE0E94F4
:100F9000042602C00E9485278091C80180937C02AC
:100FA000033FFCE51F0729F180F4083D3CE51307EA
:100FB000C9F0093D8CE5180741F1073D9CE519078B
:100FC00039F526E241EE61EE10C0053FECE51E0763
:100FD000C1F098F0063F2CE51207D1F427E245EE68
:100FE00066EE03C027E245EE65EEC6010E944F1390
:100FF00077C526E241EE60EEF8CF27E245EE64EEDB
:10100000F4CF26E241EE62EEF0CF28E241E0ECCFF1
:10101000F6018281882309F4F9C11092C9010C3DBF
:10102000FCE51F0741F4F6018281882309F458C5C5
:101030001092870255C50D3D2CE5120708F0AAC194
:1010400006313CE5130708F07DC102308CE5180736
:1010500008F41FC1F6018281882309F4C8C180E029
:1010600090E00E945C288F3E9E4F11F00E943C173A
:101070000E942B179093D0028093CF020F302CE563
:10108000120709F4CFC008F042C008308CE51807F9
:1010900009F4A8C0F0F40430ECE51E0709F490C090
:1010A00068F402302CE5120709F486C003301C45B1
:1010B00009F0DFC08091CF028260D9C006308CE594
:1010C000180709F487C008F089C08091CF028860B2
:1010D000CEC00B30ECE51E0709F495C068F409306A
:1010E0002CE5120709F482C00A301C4509F0C1C082
:1010F0008091CF02886080C00D308CE5180709F41C
:1011000086C008F087C08091CF028D7FB0C00A3FB3
:10111000ECE51E0709F457C050F502312CE5120723
:1011200009F488C068F400318CE5180709F47EC022
:1011300001311C4509F09DC08091CF028F7B97C083
:101140000431ECE51E0709F487C008F479C00531C5
:101150001C4509F08EC08091CF0282FB222720F926
:1011600091E0922790FB82F990FB83F980C00D3FBC
:101170003CE5130709F452C058F40B3F9CE51907EE
:1011800029F10C3F1C4509F074C08091D00260C069
:101190000F3FFCE51F0709F458C080F101151D45FC
:1011A00009F067C08091D002982F909591708E7F42
:1011B000892B90FB81F94DC08091CF02816057C08F
:1011C0008091CF0219C08091D0021BC08091D002C3
:1011D00082603FC08091CF02806149C08091CF0280
:1011E000806245C08091CF02806441C00E94C525C5
:1011F0008091CF0280683BC0846039C08091D0026A
:101200008260816026C08091CF028E7F30C0809145
:10121000CF0219C08091CF02877F29C08091D00270
:101220008D7F17C08091CF028F7E21C08091CF0229
:101230008F7D1DC00E94C5258091CF028F7717C07A
:101240008091CF02877F8B7F12C08091D0028D7FEB
:101250008E7F8093D0020DC00E94C5258091CF0261
:1012600087FB222720F991E0922790FB87F9809352
:10127000CF026091CF021091D00284E090E00E94F2
:101280006228612F81E290E00E9462280E94C525B9
:1012900027C401159CE5190709F042C0F6018281B7
:1012A000882309F41DC40E94C525FFEF04E31CE058
:1012B000F15000401040E1F700C00000F89481E0D8
:1012C0008093E00080E28093D8001092C9008FE103
:1012D0009EE40197F1F700C000001DBA109268006B
:1012E0001CBC10BE1FBA10927A0010926E001092B1
:1012F0006F0010927100109272001092C90010924B
:10130000BC0014B817B81AB81DB810BA1092BC00B7
:1013100015B818B81BB81EB811BA0C94003FE0C33A
:1013200001301C4509F063C0F6018281882309F46D
:10133000D7C38091EC02982F909590FB80F9809311
:10134000EC02CEC306311C4509F051C090917C02DD
:10135000F6018281882381F09A7A81E009F480E0A5
:101360008093CA01811102C069E201C065E388EE81
:1013700091E00E94F3160BC08091CA01811102C056
:1013800069E201C065E388EE91E00E94C8160E9400
:101390000618A6C301302DE51207E8F40A3F3CE524
:1013A000130708F057CE0D3D8CE5180749F4F601F8
:1013B0008281882309F494C382E08093870290C3DA
:1013C0000E3D1C45A1F4F6018281882309F488C3EF
:1013D0000E943C1785C301301D4549F4F601828106
:1013E000882309F47DC381E08093000379C3F6016B
:1013F000828100811181882331F1C8010E944C183B
:10140000F82E682FC8010E94C51821C00C3DFCE5CC
:101410001F0709F408CE08F04BC306313CE513075B
:1014200008F041C302308CE5180708F013CE01150F
:101430009CE5190709F432CF01301C4509F474CF3B
:10144000F60100811181C8010E949818F82EB80198
:101450008F2D0E94AD0F182F382FF6012581229570
:101460002F700281011110927B02809179028770A6
:10147000A9F0002399F080E2810F883078F082E0B3
:101480002C873D879B870E9426198091790287705F
:10149000EE24E3942C853D859B858111E12CA92EBA
:1014A000A2944FE0A422B12CFCE0AF16B10408F0E6
:1014B000D9C2F501EA5AFF4F0C94BE28892F807FCC
:1014C0009F70F92E882319F0F29480EFF822002300
:1014D000B9F0FF2009F457C280E2810F883010F084
:1014E000311106C090917C02F92AF0927C0205C06D
:1014F00090917B02F92AF0927B020E94061843C267
:10150000812F3D870E9404263D85FF2009F4AAC251
:10151000105EF094183010F0311106C090917C02EA
:10152000F922F0927C0205C090917B02F922F092A0
:101530007B020E94061896C2492F407F892F8F7028
:10154000403211F08295807F332319F03130E9F079
:1015500025C0002381F030917D02222351F02130FB
:1015600041F4982F932B391709F47CC290937D0294
:1015700079C2832B17C0222319F0213009F472C2DB
:101580008B870E9400188B851DC0002321F022301C
:1015900008F068C207C0211165C214C0002329F0F9
:1015A0002111F1C10E94FA255DC2222359F019339D
:1015B00009F0FBC10FEF27EE33E00150204030402F
:1015C000E1F7F1C10E94EF254DC2292F26952695FE
:1015D000237030E02115310521F02130310559F01B
:1015E00041C2002319F0812F937002C080E090E087
:1015F0000E94850F40C2002319F0812F937002C012
:1016000080E090E00E946F0F36C20023F9F0153F92
:1016100051F0163F71F0143FA9F48091CB019091E5
:10162000CC0181600BC08091CB019091CC01826094
:1016300005C08091CB019091CC0184609093CC0146
:101640008093CB01812F0E94C5151EC0153F51F01C
:10165000163F71F0143FA9F48091CB019091CC0119
:101660008E7F0BC08091CB019091CC018D7F05C006
:101670008091CB019091CC018B7F9093CC01809392
:10168000CB01812F0E94FB140E948916F4C1892F7F
:10169000837009F070C00111ECC1812F829586958D
:1016A0008770880F880F412F4F7050E060E070E026
:1016B0004A015B01082E04C0880C991CAA1CBB1CA3
:1016C0000A94D2F714FF12C00FE010E020E030E0DF
:1016D00004C0000F111F221F331F8A95D2F7B901D2
:1016E000A801409550956095709503C040E050E08A
:1016F000BA01969596959370892F90E08230910566
:1017000029F183309105C9F000917E0210917F028A
:101710002091800230918102019759F0482959297E
:101720006A297B29CB01BA01602371238223932389
:101730000AC0802A912AA22AB32ACB01BA016829B9
:1017400079298A299B290E94601993C1482959291E
:101750006A297B2980917E0290917F02A09180026C
:10176000B09181028A019B01082719272A273B276C
:10177000C901B801E8CF002319F0892F817001C099
:101780008695882309F475C1812F82958695877087
:10179000880F880F412F4F7050E060E070E04A01E1
:1017A0005B01082E04C0880C991CAA1CBB1C0A945F
:1017B000D2F714FF12C00FE010E020E030E004C0C8
:1017C000000F111F221F331F8A95D2F7B901A801FC
:1017D000409550956095709503C040E050E0BA0187
:1017E000969596959370892F90E082309105E9F057
:1017F0008330910579F10091FB021091FC02209158
:10180000FD023091FE02019759F0482959296A29B1
:101810007B29CB01BA01602371238223932320C04B
:10182000802A912AA22AB32A15C0482959296A294F
:101830007B298091FB029091FC02A091FD02B09166
:10184000FE028A019B01082719272A273B27C90185
:10185000B80106C0CB01BA01682979298A299B29D8
:101860000E94F51806C19F70F92E002339F0892FC8
:101870000E943F19812F0E94FA25FBC0812F0E94F0
:10188000EF258F2D0E940119F4C0812F323FC9F13D
:1018900028F4303F49F0313F79F170C0333FC1F156
:1018A000343F09F44DC06AC0002311F12111DAC0A0
:1018B000292F2F7181E090E0A0E0B0E0AC01BD01E4
:1018C00004C0440F551F661F771F2A95D2F78091D9
:1018D000FB029091FC02A091FD02B091FE028A01F0
:1018E0009B01082719272A273B27C901B80125C0D2
:1018F000223008F0B7C0DCCF002329F0892F8F7188
:101900002EC00023D9F3892F8F710E940119AAC01C
:10191000002381F0292F2F7181E090E0A0E0B0E05A
:10192000BC01CD0104C0660F771F881F991F2A953F
:10193000D2F703C060E070E0CB010E94F51892C0BE
:10194000002381F0192F1F71812F0E943F1928E079
:10195000129FC0011124836080937902812F0E941D
:101960003F1980C081E02C870E9426192C852230E7
:1019700008F478C082E00E94261974C0002339F070
:10198000222309F4BBCF812F0E946B266BC0222338
:1019900009F4B9CF893349F43FEF87EE93E0315032
:1019A00080409040E1F700C00000812F0E94042693
:1019B00059C0323FB1F028F4303F49F0313FF9F0DF
:1019C00028C0343FB9F058F0353F71F022C00023F1
:1019D00009F451C09091090281E0892708C081E093
:1019E00008270093090247C0011145C081E0809398
:1019F000090241C001113FC0109209023CC00023FE
:101A000029F080910802882329F329C0222311F3A9
:101A100032C0809108022223C1F0882341F09091C6
:101A2000090281E089278093090210920802812F20
:101A3000002319F00E946B261EC00E94042686E037
:101A4000F60111928A95E9F716C08823A1F00111D9
:101A500012C09091090281E08927809309021092B7
:101A6000080209C0F8E0AF1AB10804E0A016B104FA
:101A700010F40E949B0FEE2099F18091790280FD75
:101A80002FC0F60112828595859585950E943F1994
:101A9000C6010E948B068091790285958595859572
:101AA0000E9401191DC006311C4509F44FCCC8CC59
:101AB00001302DE5120778F40A3F3CE5130708F0E2
:101AC000C9CA0D3D8CE5180709F471CC0E3D1C45C3
:101AD00009F479CCB5CC01301D4509F47FCCB0CCEC
:101AE0002D960FB6F894DEBF0FBECDBFDF91CF911C
:101AF0001F910F91FF90EF90DF90CF90BF90AF902C
:101B00009F908F9008959091CF0292FF0DC0282F43
:101B10002871283019F4877F846006C0282F24712B
:101B2000243011F48B7F886093FF0DC0282F28711B
:101B3000283119F4877E846106C0282F247124314E
:101B400011F48B7E88612091D00220FF0DC0382FC8
:101B50003871383019F4877F816006C0382F3171B1
:101B6000313011F48E7F886021FF0DC0282F28713D
:101B7000283119F4877E816106C0282F2171213117
:101B800011F48E7E886194FD877E0895CF92DF9256
:101B9000EF92FF926B017C010E94B01756985E98FD
:101BA00025982D9826982E9827982F9890E0FC013C
:101BB0003197E730F105A8F4EE59FF4F0C94BE2899
:101BC000259A2D9A0EC0259A2D9A269A2E9A09C0EA
:101BD000259A2D9A04C0259A2D9A269A2E9A279AEC
:101BE0002F9AC701B601FF90EF90DF90CF90089534
:101BF000CF93E82F873080F58091070190910801FD
:101C0000892B09F047C0CE2F64E670E080E40E9483
:101C10009E279093080180930701892BD1F464E6F5
:101C200070E082E10E94F5279093080180930701FC
:101C3000892B79F481E090E001C0880FCA95EAF71A
:101C400064E670E080950E94F527909308018093E8
:101C50000701CF910C944A2890E0FC013797E730B8
:101C6000F105C0F4E759FF4F0C94BE28209A28983C
:101C700011C0219A29980EC0229A2A980BC0239A43
:101C80002B9808C0529A5A9805C0539A5B9802C084
:101C90003E9A4698CF910895CF93873008F03FC081
:101CA0008091070190910801892B09F041C064E6F9
:101CB00070E080E40E949E279093080180930701C2
:101CC000892B11F0C0E027C064E670E083E10E9438
:101CD000F5279093080180930701892B99F764E613
:101CE00070E081E40E949E27909308018093070191
:101CF000892B41F784E690E00E94252897FF05C0D4
:101D00009093080180930701DDCFC82FC0951092F2
:101D10000801109207010E944A288C2F0AC09FB127
:101D20008FB1807F869586959370892B809501C0B1
:101D300080E0CF910895EF92FF920F931F93CF937E
:101D4000DF93CDB7DEB767970FB6F894DEBF0FBE4F
:101D5000CDBF4B8B5C8B6D8B7E8B8F8B0E891F89E0
:101D600001151105C1F15F3F11F44F3FA1F1E42EC0
:101D7000F12CA1E0B0E0042E01C0AA0F0A94EAF70A
:101D8000852F90E0662319F02091090206C09C017E
:101D900026523E4FF90120812A232223A9F046E052
:101DA000489F9001499F300D1124F701E20FF31F66
:101DB000EE0FFF1FED5EFE4F40815181FC01E652A8
:101DC000FE4F9081A92B06C0FC01E652FE4FA09564
:101DD0008081A823A08386E0FE013D96DF01982F35
:101DE0001D929A95E9F74D875E876F87198B088B4F
:101DF000DE01179601900D928A95E1F7CE010796C4
:101E00000E94CF19811137C086E0FE013796DE01AE
:101E1000119601900D928A95E1F7FF81E8856A8518
:101E20007B856115710539F1EF3F11F4FF3F19F121
:101E30002091100230E0C9010196877099274091E6
:101E4000410250E08417950779F1F983EA837D8395
:101E50006C8396E0929FD001939FB00D1124AF5EEA
:101E6000BD4FFE01319601900D929A95E1F7809356
:101E700010020E946A1916E08091410290911002AE
:101E8000891701F1189FC00111248F5E9D4F0E9498
:101E9000CF198823B9F08091410290E001968770B4
:101EA000992780934102E8CF0E94C5251092100225
:101EB00010924102EAE0F2E086E0DF011D928A958D
:101EC000E9F7D9CF67960FB6F894DEBF0FBECDBF46
:101ED000DF91CF911F910F91FF90EF900895209186
:101EE000D8013091D9018217930771F09093D901ED
:101EF0008093D801E091D102F091D202309721F085
:101F00000084F185E02D099408952091D601309147
:101F1000D7018217930771F09093D7018093D60170
:101F2000E091D102F091D202309721F00680F78142
:101F3000E02D09940895E091D102F091D2023097FA
:101F400021F00190F081E02D099480E008956091E6
:101F5000B9028CE090E00C946228CF93DF9326E0E6
:101F6000729FF001112434E5839FE00DF11D1124CF
:101F7000E60FF11DEE0FFF1FE05FFE4FC591D491FC
:101F8000CE01C238D10569F1B0F4C133D10509F4ED
:101F900075C048F4C932D10509F469C0CA32D10507
:101FA00009F473C079C0C533D10509F459C0C933E8
:101FB000D105B9F071C0C33ED10571F138F4C03E0E
:101FC000D105B1F0C23ED10511F166C0C63ED105C2
:101FD000B9F1C73ED105C9F1C43ED10509F05CC0D5
:101FE00024C02091CF0220FD29C221FD27C22BC28F
:101FF0002091CF0220FD1CC22091D00220FF23C2DD
:102000008091CF0284FDC6C183EE90E01CC2209176
:10201000CF0222FF18C2F4CF8091CF0282FD0BC203
:102020008091D00280FD0AC2EBCF2091D00221FF27
:102030000AC28091CF0284FDADC187EE90E003C259
:102040002091CF0223FFFFC1F4CF8091CF0283FD07
:10205000F8C18091D00281FFECCF84EE90E0F3C113
:102060002091CF0225FFEFC189E290E0ECC12091E1
:10207000CF0225FFE8C185E390E0E5C12091CF02C2
:1020800026FFE1C18AE290E0DEC12091CF0226FF67
:10209000DAC181E390E0D7C1C11540E5D40708F06B
:1020A00047C0C11520E4D20708F034C1C83ED105AD
:1020B00018F5C03ED10508F0C6C1C83AD10570F484
:1020C000C53AD10508F0B1C0C130D10509F4BBC192
:1020D00008F460C1249708F45DC1B5C1CF3BD105B8
:1020E00008F4AEC0C03CD10508F454C1FE01EE0FA7
:1020F000FF1FE054F74F03C1C11530E2D30760F46E
:10210000C11541E0D40708F09EC1C03FD10508F4D5
:1021100041C1CE01906597C1C11580E3D80708F091
:10212000F1C0FE01FF70EE0FFF1FE05CF54FE7C04E
:10213000C11595E5D90708F044C0C11524E5D207BB
:1021400008F002C1C11532E5D30710F5C11541E50C
:10215000D40708F0E4C08C2F837021E030E002C087
:10216000220F331F8A95E2F73C68CE0174E0969502
:1021700087957A95E1F78370382BEC2FEF70E69511
:10218000E69540E2E49FC0011124822B932B5BC1B2
:102190002C2F26952695AE0143705527C115D345A2
:1021A00008F0C3C080E2289F9001112481E090E0F4
:1021B00002C0880F991F4A95E2F7822B932B9C68E7
:1021C00042C1C1159AE5D907A8F4C11529E5D2077E
:1021D00008F0C9C0C11536E5D30708F4BBC0C11566
:1021E00048E5D40708F4D6C0FC2FEE27CF01806F56
:1021F000906A29C1C1158BE5D80708F4CBC0C11579
:102200009CE5D90708F4C2C0CE01905681159042D2
:1022100008F0C0C08D2F8F710E94830DFE01FF2733
:10222000F0628F719F01382BAFC0C53AD10509F418
:10223000B4C0C63AD10509F0B3C082E890E403C146
:10224000C83AD10509F4AFC0C93AD10509F4AEC006
:10225000CA3AD10509F4ADC0CB3AD10509F4ACC0F6
:10226000CC3AD10509F4ABC0CB3BD10509F4AAC0E7
:10227000CC3BD10509F4A9C0CD3AD10509F4A8C0D9
:10228000C03BD10509F4A7C0CE3AD10509F4A6C0D8
:10229000CF3AD10509F4A5C0C13BD10509F4A4C0CA
:1022A000C23BD10509F4A3C0C33BD10509F4A2C0C8
:1022B000C43BD10509F4A1C0C53BD10509F4A0C0B8
:1022C000C63BD10509F49FC0C73BD10509F49EC0A8
:1022D000C83BD10509F49DC0C93BD10509F49CC098
:1022E000CD3BD10509F49BC0CE3BD10509F49AC082
:1022F000CA3BD10509F499C080E094E4A4C085915B
:102300009491A1C0CE019927D3FF02C0986C9BC0C5
:10231000906C99C0FE01FF70CF01906A94C0FC2FB1
:10232000EE27CF01816F906A8EC090E2299F9001C5
:10233000112481E090E002C0880F991F4A95E2F7CE
:10234000822B932B9A687FC0FC2FEE27CF01846FDE
:10235000906A79C08C2F0E94830D8F7190E0982F26
:102360008827906270C08C2F8F700E94830DFE01B1
:1023700094E0F695E7959A95E1F7EF70F0E0FE2F7F
:10238000EE27F0699F01282BC9015DC0CE01992776
:10239000906659C080E090E056C081E890E453C058
:1023A00083E890E450C082EE94E44DC089EE94E45A
:1023B0004AC08AEE94E447C085EB94E444C086EBBF
:1023C00094E441C083EB94E43EC084EB94E43BC0CE
:1023D00087EB94E438C08CEC94E435C08DEC94E445
:1023E00032C083E895E42FC08AE895E42CC082E9E6
:1023F00095E429C084E995E426C081E296E423C0EF
:1024000083E296E420C084E296E41DC085E296E46F
:102410001AC086E296E417C087E296E414C08FE6FD
:1024200094E411C080E794E40EC08AE296E40BC005
:1024300089E390E008C082EE90E005C080EE90E075
:1024400002C086EE90E0DF91CF910895CF92DF92A7
:10245000EF92FF92CF93DF9300D000D0CDB7DEB7DD
:102460000E94C60D6B017C010E94B0179091FF0283
:10247000992359F0198293E09A838B838EEF8C8392
:1024800064E0CE0101960E94E314C701B6010F90EB
:102490000F900F900F90DF91CF91FF90EF90DF9012
:1024A000CF90089580E290E0909308018093070117
:1024B0008091D30181110EC00E94982781E0809302
:1024C000D3012FEF83ED90E3215080409040E1F75E
:1024D00000C0000064E670E080E40E949E279093B4
:1024E000080180930701892B09F04EC064E670E073
:1024F00080E00E94F5279093080180930701892BC3
:1025000009F042C064E670E080E00E94F5279093F5
:10251000080180930701892BB9F564E670E08FE329
:102520000E94F5279093080180930701892B61F59C
:102530000E944A2864E670E080E40E949E279093FF
:10254000080180930701892BF9F464E670E08CE0C0
:102550000E94F5279093080180930701892BA1F42D
:1025600064E670E080E00E94F52790930801809374
:102570000701892B49F464E670E08FE30E94F52798
:1025800090930801809307010E944A2880910701D7
:102590000895CF93DF9356985E9825982D982698A6
:1025A0002E9827982F98C8E8D0E08FEF90E0998375
:1025B0008883AAE8B0E011969C938E93ECE8F0E053
:1025C00091838083259A2D9A2FEF80E792E0215006
:1025D00080409040E1F700C00000269A2E9A2FEF2D
:1025E00080E792E0215080409040E1F700C0000079
:1025F000279A2F9A2FEF80E792E021508040904059
:10260000E1F700C0000025982D982FEF80E792E0B9
:10261000215080409040E1F700C0000026982E989D
:102620002FEF80E792E0215080409040E1F700C01A
:10263000000027982F988091BD0287702FEF829F0E
:10264000C00111249595879595958795992799832C
:10265000888311969C938E939183808356985E987D
:1026600025982D9826982E9827982F98DF91CF910E
:10267000089584B1807F84B985B1807F85B98AB19E
:10268000837F8AB98BB1837F8BB93E984698089532
:1026900080B38C7080BB81B3836F81BB08950F932F
:1026A0001F93CF93DF93C62FD42F022FFC0182817B
:1026B0008823C9F06093C9010E947D169093D501CB
:1026C0008093D40180E28C0F883008F050C0C7702E
:1026D00081E001C0880FCA95EAF7DF91CF911F9181
:1026E0000F910C94FA251091C901161330C08091F6
:1026F000D4019091D5010E945316883C910538F57C
:10270000C0E2CD0F1D17B9F080E2810F883040F490
:10271000177081E001C0880F1A95EAF70E94EF2533
:10272000C83048F481E09D2F977001C0880F9A95BA
:10273000EAF70E94FA25802F0E948527C830B8F456
:10274000D77081E001C0880FDA95EAF70AC080E20D
:102750008C0F883060F4C77081E001C0880FCA9583
:10276000EAF7DF91CF911F910F910C94EF25DF9144
:10277000CF911F910F9108959F92AF92BF92CF92E8
:10278000DF92EF92FF920F931F93CF93DF9380918D
:10279000070190910801892B91F08091D2018F5F00
:1027A0008093D20181110BC00E94521290E090934D
:1027B000080180930701892B11F40E94C91201ECD2
:1027C00012E028ECE22E22E0F22E6801C0E0912C0B
:1027D00097E0A92EAC0E8C2F0E94F80D8A2D0E9436
:1027E000F80D8C2F0E944C0EF6019081981721F065
:1027F0008083BB24B39401C0B12C8A2D0E944C0E5F
:10280000F7019081981719F0808381E001C080E082
:10281000B82A9B280E943913CF5FFFEFCF1ADF0A37
:102820002FEFE21AF20AC73099F60E947D166AEF7E
:1028300070E00E9496289C01682F8091CE01882329
:10284000E9F11092CE01E091B702F091B802DF01F8
:102850001E9690E07BEF8AEFE82EF12C80818B3F73
:10286000A9F0482F50E0681728F0E901C41BD50BE8
:10287000AE0106C06701C41AD50AA601420F531F54
:102880004E31510514F0708301C091E03196EA1782
:10289000FB0721F79093CE01911002C0911110C057
:1028A0001092CD01A091B702B091B8029091CE01E3
:1028B000E4EDF2E080E03EE03E0F0FC09110F0CF7B
:1028C0008091CD018111ECCF209100038091D00146
:1028D0009091D101211118C056C0E80129918E01B3
:1028E0004081421741F04C914B3F21F46C9320837F
:1028F00091E001C081E0119631963E13EECF9093A6
:10290000CE018093CD01E0CF892B31F425982D980D
:1029100026982E9827982F988091D0019091D101D8
:102920009170892B79F48091CF01882319F0269832
:102930002E9802C0269A2E9A9091CF0181E0892785
:102940008093CF018091D0019091D101813098473F
:1029500080F0109200036091FB027091FC02809164
:10296000FD029091FE020E94C60D1092D1011092BC
:10297000D0018091D0019091D10101969093D10125
:102980008093D00110C0892B71F01092D101109268
:10299000D0016091FB027091FC028091FD02909148
:1029A000FE020E94C60D892DDF91CF911F910F91DC
:1029B000FF90EF90DF90CF90BF90AF909F900895E1
:1029C00080918A0208952091AD02243099F423E089
:1029D0002093E90070E040E050E00E945E218823EF
:1029E00021F01092FF02109200038091E8008E7790
:1029F0008093E8000895803F39F48091E50287FFD5
:102A00006CC01092E50269C0813F29F48091E50213
:102A10001816BCF362C09091E402823F29F497FF3C
:102A20005CC01092E40259C0833F19F41916CCF32C
:102A300054C0893F41F48091E60218160CF04DC055
:102A40001092E6024AC08A3F29F48091E60287FF8D
:102A500044C0F6CF8B3F39F48091E70287FF3DC039
:102A60001092E7023AC08C3F29F48091E7021816D1
:102A7000BCF333C0843F21F48091E3028E7F17C002
:102A8000853F21F48091E3028D7F11C0863F21F4C0
:102A90008091E3028B7F0BC0873F21F48091E3029A
:102AA000877F05C0883F31F48091E3028F7E809359
:102AB000E30213C08D3F21F4809186028E7F0BC00C
:102AC0008E3F21F4809186028D7F05C08F3F29F4CF
:102AD000809186028B7F809386028091E40281112F
:102AE0000EC08091E50281110AC08091E602811139
:102AF00006C08091E702811102C01092E802089599
:102B00008091860280FD16C081FD16C082FD18C02E
:102B10008091E802882391F0883290F428E0829F27
:102B2000C001112468E270E00E94AA28862F672B5A
:102B300029F007C082E0089584E0089581E00895B7
:102B400088E008958091860280FD17C081FD17C03E
:102B500082FD19C08091E802882399F08C3398F4A3
:102B600023E2829FC00111246CE370E00E94AA2836
:102B7000862F672B49F481E0089588E0089581E16C
:102B8000089585E0089583E20895803F21F40E942E
:102B9000A215819504C0813F29F40E94A21580935B
:102BA000E5020895823F21F40E94A215819504C098
:102BB000833F29F40E94A2158093E4020895893F7F
:102BC00019F40E94801505C08A3F31F40E948015D7
:102BD00081958093E60208958B3F21F40E94801531
:102BE000819504C08C3F29F40E9480158093E702F0
:102BF0000895843F21F48091E302816017C0853FEE
:102C000021F48091E302826011C0863F21F480911B
:102C1000E30284600BC0873F21F48091E302886067
:102C200005C0883F31F48091E30280618093E30224
:102C300008958D3F21F48091860281600BC08E3F04
:102C400021F480918602826005C08F3F29F4809133
:102C50008602846080938602089578941F920F9272
:102C60000FB60F9211248F939F93AF93BF938091D0
:102C7000820290918302A0918402B0918502019614
:102C8000A11DB11D8093820290938302A0938402C0
:102C9000B0938502BF91AF919F918F910F900FBE1E
:102CA0000F901F901895CF92DF92EF92FF920F93A3
:102CB0001F932FB7F8944091820250918302609144
:102CC0008402709185022FBF6A017B01EE24FF24EC
:102CD0008C0120E030E0C016D106E206F30610F4C5
:102CE000415051099A01281B390BC9011F910F91BD
:102CF000FF90EF90DF90CF9008952FB7F8948091D8
:102D0000820290918302A0918402B09185022FBF2C
:102D10000895E091D102F091D202309749F082E01B
:102D20008093E2020480F581E02D82EE92E0099525
:102D30000E947D169093EA028093E90208951F9203
:102D40000F920FB60F9211248F939F93AF93BF935F
:102D50008091D302811113C08091820290918302ED
:102D6000A0918402B09185024196A11DB11D80936E
:102D7000820290938302A0938402B0938502BF9154
:102D8000AF919F918F910F900FBE0F901F9018954C
:102D900020910601222321F02091CF0227FD04C0BB
:102DA000FC013296089619C0262F26952695269561
:102DB0002E31C0F4FC01E20FF11D677081E090E05C
:102DC00001C0880F6A95EAF78095928189238283F2
:102DD00008953196E817F90729F020812613F9CFD5
:102DE0001082F7CF089520910601222321F020912F
:102DF000CF0227FD05C0FC0132962FEF30E019C04D
:102E0000262F2695269526952E3120F5FC01E20FDA
:102E1000F11D677081E090E001C0880F6A95EAF7C4
:102E20009281892B828308952F3F39F03F5F36309E
:102E300041F041914613F8CF0DC04111F7CF232F38
:102E4000F5CF2F3F39F0FC01E20FF11D27FDFA9578
:102E5000628308950895CF9384E090E00E944E2805
:102E6000C82F81E290E00E944E282C2F30E0A9016B
:102E7000582BCA01CF9108956FEE7EEF80E090E06D
:102E80000E94802860E082E090E00E94622860E07A
:102E900083E090E00E94622810927E0210927F02EE
:102EA000109280021092810260E084E090E00E9423
:102EB000622860E081E290E00E94622860E085E0A4
:102EC00090E00E94622860E086E090E00E94622824
:102ED0006FEF87E090E00E94622840E050E0BA0186
:102EE00088E090E00E94742860E08DE090E00E940D
:102EF000622840E050E0BA0188E190E00E94742826
:102F000060E087E190E00E94622840E050E0BA0172
:102F10008CE190E00E94742860E080E290E00E94E2
:102F200062281092BD021092BE021092BF0210924F
:102F3000C00284E080618093BD024091BD02509147
:102F4000BE026091BF027091C0028FE090E00E94CB
:102F5000742840E050E0BA0183E190E00C947428BA
:102F6000CF92DF92EF92FF926C01EE24FF24C11406
:102F7000D104E104F10421F0C701B60120E101C050
:102F800020E0C72ED82EE92EFF24C114D104E1047D
:102F9000F10419F0285FC701B6016B017C0154E010
:102FA000F694E794D794C7945A95D1F7C114D104F5
:102FB000E104F10419F02C5FC701B6016B017C013B
:102FC00042E0F694E794D794C7944A95D1F7C11498
:102FD000D104E104F10419F02E5FC701B601DC0150
:102FE000CB01B695A79597958795892B8A2B8B2B27
:102FF00009F02F5F822FFF90EF90DF90CF90089520
:1030000080917D02811110927D02089590917B0242
:1030100080917C02892B20917A02982F922B909399
:10302000E80180917D028823D9F0892B8093E80103
:1030300080910601882331F08091CF0287FF02C082
:103040008EE101C086E0EAEEF1E090E0815028F0E8
:1030500021912223D9F39F5FF9CF91110E9400188B
:10306000E091D102F091D2023097A9F0809106014F
:10307000882359F08091CF0287FF07C08091E80133
:103080008093E90185E08093E8010280F381E02DDF
:1030900088EE91E009940895BF92CF92DF92EF926B
:1030A000FF920F931F93CF93DF938C01C0907E020A
:1030B000D0907F02E0908002F09081028091FB022C
:1030C0009091FC02A091FD02B091FE02C82AD92A7B
:1030D000EA2AFB2ACFE1D0E0D701C6010C2E04C0BA
:1030E000B695A795979587950A94D2F780FF07C064
:1030F000BC2EB8018C2F0E94AD0F019719F42197B7
:1031000058F7B12C8B2DDF91CF911F910F91FF902C
:10311000EF90DF90CF90BF900895CF93DF93EC01B5
:103120000E944C18BE010E94AD0FDF91CF9108950F
:10313000292F220F920F990F890F682F6695669598
:103140006695982F977085E0689FB001112440E044
:1031500050E080E0FA01E60FF71FEE5BFD4F2081A3
:1031600030E0092E02C0369527950A94E2F72170C7
:103170003327042E01C0220F0A94EAF7822B4F5FF7
:103180005F4F4530510531F70895292F220F920FD7
:10319000990F890FA82FA695A695A695877051E03F
:1031A00001C0550F8A95EAF785E0A89FD001112448
:1031B00020E030E070E0F901EA0FFB1FEE5BFD4F0D
:1031C0004081CB01022E02C0969587950A94E2F7C2
:1031D00081709927819584278523842780832F5F99
:1031E0003F4F2530310539F708950E94261260932C
:1031F000FB027093FC028093FD029093FE020C94FC
:10320000AA250F931F9341E050E060E070E004C0F6
:10321000440F551F661F771F8A95D2F7409550952A
:10322000609570958091FB029091FC02A091FD0247
:10323000B091FE028A019B01082319232A233B2314
:10324000C901B8011F910F910C94F51820917902D2
:103250008095822380937902982F977079F430E0DB
:10326000482F082E000C550B2417350739F085958B
:10327000859585950E9401191092790208950F9302
:103280001F9341E050E060E070E004C0440F551F20
:10329000661F771F8A95D2F78091FB029091FC02FE
:1032A000A091FD02B091FE028A019B01082B192B0F
:1032B0002A2B3B2BC901B8011F910F910C94F518D3
:1032C00060937E0270937F028093800290938102CC
:1032D0000C94AA258091410290911002891719F04F
:1032E0008F5F8770FBCF089580910F0282958F705A
:1032F00009F054C080910C02882309F44FC08091DA
:103300004102A091100260910A0270910B0240915B
:103310000D0250910E02B6E08A1709F43FC090E00A
:1033200041155105C1F17F3F11F46F3FA1F1B89FE5
:10333000F001B99FF00D1124EF5EFD4F2181721352
:103340002AC02081621327C02281211124C0238139
:1033500034812417350710F421503109241B350B13
:10336000283C3105C0F420910F022F70206120937A
:103370000F0226E0289FF001299FF00D1124EA5E3C
:10338000FD4F80818F70806180838AE092E00E948F
:103390008B060C946A1901968770BECF0895BF9270
:1033A000CF92DF92EF92FF920F931F93CF93DF9311
:1033B000CDB7DEB761970FB6F894DEBF0FBECDBFB5
:1033C0008C0185E0F801DE011D9601900D928A9531
:1033D000E1F7D8013C9111962C9111971296EC903F
:1033E00012971396CD90DC90149750910A02609139
:1033F0000B0280910D0290910E02009709F44FC1CB
:103400006F3F19F45F3F09F44AC1B0900C02BB2032
:1034100009F4ECC040910F02C816D90628F0F60155
:10342000E81BF90BCF0104C0809590958C0D9D1D74
:10343000FF24F394883C910548F0F12C407F09F07B
:103440009FC08AE092E00E948B0621C1842F807F7A
:1034500009F044C0621312C0531310C0E1100EC033
:103460004F70406140930F028AE092E00E948B0609
:1034700080910F02D80115968C932EC0CD2819F19A
:103480002F3F11F43F3FF9F0FE2CE1101CC080915A
:1034900041024091100256E0841709F458C090E0B0
:1034A000589FF001599FF00D1124EF5EFD4F61818F
:1034B000261306C06081361303C06281611103C008
:1034C00001968770E9CFFE2CEE2009F421C180918E
:1034D0000F02816080930F02F12C1AC162130AC09F
:1034E000531308C0E11006C080910F02D801159651
:1034F0008C93B0C03D872E878D859E850E94832545
:103500008823D1F1EE20C1F120910F02822F829504
:103510008F7090E0029774F080910A0290910B02F4
:1035200098878F831986DB86CA862C87CE010796FB
:103530000E948B0686E0F801AAE0B2E001900D92AD
:103540008A95E1F70E947419FF24F394E1C03D8746
:103550002E878D859E850E948D18292F22952F708C
:1035600030E0223031050CF0C7C09F7009F0C1C0B7
:10357000805E883008F4CCC0C8010E948B06E4CF7E
:10358000621314C0531312C0E11010C080910F02D7
:10359000F8018583C8010E948B0686E0EAE0F2E02C
:1035A000DF011D928A95E9F7FB2CB2C03D872E877B
:1035B0008D859E850E9483258823F1F2EE20E1F21D
:1035C00020910F02822F82958F7090E002970CF469
:1035D000B1CF80910A0290910B029A8389831B825A
:1035E000DD82CC822E83CE010196A2CFC816D906E9
:1035F00038F0C81AD90AB8ECCB16D10450F007C07D
:10360000809590958C0D9D1D883C910510F0F12CB6
:103610003EC0FE2CEE2009F4AFCF621327C0531337
:1036200025C020910F0220FD18C0822F82958F7037
:10363000482F50E04115510581F0F80125834F30A6
:10364000510541F08F5F982F9295907F822F8F7058
:10365000892B8583C8010E948B0686E0F801AAE0C9
:10366000B2E001900D928A95E1F752C03D872E8716
:103670008D859E850E94832581115CCF80910F02EC
:10368000816080930F02C8010E948B0641C0EAE06E
:10369000F2E086E0DF011D928A95E9F739C0EE205D
:1036A00009F46ACF3D872E878D859E850E948325EC
:1036B000F82E882309F460CF86E0F801AAE0B2E092
:1036C00001900D928A95E1F780910A0290910B0288
:1036D0000E948D1892959F70963041F48091090256
:1036E00091E0892780930902909308020E9474193F
:1036F0000FC081113DCF0CC0243031050CF03CCF00
:103700009F7009F435CFF8019581907F09F030CF93
:103710008F2D61960FB6F894DEBF0FBECDBFDF913F
:10372000CF911F910F91FF90EF90DF90CF90BF90BE
:1037300008958091AF0287FF11C08091E80082FD5B
:1037400005C08091AD028111F8CF11C08091E800D1
:103750008B770BC08091AD02882349F08091E800FF
:1037600080FFF8CF8091E8008E778093E80008957D
:10377000982F973058F59093E900981739F0709189
:10378000EC002091ED005091F00003C0242F762F23
:1037900050E021FF19C03091EB003E7F3093EB00E9
:1037A0003091ED003D7F3093ED003091EB003160C2
:1037B0003093EB007093EC002093ED005093F000F9
:1037C0002091EE0027FF07C09F5FD3CF8F708093BB
:1037D000E90081E0089580E008952091B5023091DC
:1037E000B6022617370748F06115710539F42091A4
:1037F000E8002E772093E80001C0B901FC0120E029
:103800006115710591F18091AD02882309F440C0E2
:10381000853009F43FC08091E80083FD3DC0809170
:10382000E80082FD2FC08091E80080FFE9CF209161
:10383000F3008091F20090E0922B6115710559F030
:103840008830910540F424912093F1003196615025
:1038500071090196F2CF21E0089709F020E08091EC
:10386000E8008E778093E800CBCF2111CCCF0AC03F
:103870008091AD02882361F0853061F08091E8008D
:1038800083FD0AC08091E80082FFF2CF80E00895B6
:1038900082E0089583E0089581E008952091B502C3
:1038A0003091B6022617370748F06115710539F4D3
:1038B0002091E8002E772093E80001C0B90140E094
:1038C00061157105A9F12091AD02222309F443C0CD
:1038D000253009F442C02091E80023FD40C020912A
:1038E000E80022FD32C02091E80020FFE9CF40919E
:1038F000F3002091F20030E0342BFC01CF01611580
:10390000710559F02830310540F481918093F10020
:10391000615071092F5F3F4FF1CF41E028303105F1
:1039200009F040E02091E8002E772093E800C8CF0E
:103930004111C9CF0AC08091AD02882361F0853062
:1039400061F08091E80083FD0AC08091E80082FF69
:10395000F2CF80E0089582E0089583E0089581E049
:1039600008951F93CF93DF93CDB7DEB7AA970FB615
:10397000F894DEBF0FBECDBFEFEAF2E088E08E0F15
:103980009091F10091938E13FBCF8091B00289301A
:10399000B9F150F4823009F4A5C0833009F45FC056
:1039A000813009F0EEC00CC08B3009F470C008F40F
:1039B00088C0823409F4AEC0853409F4C5C0E1C0C2
:1039C0008091AF02813A09F0DCC08091E800877FE6
:1039D0008093E8008091B3029091B402892B21F486
:1039E00060E28BE892E003C060E080E090E070E08D
:1039F0000E944E1C8091E8008B778093E800C1C044
:103A00008091AF02813209F0BCC08091B3029091E5
:103A1000B402029708F0B5C08091E800877F8093D8
:103A2000E8008091E80082FD05C08091AD0281111F
:103A3000F8CFA7C02091F3008091F20090E0922B84
:103A4000029729F48091F1008B7F813021F48091DD
:103A5000F10080938A028091E8008B7758C08091B2
:103A6000AF02813A09F08DC08091B3029091B40207
:103A7000892B09F086C08091E800877F8093E80059
:103A80008091E80080FFFCCF809106013BC08091CF
:103A9000AF02813209F075C08091B3029091B402F7
:103AA000892B09F06EC08091E800877F8093E80041
:103AB0000E94991B8091B102809306010E94C52546
:103AC00060C08091AF02813209F05BC08091E80054
:103AD000877F8093E8000E94991B8091B2028093B7
:103AE00089024FC08091AF02813A09F04AC08091AB
:103AF000E800877F8093E8008091E80080FFFCCF9A
:103B0000809189028093F1008091E8008E77809304
:103B1000E8002FC08091AF02803C99F58091B302FC
:103B20009091B402029741F58091B1029091B20256
:103B3000019711F58091E800877F8093E8006BE1A1
:103B400070E082EF9AE013C08091AF02803CC9F42C
:103B50008091B3029091B402079771F48091E800CC
:103B6000877F8093E80062EB70E080E49AE00E9437
:103B7000ED1B0E94991B05C08091EB008062809331
:103B8000EB008091E80083FFA2C18091AF02909189
:103B9000B002492F50E04A30510508F098C1FA01AF
:103BA000E059FF4F0C94BE28803821F0823809F08C
:103BB0008EC108C08091AB029091AC02992389F02C
:103BC00082600FC08091B3028F70873008F07FC190
:103BD0008093E9008091EB0085FB882780F91092A3
:103BE000E9009091E800977F9093E8008093F100BE
:103BF0001092F10036C1282F2D7F09F068C188236B
:103C000019F0823061F063C18091B102813009F016
:103C10005EC1933009F080E08093AC022EC08091A9
:103C2000B10281112AC08091B3028F702FEF280F4B
:103C3000263008F04CC18093E9002091EB0020FF72
:103C40001CC0933021F48091EB00806214C09091ED
:103C5000EB0090619093EB0021E030E0A90102C0FD
:103C6000440F551F8A95E2F74093EA001092EA004C
:103C70008091EB0088608093EB001092E9008091C6
:103C8000E800877FF1C0811122C11091B1021F7736
:103C90008091E3008078812B8093E3008091E8009D
:103CA000877F8093E8000E94991B8091E80080FF45
:103CB000FCCF8091E30080688093E300111102C083
:103CC00082E001C083E08093AD0201C18058823060
:103CD00008F0FDC08091B1029091B2028C3D53E09A
:103CE000950779F583E08A838AE289834FB7F89450
:103CF000DE01139620E03EE051E2E32FF0E0509326
:103D00005700E49120FF03C0E295EF703F5FEF7032
:103D10008E2F90E0EA3010F0C79601C0C0968D93C8
:103D20009D932F5F243149F74FBF8091E800877F33
:103D30008093E8006AE270E0CE0101960E944E1C7A
:103D40007EC04091B3025091B402292F3327233013
:103D5000310511F16CF42130310509F4C7C022306E
:103D6000310509F0B4C062E570E08EE09CE060C00F
:103D70002132310509F43EC02232310509F447C031
:103D80002F30310509F0A3C0E0EAFCE0E4916E2F8A
:103D900070E08EE99CE048C0992781309105D1F010
:103DA0005CF4892B09F093C0EAE9FCE0E4916E2F02
:103DB00070E08AE99CE038C08230910599F0039761
:103DC00009F085C0E2E7FCE0E4916E2F70E082E745
:103DD0009CE02AC0E0E9FCE0E4916E2F70E080E90D
:103DE0009CE022C0E8E7FCE0E4916E2F70E088E7F9
:103DF0009CE01AC04115510509F47DC041305105C0
:103E000009F065C069E070E089E39CE011C04115EC
:103E1000510509F475C04130510509F058C060ECF6
:103E200070E08EE09BE004C06115710509F44FC09D
:103E30002091E800277F2093E8000E94ED1B8091ED
:103E4000E8008B778093E80042C0803809F03FC0DB
:103E50008091E800877F8093E8008091AE02809394
:103E6000F1008091E8008E778093E8000E94991B12
:103E70002EC081112CC01091B102123040F58091FA
:103E8000E800877F8093E8001093AE020E94991BA0
:103E9000111106C08091E30087FD02C081E001C0DE
:103EA00084E08093AD0242E061EC81E00E94B81BA7
:103EB00042E261EC82E00E94B81B42E361EC83E0E5
:103EC0000E94B81B42E360EC84E00E94B81B809122
:103ED000E80083FF1AC08091E800877F8093E800A4
:103EE0008091EB0080628093EB000FC062E170E094
:103EF00080E69CE09DCF69E070E080E29CE098CF96
:103F000060E470E08EEC9BE093CFAA960FB6F89435
:103F1000DEBF0FBECDBFDF91CF911F9108951F92DD
:103F20000F920FB60F9211242F933F934F935F93ED
:103F30006F937F938F939F93AF93BF93CF93DF93B1
:103F4000EF93FF93C091E900CF708091EC00D82FE0
:103F5000D17080FDD0E81092E9008091F000877F59
:103F60008093F00078940E94B11C1092E900809137
:103F7000F00088608093F000CD2BCF70C093E900F3
:103F8000FF91EF91DF91CF91BF91AF919F918F9171
:103F90007F916F915F914F913F912F910F900FBE45
:103FA0000F901F901895E8EDF0E080818E7F808360
:103FB0001092E2001092DA001092E100A0EEB0E060
:103FC0008C9181608C9380818F77808319BCA7ED61
:103FD000B0E08C918E7F8C9380818F7E8083109255
:103FE00088020895CF92DF92EF92FF920F931F9372
:103FF000CF93DF93C8EDD0E088818F7E8883E7ED93
:10400000F0E080818160808384E082BF81E08093E2
:10401000880288818E7F888302EE10E0F80110828A
:104020001092DA0081EEC82ED12CF6011082888120
:104030008F77888388818068888388818F7D888353
:1040400019BC1092AD021092AE021092AC02109206
:10405000AB0290EEE92EF12CF70180818B7F8083FB
:1040600088818160888342E060E080E00E94B81B24
:10407000F60180818E7F8083F8018081816080835A
:10408000808188608083F70180818E7F8083888132
:1040900080618883DF91CF911F910F91FF90EF9006
:1040A000DF90CF9008951F920F920FB60F921124B8
:1040B0002F933F934F935F936F937F938F939F9330
:1040C000AF93BF93EF93FF938091E10082FF09C00C
:1040D0008091E20082FF05C08091E1008B7F809398
:1040E000E1008091DA0080FF2AC08091D80080FF33
:1040F00026C08091DA008E7F8093DA008091D9000B
:1041000080FF18C080E189BD82E189BD09B400FE4D
:10411000FDCF81E08093AD028091880281110FC0B4
:104120000E94D31F0E94F21F8091E200846080935E
:10413000E20005C019BC1092AD0210928802809175
:10414000E10080FF17C08091E20080FF13C08091E2
:10415000E2008E7F8093E2008091E2008061809394
:10416000E2008091D80080628093D80019BC85E07D
:104170008093AD028091E10084FF32C08091E20023
:1041800084FF2EC080E189BD82E189BD09B400FEB3
:10419000FDCF8091D8008F7D8093D8008091E10081
:1041A0008F7E8093E1008091E2008F7E8093E20019
:1041B0008091E20081608093E2008091AE028823CA
:1041C00011F084E007C08091E30087FD02C081E028
:1041D00001C083E08093AD020E94C5250E949B0F21
:1041E0008091E10083FF27C08091E20083FF23C01C
:1041F0008091E100877F8093E10082E08093AD02AF
:104200001092AE028091E1008E7F8093E100809158
:10421000E2008E7F8093E2008091E20080618093D3
:10422000E20042E060E080E00E94B81B8091F00074
:1042300088608093F000FF91EF91BF91AF919F91C3
:104240008F917F916F915F914F913F912F910F903F
:104250000FBE0F901F9018952091E4003091E5005B
:1042600095E64091EC00842F817040FF22C0809140
:10427000E80080FD1CC08091AD02882391F085305C
:1042800091F08091EB0085FD10C04091E4005091C9
:10429000E5004217530729F39A01915011F784E082
:1042A000089582E0089583E0089581E0089580E014
:1042B00008954091E80042FFDECF0895CF92DF924B
:1042C000FF920F931F93CF93DF931F92CDB7DEB76B
:1042D000F82E8B0199830E942C21998181111CC099
:1042E000CF2CD92E01151105B1F08091E80085FD84
:1042F0000AC08091E8008E778093E8000E942C210C
:10430000882381F309C0F60181916F018093F10048
:1043100001501109E7CF80E00F90DF91CF911F91FD
:104320000F91FF90DF90CF900895809187028111C7
:1043300007C08091AD02843011F081E0089582E0E1
:104340000895CF93DF9300D01F92CDB7DEB72091B1
:10435000AD02243031F523E02983805891099B83F5
:104360008A8382E08093E9008FEF9091E80081508A
:1043700095FD06C095ED9A95F1F700008111F5CFF6
:104380008091E80085FF0DC040E050E063E070E000
:10439000CE0101960E945E218091E8008E77809385
:1043A000E8000F900F900F90DF91CF9108950F9339
:1043B0001F93CF93DF9300D01F92CDB7DEB78C0150
:1043C0000E949521823011F0843021F584E08983A8
:1043D0001B830A8382E08093E9008FEF9091E800CD
:1043E000815095FD06C095ED9A95F1F70000811179
:1043F000F5CF8091E80085FF0DC040E050E063E01C
:1044000070E0CE0101960E945E218091E8008E77D7
:104410008093E8000F900F900F90DF91CF911F9144
:104420000F910895CF93DF93EC010E949521823084
:1044300011F08430F9F482E08093E9009FEF8091DD
:10444000E800915085FD06C085ED8A95F1F70000E2
:104450009111F5CF8091E80085FF0CC040E050E05D
:1044600066E070E0CE010E945E218091E8008E77C8
:104470008093E800DF91CF910895CF93DF93EC0113
:104480000E949521823011F08430D9F58091060187
:10449000882339F08091CF0287FF03C060E282E079
:1044A00002C068E081E08093E9008FEF9091E8001E
:1044B000815095FD06C095ED9A95F1F700008111A8
:1044C000F5CF8091E80085FF1CC080910601811125
:1044D00005C040E050E068E070E003C070E040E0FC
:1044E00050E0CE010E945E218091E8008E7780939B
:1044F000E80080E2FE01ABE8B2E001900D928A95FF
:10450000E1F7DF91CF910895CF93DF93CDB7DEB779
:10451000C955D1090FB6F894DEBF0FBECDBF84B721
:10452000877F84BF0FB6F894A8958091600088615A
:1045300080936000109260000FBE80E8809361005D
:104540001092610085B7806885BF85B7806885BF98
:104550000E94D31F0E94F21F8091E200846080932A
:10456000E20078948091AD028823A1F01091E900D7
:104570001F709091EC00892F817090FD80E8182BBE
:104580001092E9008091E80083FD0E94B11C1F7029
:104590001093E90082E084BD93E095BD9AEF97BD4A
:1045A00080936E000E94521290E0909308018093D5
:1045B00007010E9439130E944813A1ECB2E0E4ED18
:1045C000F2E01EE0712E7E0E11921D927E12FCCF43
:1045D0008EE090E00E94C4288093B7029093B802C6
:1045E000FC010E962BEF2193E817F907E1F780E025
:1045F00090E00E945C288F3E9E4F11F00E943C1775
:104600008CE090E00E944E2890E0A0E0B0E0809323
:10461000B9029093BA02A093BB02B093BC0289EA9C
:104620008093800089E08093810024982C983F98A3
:104630008AB18F7C8AB96E98479A8BB180638BB9A7
:10464000769A8FE090E00E9456286093BD027093A6
:10465000BE028093BF029093C00267703FEF639FDA
:10466000B0011124759567957595679577277093B7
:1046700089006093880070938B0060938A00709328
:104680008D0060938C000E94C91280E090E00E942F
:104690005C288F3E9E4F11F00E943C1782E090E014
:1046A0000E944E288093EC020E942B179093D00218
:1046B0008093CF0283E090E00E944E28682F70E044
:1046C00080E090E00E94601989E091E09093D2022E
:1046D0008093D10266246A9441E4E42EF12CEC0E1E
:1046E000FD1E82E0E80EF11CCC24C394D12C68E1BD
:1046F000A62EB12C8091AD02853009F045C0809185
:10470000AD02843011F11092D30280E40FB6F89418
:10471000A895A09260000FBE8093600083B7817F50
:10472000846083BF83B7816083BF7894889583B7A3
:104730008E7F83BF0FB6F894A89580916000886142
:1047400080936000109260000FBE8091AC028823BD
:1047500009F4D0CF0E94521290E090930801809308
:1047600007010E9439130E944813E4EDF2E0119210
:104770007E12FDCF0E94BC13E4EDF2E08191811125
:10478000A8C17E12FBCFB6CF0E94BC13EDEEF2E0C3
:10479000A4EDB2E000E010E0702F6D91219126278A
:1047A00009F446C080E090E030E0A901082E02C084
:1047B000559547950A94E2F740FF35C061968FAF53
:1047C000619762967FAF6297F60102C0EE0FFF1FFE
:1047D0008A95E2F74F01862F90E08E239F2321E0F8
:1047E000892B09F420E063962FAF63970E947D1612
:1047F0008160782F65969FAF8EAF659761964FADBC
:10480000619762965FAD629763966FAD63976596A9
:104810008FAD65970E949B0EF801E351FD4F80819B
:10482000882680822AC001968630910509F0BDCF86
:104830000F5F1F4F0E30110509F0AECF66966FAEB9
:10484000669767966FAE679768961FAE68970E94E7
:104850007D168160782F6A969FAF8EAF6A976696B5
:104860004FAD669767965FAD679768966FAD68972F
:104870006A968FAD6A970E949B0E8091E902909193
:10488000EA020E9453169C019091E802992321F0BC
:104890002431310508F478C08091E4021091E502DA
:1048A00081110BC011112BC12091E602211127C1EA
:1048B0002091E702211123C167C09F3F19F09F5F3C
:1048C0009093E802181624F40E94A2158093E40243
:1048D0008091E40287FF05C00E94A2158195809314
:1048E000E402111624F40E94A2158093E50280913F
:1048F000E50287FF05C00E94A21581958093E5021D
:104900003091E4023323E1F02091E5022223C1F04B
:1049100045EB3403C0011124892F990F990B00979F
:1049200009F481E08093E40235EB2303C0011124F4
:10493000892F990F990B009709F481E08093E50284
:104940008091E602181624F40E9480158093E602F6
:104950008091E60287FF05C00E94801581958093B3
:10496000E6028091E702181624F40E9480158093D5
:10497000E7028091E70287FF05C00E9480158195BC
:104980008093E7020E9489161091EB020E949B0F10
:10499000181721F00E949B0F8093EB028091AD02CB
:1049A000843009F0A7CE8093E9008091E80082FF6F
:1049B000A1CE8091E80085FF24C00E942C2188238D
:1049C00011F091E01FC000E410E0CE0101964C010F
:1049D0008091E80085FD0AC08091E8008B77809384
:1049E000E8000E942C21882341F0EBCF8091F10058
:1049F000F40181934F01015011090115110541F78F
:104A0000E0CF90E08091E8008B778093E8009923D5
:104A100009F470CE8981811115C09091000399230A
:104A200069F11092000381E08093FF0222961FAE8D
:104A3000229723961FAE23978EEF24968FAF24974D
:104A400063E041C08130D1F422961FAE229784E00A
:104A500023968FAF23978CE0EBEBF1E0D701019029
:104A60000D928A95E1F78EEF60968FAF60976FE0B9
:104A7000CE018F5B9F4F0E94E3143CCE9091FF02CA
:104A80009923E9F0823009F035CE6091FB027091F4
:104A9000FC028091FD029091FE020E94B0172296C6
:104AA0001FAE229793E023969FAF239724968FAF54
:104AB00024978EEF25968FAF259764E004C0229649
:104AC0006FAE229761E0CE018F5B9F4F0E94E3148F
:104AD00011CE80E189BD82E189BD09B400FEFDCF20
:104AE0008091D8008F7D8093D8008091E000826013
:104AF0008093E0008091E00081FDFCCFFBCD9F3FE3
:104B000009F0DDCEE5CE0E948D18292F2F709295E9
:104B10009F70E92FF0E03297EE30F105B8F4E658D7
:104B2000FF4F0C94BE28803F99F018F4883E70F433
:104B30000FC0843F59F40CC0883E50F0813F31F4DF
:104B400007C0822F869586958695089580E0089502
:104B500081E0089510927B0210927A020E9406185A
:104B6000E2EEF2E086E0DF011D928A95E9F710920D
:104B7000E802109286020E94891680E090E00E946E
:104B8000850F80E090E00C946F0F10927C02809172
:104B90000601882331F08091CF0287FF02C08EE1A9
:104BA00001C086E0EAEEF1E0DF011D928A95E9F7A7
:104BB0000C94AA25882341F0809590917B0289234B
:104BC00080937B020C9406180895882339F0909105
:104BD0007B02892B80937B020C940618089588230E
:104BE00041F0809590917C02892380937C020C9403
:104BF00006180895882339F090917C02892B8093C0
:104C00007C020C9406180895882309F463C0823846
:104C100069F40E949B0F81FF5DC069E388EE91E01B
:104C20000E94F3160E94061869E30EC0833891F4BF
:104C30000E949B0F80FF4EC063E588EE91E00E94CA
:104C4000F3160E94061863E588EE91E00E94C816EC
:104C50000C940618843869F40E949B0F82FF3AC0B6
:104C600067E488EE91E00E94F3160E94061867E45C
:104C7000EBCF9CEF980F913A10F4682FE5CF90E2BC
:104C8000980F983088F4877021E030E0A90102C0C5
:104C9000440F551F8A95E2F7CA01809590917C02D6
:104CA000892380937C02D4CF9BE5980F933020F426
:104CB00080E090E00C94850F98E5980F973120F4F0
:104CC00080E090E00C946F0F803F20F00E94FB1476
:104CD0000C9489160895882309F416C18238B1F41A
:104CE0000E949B0F81FD10C169E388EE91E00E9454
:104CF000F3160E9406182FEF41EE54E02150404079
:104D00005040E1F700C0000069E317C08338D9F4D0
:104D10000E949B0F80FDF8C063E588EE91E00E9441
:104D2000F3160E9406188FEF91EE24E08150904018
:104D30002040E1F700C0000063E588EE91E00E94AA
:104D4000C8160C9406188438B1F40E949B0F82FD9B
:104D5000DBC067E488EE91E00E94F3160E9406181B
:104D60004FEF51EE84E0415050408040E1F700C0E9
:104D7000000067E4E2CF9CEF980F913A30F4682F7F
:104D800088EE91E00E94F316DCCF90E2980F983005
:104D900080F4877021E030E0A90102C0440F551F64
:104DA0008A95E2F7CA0190917C02892B80937C025C
:104DB000C8CF9BE5980F933070F4853A29F0863A76
:104DC00031F083E890E005C081E890E002C082E81D
:104DD00090E00C94850F98E5980F973108F08EC0FD
:104DE000883A09F445C0893A09F445C08A3A09F479
:104DF00045C08B3A09F445C08C3A09F445C08B3B59
:104E000009F445C08C3B09F445C08D3A09F445C00E
:104E1000803B09F445C08E3A09F445C08F3A09F445
:104E200045C0813B09F445C0823B09F445C0833B42
:104E300009F445C0843B09F445C0853B09F445C0ED
:104E4000863B09F445C0873B09F445C0883B09F41B
:104E500045C0893B09F445C08D3B09F445C08E3BF4
:104E600009F445C08A3B09F445C080E090E044C0A5
:104E700082EE90E041C089EE90E03EC08AEE90E084
:104E80003BC085EB90E038C086EB90E035C083EB0B
:104E900090E032C084EB90E02FC087EB90E02CC014
:104EA0008CEC90E029C08DEC90E026C083E891E086
:104EB00023C08AE891E020C082E991E01DC084E926
:104EC00091E01AC081E292E017C083E292E014C040
:104ED00084E292E011C085E292E00EC086E292E0A8
:104EE0000BC087E292E008C08FE690E005C080E743
:104EF00090E002C08AE292E00C946F0F803F20F0B5
:104F00000E94C5150C9489160895CF93C82F0E944E
:104F10006B26C93349F42FEF87EE93E02150804090
:104F20009040E1F700C000008C2FCF910C94042634
:104F30001092B9008CE08093B8000895EF92FF9230
:104F40000F931F93CF93DF93182FEB011092BC00A8
:104F500084EA8093BC000E947D167C019091BC0085
:104F600097FD0EC0CF3F8FEFD807C1F30E947D168B
:104F70008E199F098C179D0788F38EEF9FEF2EC027
:104F80009091B900987F983041F09091B900987F46
:104F9000903119F08FEF9FEF21C01093BB0084E890
:104FA0008093BC000E947D168C019091BC0097FDFF
:104FB0000CC0CF3F8FEFD807C1F30E947D16801B36
:104FC000910B8C179D0788F3D8CF8091B900887F0B
:104FD000883111F08034F1F680E090E0DF91CF91DC
:104FE0001F910F91FF90EF9008950F931F93CF9310
:104FF000DF93EB018093BB0084E88093BC000E94A8
:105000007D168C019091BC0097FD0EC0CF3F8FEFB5
:10501000D807C1F30E947D16801B910B8C179D074A
:1050200088F38EEF9FEF0CC02091B900287F81E0BC
:1050300090E0283211F480E090E0919581959109FB
:10504000DF91CF911F910F9108950F931F93CF93ED
:10505000DF93EC0184E88093BC000E947D168C01F4
:105060009091BC0097FD0EC0CF3F8FEFD807C1F3E2
:105070000E947D16801B910B8C179D0788F38EEF85
:105080009FEF03C08091BB0090E0DF91CF911F9113
:105090000F91089584E98093BC000895F999FECF9B
:1050A00092BD81BDF89A992780B50895A6E1B0E038
:1050B00044E050E00C948828A8E1B0E042E050E0E1
:1050C0000C948828262FF999FECF92BD81BDF89ABD
:1050D000019700B4021639F01FBA20BD0FB6F8943C
:1050E000FA9AF99A0FBE08950396272F0E94632813
:1050F0000E946228252F0E946328242F0C94632885
:105100000196272F0E9463280C946228DC01CB01B2
:10511000FC01F999FECF06C0F2BDE1BDF89A3196C7
:1051200000B40D9241505040B8F70895AA1BBB1B24
:1051300051E107C0AA1FBB1FA617B70710F0A61B97
:10514000B70B881F991F5A95A9F780959095BC01B8
:10515000CD01089597FB072E16F4009407D077FD34
:1051600009D00E94962807FC05D03EF490958195C1
:105170009F4F0895709561957F4F0895EE0FFF1F23
:105180000590F491E02D0994CF93DF93823091053F
:1051900010F482E090E0E0910303F091040320E03A
:1051A00030E0C0E0D0E0309711F1408151814817E4
:1051B0005907C0F04817590761F4828193812097FD
:1051C00019F09B838A832BC090930403809303037D
:1051D00026C02115310519F04217530718F49A011A
:1051E000BE01DF01EF010280F381E02DDCCF21154C
:1051F000310509F1281B390B2430310590F4129642
:105200008D919C9113976115710521F0FB0193839A
:10521000828304C09093040380930303FD013296BC
:1052200044C0FD01E20FF31F819391932250310995
:105230002D933C933AC02091010330910203232B1C
:1052400041F4209102013091030130930203209335
:10525000010320910001309101012115310541F434
:105260002DB73EB74091040150910501241B350B29
:10527000E0910103F0910203E217F307A0F42E1B63
:105280003F0B2817390778F0AC014E5F5F4F2417AA
:10529000350748F04E0F5F1F509302034093010300
:1052A0008193919302C0E0E0F0E0CF01DF91CF91D4
:1052B00008950F931F93CF93DF93009709F48CC049
:1052C000FC013297138212820091030310910403B0
:1052D0000115110581F420813181820F931F2091E6
:1052E0000103309102032817390779F5F09302037F
:1052F000E093010371C0D80140E050E0AE17BF0752
:1053000050F412962D913C911397AD012115310562
:1053100009F1D901F3CF9D01DA0133832283608142
:105320007181860F971F8217930769F4EC0128811A
:105330003981260F371F2E5F3F4F318320838A81AB
:105340009B8193838283452B29F4F0930403E0939C
:10535000030342C01396FC93EE931297ED0149911B
:1053600059919E01240F351FE217F30771F48081D4
:105370009181840F951F029611969C938E93828142
:10538000938113969C938E931297E0E0F0E0D801FE
:1053900012968D919C911397009719F0F8018C014A
:1053A000F6CF8D919C9198012E5F3F4F820F931FF6
:1053B00020910103309102032817390769F43097CF
:1053C00029F4109204031092030302C01382128284
:1053D0001093020300930103DF91CF911F910F916E
:0653E0000895F894FFCFD0
:1053E600000005032000012000E0143D221222A146
:1053F60021D721000D010D020D030D040D050D0031
:105406000C010C020C030C040C050C000B010B0226
:105416000B030B040B050B000A010A020A030A041C
:105426000A050A0009010902090309040905090018
:105436000801080208030804080508000701070216
:10544600070307040705070006010602060306040C
:105456000605060005010502050305040505050008
:105466000401040204030404040504000301030206
:1054760003030304030503000201020202030204FC
:1054860002050200010101020103010401050100F8
:10549600000100020003000400050050427A304C6F
:0854A6002F475A564A5100003D
:00000001FF
