:100000000C945F070C947C070C947C070C947C0781
:100010000C947C070C947C070C947C070C947C0754
:100020000C947C070C947C070C94ED300C94BF313D
:100030000C942F270C947C070C947C070C947C0761
:100040000C947C070C947C070C947C070C947C0724
:100050000C947C070C9497270C947C070C947C07D9
:100060000C947C070C947C070C947C070C947C0704
:100070000C947C070C947C070C947C070C947C07F4
:100080000C947C070C947C070C947C070C947C07E4
:100090000C947C070C947C070C947C070C947C07D4
:1000A0000C947C070C947C070C947C07D407D7072E
:1000B000DA07DD07E007E207E507250B2A0B340B1B
:1000C000280B2D0B320B300B620C640C6F0C660C82
:1000D000680C6A0C6C0C6E0C710C730C750C800C3B
:1000E000770C790C7B0C7D0C7F0C820C861C861C9B
:1000F000B81CB81CEF1C0F1D781ED61E511DD61E35
:10010000FE1DFE1D6F1ED61ED61ED01E0B1E0B1E04
:100110000B1E0B1E0B1E0B1E0B1E0B1E0B1E0B1E97
:100120000B1E0B1E0B1E0B1E0B1E0B1E1C1E291E58
:10013000301E371E411E611F611F731F731F6A1F10
:10014000731F731F731F611F611F6F1F731F731F47
:100150006F1F2C3253324533533245339F32C232F4
:1001600045331833273307634236B79BD8A71A396C
:10017000685618AEBAAB558C1D3CB7CC5763BD6DF5
:10018000EDFD753EF6177231BF000000803F05A8F7
:100190004CCDB2D44EB93836A9020C50B9918688EC
:1001A000083CA6AAAA2ABE000000803F6572676FBD
:1001B000646F785F657A2F613039613563613162D0
:1001C0006334333537626235373034204020302E87
:1001D000362E3138302D32322D673338356465375D
:1001E0002D6469727479000000F0A13900010029C2
:1001F000000100010000001E00140004621D460101
:10020000001A501F001A0016641B493E052A0020E0
:10021000000843076806483F052C422100150009E5
:1002200061194740050100220017000A000500007F
:1002300000AC000100010000004A000000010001C4
:1002400000010000004D000000010023001C000B15
:100250000011000000AB00240018000D6110000127
:1002600000010025000C440E682D000100284126E5
:100270000012450F64340001004C002700130033C6
:10028000622F0001000100010001002B0001003D70
:1002900004000001000100010001001050000001F5
:1002A000000100E10001000100010001000100F275
:1002B000000100010001000100F000F10001000157
:1002C00000E00001000100F3000100010001000155
:1002D00000010001000100000001001050010000B9
:1002E00000E2000000010001000100000001000028
:1002F00000010001000100010001000000010001F7
:1003000000FA00F400FB00A900010001000100F563
:10031000000100010001000100F9000100FC0001E2
:1003200000F60001000100F600FD000100010001DF
:10033000000100FF000100010000000100010001B8
:100340000001001050000001000100E10001000167
:1003500000010001000100E20001000100010001B4
:10036000000100E30001000100010001000100E0C4
:100370000001000100010001000100010001000076
:100380000001000100010000000100000001000167
:100390000001000000010000000100010001004A0E
:1003A000000100000001000100FA005000FB000104
:1003B0000001000100520051000100010001000194
:1003C00000F9004F00FC0001000100010001004D98
:1003D0000001000100010001000100010001000115
:1003E00000000001000100010001001050000001A8
:1003F00000010001000100010001000100010050A6
:1004000000010001000100010001000100010001E4
:10041000002C00010001004F00010001000100015B
:1004200000010001000100000001000100010000C6
:1004300000010000000100010001000000010000B7
:1004400000010001006414230264000000010001A7
:1004500000251425023800010001000100261426A1
:100460000227020100280001002414360264020160
:100470000001000100271421022D140100010001D8
:100480000001000100010001000000010001000165
:10049000000100105000000100301432022D020152
:1004A000000100010024021F021E020100010001E0
:1004B0000030023600380201002C000100370237FC
:1004C000003000010001000100220214143200007B
:1004D0000001000100010000000100000001000116
:1004E0000001000000010000000100010001000106
:1004F00000010000000100010001005000010001A6
:1005000000010001000100010001000100280001BC
:100510000001004F00010001000100010001000185
:1005200000010001000100010001000100010001C3
:100530000000000100010001000100105000000156
:1005400000350237020100010001000100371438B4
:100550001401000100010001000814350001000130
:10056000000100010020022E020100010001000133
:100570000001000100010000000100010001000075
:100580000001000000010001000100000001000066
:100590000001000100010001000100000001000154
:1005A0000001000100010001000100010001000143
:1005B0000001000100010001000100010001000133
:1005C0000001000100010001000100010001000123
:1005D0000001000100010001000000010001000114
:1005E00000010010500000010001000100010001A5
:1005F00000010001000100010001000100010001F3
:1006000000010001000100010001000100010001E2
:1006100000010001000100010001000100010000D3
:1006200000010001000100000001000000010001C4
:10063000000100000001000000010001003E010176
:100640000001000000010001004B03010001000156
:10065000000100010030013801010001000100012A
:10066000004E030100010001000100010001000132
:100670000001000100010001000100010001000172
:100680000000000100010001000100105000000105
:10069000000100E10001000100010001000100E291
:1006A0000001000100010001000100E30001000160
:1006B000002C0001000100E0000100010001000128
:1006C0000001000100010000000100010001000024
:1006D00000010000000100010001000000410100D4
:1006E00000010001000100010001000000010042C2
:1006F000003E003A0001000100010043003F003BC2
:1007000000010001002800440040003C00010001FD
:10071000000100450041003D000100010001000111
:1007200000010001000100010000000100010001C2
:100730000001001050000001000100010001000153
:1007400000010001000100010001000100010001A1
:100750000001000100010001002C00010001000166
:100760000001000100010001000100010001000082
:100770000001000100010000000100000001000173
:100780000001000000010000000100010053000111
:100790000001000000010001005F005C0059000141
:1007A000000100010060005D005A000100620001CC
:1007B0000061005E005B0001000100010036006383
:1007C0000001000100010001000100010001000121
:1007D00000000001000100010001001050000001B4
:1007E0000001000100010001000100010001000101
:1007F00000010001000100010001000100010001F1
:1008000000010001000100010001000100010001E0
:1008100000010001000100000001000100010000D2
:1008200000010000000100010001000000010000C3
:100830000001000100010001000100000001004270
:10084000073E073A0701000100010043073F073B4D
:1008500007010001000100440740073C07010001B7
:10086000000100450741073D0701000100010001AB
:100870000001000100010001000000010001002949
:10088000000100105000001E001C01E1000B54018B
:100890000010501F000401E2000C5401002A002047
:1008A000000601E3000D5401002C0021001901E0B5
:1008B0000001000100010022001B014C00010000AA
:1008C000004D000100280000004A00000001000166
:1008D0000001000000010000000100010001000112
:1008E0000001000000010001000100010001000101
:1008F00000010001000100010001000100010001F0
:1009000000010001000100010001000100010001DF
:1009100000010001000100010001000100010001CF
:100920000000000100010001000100105000000162
:10093000001400040001000100010001001A00166B
:100940000001000100010001000800070001000192
:100950000001000100150009000100010001000173
:100960000017000A00010000000100010001000062
:100970000001000000010001000100000001000072
:100980000001000100010001000100000001000160
:10099000000100010001000100010001000100014F
:1009A000000100010001000100010001000100013F
:1009B000000100010001000100010001000100012F
:1009C0000001000100010001000000010001000120
:1009D0000001001050000001003E073A070100012D
:1009E00000010001003F073B070100010001000179
:1009F0000040073C07010001000100010041073DE4
:100A000007010001000100010001000100010000D8
:100A100000010001000100000001000000010001D0
:100A200000010000000100000001000100010001C0
:100A300000010000000100010001000100010001AF
:100A4000000100010001000100010001000100019E
:100A5000000100010001000100010001000100018E
:100A6000000100010001000100010001000100017E
:100A70000000000100010001000100105000000111
:100A8000003E003A0001000100010001003F003B70
:100A900000010001000100010040003C00010001D4
:100AA000000100010041003D0001000100010001C2
:100AB0000001000100010000000100010001000030
:100AC0000001000000010001000100000001000021
:100AD000000100010001000100010000000100010F
:100AE00000010001000100010001000100010001FE
:100AF00000010001000100010001000100010001EE
:100B000000010001000100010001000100010001DD
:100B100000010001000100010000000000000000D1
:100B20000000002A2B280000000000000000000048
:100B300000000000000029000000002C1E342021CD
:100B40002224342627252E362D3738271E1F202114
:100B500022232425263333362E37381F0405060773
:100B600008090A0B0C0D0E0F10111213141516178D
:100B700018191A1B1C1D2F3130232D3504050607AB
:100B800008090A0B0C0D0E0F10111213141516176D
:100B900018191A1B1C1D2F3130354C0000000000A5
:100BA0000000000000000000000000000000000045
:100BB0000000000000000000000000000101010131
:100BC000010100010101010000000000000000001F
:100BD000000000000001000100010101010101010C
:100BE00001010101010101010101010101010101F5
:100BF00001010101010100000001010000000000ED
:100C000000000000000000000000000000000000E4
:100C1000000000000000010101010000047F3F1FEF
:100C2000643214643214783C1E1E140A056801F004
:100C300000B40078005A000000000000010101012A
:100C40000101010101020202020202020202030387
:100C50000303030303030404040404040505050556
:100C60000506060606060707070708080808090913
:100C7000090A0A0A0A0B0B0B0C0C0C0D0D0D0E0EBB
:100C80000F0F0F1010111111121213131414151548
:100C900016161717181819191A1A1B1C1C1D1D1EB9
:100CA0001F1F20202122222324252526272728290B
:100CB0002A2B2B2C2D2E2F2F303132333435363634
:100CC0003738393A3B3C3D3E3F404142434446473A
:100CD00048494A4B4C4D4F50515253555657585A0C
:100CE0005B5C5E5F606263646667696A6C6D6E70B0
:100CF0007173747678797B7C7E8081838486888A20
:100D00008B8D8F91929496989A9B9D9FA1A3A5A756
:100D1000A9ABADAFB1B3B5B7B9BBBDBFC1C4C6C850
:100D2000CACCCFD1D3D6D8DADCDFE1E4E6E8EBED0C
:100D3000F0F2F5F7FAFCFF0403300000001603455B
:100D400000720067006F0044006F007800200045CB
:100D5000005A00000016034500720067006F00444F
:100D6000006F007800200045005A000000040309CD
:100D70000409023B00020100A0FA0904000001037B
:100D80000101000921110100012240000705810332
:100D900008000A09040100010300000009211101F3
:100DA000000122C0000705820320000A1201100181
:100DB00000000008EDFE0713010001020301050118
:100DC0000902A10185020901A100050919012905EE
:100DD00015002501950575018102950175038101B5
:100DE0000501093009311581257F950275088106B5
:100DF00009381581257F950175088106050C0A388B
:100E0000021581257F950175088106C0C00501097D
:100E100080A10185031601002603001A81002A83A0
:100E200000751095018100C0050C0901A101850420
:100E3000160100269C021A01002A9C0275109501D9
:100E40008100C005010906A1018505050719E029F2
:100E5000E71500250195087501810205081901298A
:100E60000595057501910295017503910105071915
:100E70000029EF1500250195F075018102C00501DB
:100E80000906A101050719E029E7150025019508C4
:100E9000750181029501750881010508190129056F
:100EA00095057501910295017503910105071900DA
:100EB00029FF150026FF00950675088100C0112442
:100EC0001FBECFEFDAE0DEBFCDBF11E0A0E0B1E0A2
:100ED000EEE8FEE602C005900D92A43DB107D9F7F9
:100EE00023E0A4EDB1E001C01D92AA3AB207E1F7F8
:100EF0000E940F2E0C9445370C94000080B38C7028
:100F000080BB81B3836F81BB089584B1807F84B936
:100F100085B1807F85B98AB1837F8AB98BB1837FA0
:100F20008BB93E9846980895CF93E82F873090F577
:100F30008091000190910101892B09F048C0CE2FCA
:100F400064E670E080E40E942B0990930101809395
:100F50000001892BD1F464E670E082E10E948209ED
:100F60009093010180930001892B79F481E090E056
:100F700001C0880FCA95EAF764E670E080950E9488
:100F80008209909301018093000184E690E0CF9163
:100F90000C94D70990E0FC013797E730F105B8F4DD
:100FA000EA5AFF4F0C94EA36209A289810C0219AEA
:100FB00029980DC0229A2A980AC0239A2B9807C014
:100FC000529A01C0539A5B9802C03E9A4698CF91BC
:100FD0000895CF93873008F041C08091000190912F
:100FE0000101892B09F043C064E670E080E40E94AF
:100FF0002B099093010180930001892B11F0C0E02F
:1010000027C064E670E083E10E94820990930101A9
:1010100080930001892B99F764E670E081E40E94D7
:101020002B099093010180930001892B41F784E6FD
:1010300090E00E94B20997FF05C090930101809350
:101040000001DDCFC82FC095109201011092000160
:1010500084E690E00E94D7098C2F0AC09FB18FB11F
:10106000807F869586959370892B809501C080E05E
:10107000CF910895089508950C943B080E94690A41
:1010800090E090930101809300010E9485070E94E7
:101090007E0725ED31E0E9E2F2E04EE04E0F1192DD
:1010A00080E090E0D901A80FB91F1C92019686300C
:1010B0009105C1F72A5F3F4F4E13F1CF0C949D0B62
:1010C0000E94690A90E090930101809300010E94C0
:1010D00085070E947E07E9E2F2E08EE08E0F119212
:1010E0008E13FDCF089526E0829FC0011124FC01DC
:1010F000EB52FE4F20E030E080E041E050E0908194
:10110000992319F09150908307C0BA01022E01C0B3
:10111000660F0A94EAF7862B2F5F3F4F31962630F1
:10112000310569F7089596E0699FB001112420E028
:1011300030E090E04FE0FC01022E02C0F595E7950B
:101140000A94E2F7E0FF06C0F901E60FF71FEB5241
:10115000FE4F40832F5F3F4F2630310561F70895E2
:10116000CF92DF92EF92FF920F931F93CF93DF9373
:101170008091000190910101892B91F08091D4011F
:101180008F5F8093D40181110BC00E94690A90E0A7
:101190009093010180930001892B11F40E94FB09B7
:1011A00089E2C82E82E0D82E90E3E92E92E0F92E53
:1011B000C0E08C2F0E94940707E00C0F802F0E9444
:1011C00094078C2F0E947308182F8C2F0E94E90718
:1011D000F6019081D12FD095D9238123D82B6C2F64
:1011E0008D2F89270E949308F601D1936F01802FDC
:1011F0000E947308182F802F0E94E907F701908141
:10120000D12FD095D9238123D82B602F8D2F8927DB
:101210000E949308F701D1937F010E948507CF5F59
:10122000C73039F60E94A50B81E0DF91CF911F9165
:101230000F91FF90EF90DF90CF900895E82FF0E0AE
:10124000E75DFD4F8081089508951092B9008CE00C
:101250008093B8000895EF92FF920F931F93CF935E
:10126000DF93182FEB011092BC0084EA8093BC003E
:101270000E9461277C019091BC0097FD0EC0CF3F7A
:101280008FEFD807C1F30E9461278E199F098C1731
:101290009D0788F38EEF9FEF2EC09091B900987F45
:1012A000983041F09091B900987F903119F08FEF0C
:1012B0009FEF21C01093BB0084E88093BC000E9484
:1012C00061278C019091BC0097FD0CC0CF3F8FEF40
:1012D000D807C1F30E946127801B910B8C179D07D3
:1012E00088F3D8CF8091B900887F883111F080349D
:1012F000F1F680E090E0DF91CF911F910F91FF9088
:10130000EF9008950F931F93CF93DF93EB0180939A
:10131000BB0084E88093BC000E9461278C019091FF
:10132000BC0097FD0EC0CF3F8FEFD807C1F30E94DE
:101330006127801B910B8C179D0788F38EEF9FEF21
:101340000CC02091B900287F81E090E0283211F490
:1013500080E090E0919581959109DF91CF911F9167
:101360000F9108950F931F93CF93DF93EC0184E8BF
:101370008093BC000E9461278C019091BC0097FD76
:101380000EC0CF3F8FEFD807C1F30E946127801BAB
:10139000910B8C179D0788F38EEF9FEF03C0809110
:1013A000BB0090E0DF91CF911F910F9108950F93B3
:1013B0001F93CF93DF93EC0184E98093BC000E94DC
:1013C00061278C019091BC0094FF0EC0CF3F8FEF3E
:1013D000D807C1F30E946127801B910B8C179D07D2
:1013E00088F38EEF9FEF02C080E090E0DF91CF9115
:1013F0001F910F91089556985E9825982D982698DC
:101400002E9827982F988FEF90E0909389008093E3
:10141000880090938B0080938A0090938D00809336
:101420008C00259A2D9A2FEF80E792E02150804082
:101430009040E1F700C00000269A2E9A2FEF80E737
:1014400092E0215080409040E1F700C00000279AD0
:101450002F9A2FEF80E792E0215080409040E1F7F3
:1014600000C0000025982D982FEF80E792E02150D2
:1014700080409040E1F700C0000026982E982FEFA2
:1014800080E792E0215080409040E1F700C00000EA
:1014900027982F9856985E9825982D9826982E98DC
:1014A00027982F98089589EA8093800089E0809397
:1014B000810024982C983F988AB18F7C8AB96E98C5
:1014C000479A8BB180638BB9769A0E94FB090C9482
:1014D0003A0880E290E090930101809300018091AE
:1014E000370281110EC00E94250981E080933702E6
:1014F0002FEF83ED90E3215080409040E1F700C052
:10150000000064E670E080E40E942B0990930101E2
:1015100080930001892B09F050C064E670E080E000
:101520000E9482099093010180930001892B09F0A8
:1015300044C064E670E080E00E948209909301015B
:1015400080930001892BC9F564E670E08FE30E9467
:1015500082099093010180930001892B71F584E643
:1015600090E00E94D70964E670E080E40E942B09B5
:101570009093010180930001892BF9F464E670E0F7
:101580008CE00E9482099093010180930001892BD5
:10159000A1F464E670E080E00E948209909301016A
:1015A00080930001892B49F464E670E08FE30E9488
:1015B0008209909301018093000184E690E00E94EB
:1015C000D709809100010895611108C0FC01828152
:1015D000882321F08CEA91E00E949A0B80E090E051
:1015E00008958F3D2CE5920721F0803E9C4541F007
:1015F00010C0FB018281882369F00E944D2607C03C
:10160000FB018281882331F081E00E94AC1480E0EC
:10161000089581E00895CF92DF92EF92FF926B01DF
:101620007C010E948F2556985E9825982D982698C3
:101630002E9827982F9890E0FC013197E730F1051C
:10164000A8F4E35AFF4F0C94EA36259A2D9A0EC05F
:10165000259A2D9A269A2E9A09C0259A2D9A04C069
:10166000259A2D9A269A2E9A279A2F9AC701B60163
:10167000FF90EF90DF90CF90089581E008950C9453
:10168000F10ACF93282F30E0F901E55EF44FC491C1
:10169000F901E556F44F2491222359F081EE0E947E
:1016A000C31A8C2F0E94C31A8C2F0E94DC1B81EE60
:1016B00004C08C2F0E94C31A8C2FCF910C94DC1B7A
:1016C0000F931F93CF93DF93EC01062FFE018491BC
:1016D000882359F19E012F5F3F4F813041F4E9018A
:1016E000F9011491812F0E94C31A812F0DC08230FD
:1016F00031F4E901F90184910E94C31A0AC08330D0
:1017000031F4E901F90184910E94DC1B02C00E94BE
:10171000410B2196802F8823C9F2EFE9FFE0319732
:10172000F1F700C000008150F6CFDF91CF911F91FB
:101730000F91089560E00C94600B0E94DF258111E9
:1017400002C00E944D260C94530A0C943C08282F8A
:101750002F7041F0822F90E02A3010F44D960895BA
:101760000697089587E290E0089508950C94B50BCC
:101770000C94B60B08950E944F1F0E94BA0B2FEFD6
:1017800084E39CE0215080409040E1F700C00000DD
:101790000C94BD27FF920F931F93CF93DF938C017F
:1017A000FC01C081D18180918202811113C08281AC
:1017B000882349F0CE010E948224F82E682FCE01A2
:1017C0000E94252404C0CE010E945524F82EBE019B
:1017D0008F2D04C0CE010E948224BE010E94890E7A
:1017E000EC01B8010E943F0B882309F48AC2B801BA
:1017F000CE010E94F210882309F483C2CC3CFCE5A0
:10180000DF0741F4F8018281882309F47AC20E943B
:10181000B81277C2CD3C8CE5D80708F01EC1C43C95
:101820009CE5D90761F4F8018281882309F469C233
:101830000E9453258272E1F40E94B91462C2C53C31
:10184000ECE5DE0708F0C7C0C531FCE5DF0798F01E
:10185000C23CFCE5DF0709F48CC008F492C0F80133
:101860008281882309F44DC20E945325827221F798
:101870000E94AF1446C2C2308CE5D80708F452C0AB
:10188000F8018281882309F459C00E94DF25811163
:1018900002C00E944D260E94F22590E090939C0386
:1018A00080939B03FE01E350FC45E231F10530F4E7
:1018B000EC59FF4F80919B030C94EA3680919B0377
:1018C000816027C0826025C0846023C0806121C000
:1018D00080621FC080641DC080681BC084608860F7
:1018E00018C08E7F16C08D7F14C08B7F12C08F7E74
:1018F00010C08F7D0EC08F7B0CC08F770AC08B7F8E
:10190000877F07C087FB222720F991E0922790FB71
:1019100087F980939B0380919B030E94F6250E9488
:101920004F1FEFC1C1159CE5D90781F0C130DC45DF
:10193000A9F081E080933D0280933E02C801DF91CF
:10194000CF911F910F91FF900C943D0BF801828174
:10195000882309F4D6C10E94BB0BD3C1F801828150
:10196000882309F4CEC180912103816080932103F3
:10197000C8C1F8018281882309F4C3C10E941715E8
:10198000C0C1C631DC45A9F60E945325282FF801B5
:10199000828140910F0150911001882379F02A7AB9
:1019A00091E009F490E090933802911102C069E24D
:1019B00001C065E3CA010E94B4260AC080913802C2
:1019C000811102C069E201C065E3CA010E94BF261D
:1019D0000E94202596C1F8018281C83CFCE5DF0702
:1019E00031F4882309F48DC10E941B148AC1C93CBB
:1019F0009CE5D907C8F4C63CECE5DE0731F4882342
:101A000009F47FC10E94EA137CC1C73CDC4530F475
:101A1000882309F476C10E94D21373C1882309F484
:101A200070C10E9409146DC1CA3C9CE5D90731F40C
:101A3000882309F466C10E94481463C1CB3CDC458D
:101A400030F4882309F45DC10E942D145AC1882303
:101A500009F457C10E94A31254C1C43DFCE5DF073D
:101A6000C1F4F8018281882309F44BC10E949512C8
:101A7000693171058105910540F00E94951262322D
:101A800071058105910508F4F3CE89E10E94AC143B
:101A900038C1C53D8CE5D80708F086C0F8018281C1
:101AA000C03DFCE5DF07A1F4882309F42AC10E94A8
:101AB0009512693071058105910540F00E949512DB
:101AC0006E3071058105910508F4D2CE89E0DECF34
:101AD000C13D9CE5D907A0F5CE3CECE5DE07A1F4BD
:101AE000882309F40EC10E949512623071058105A8
:101AF000910540F00E9495126530710581059105B0
:101B000008F4B6CE82E0C2CFCF3CDC4528F488236F
:101B100009F4F7C081E0BACF882309F4F2C00E942B
:101B20009512663071058105910540F00E9495126D
:101B3000683071058105910508F49ACE86E0A6CF3C
:101B4000C23D9CE5D907A1F4882309F4DAC00E94BC
:101B50009512653171058105910540F00E9495123D
:101B6000673171058105910508F482CE85E18ECF3C
:101B7000C33DDC45A0F4882309F4C3C00E9495123C
:101B80006F3071058105910540F00E949512643116
:101B900071058105910508F46BCE8FE077CF88231E
:101BA00009F4AFC088E172CFC83DFCE5DF0759F505
:101BB000F8018281882361F010923E020E94612721
:101BC00090933C0280933B0280E20E94441C99C0A7
:101BD00080913E02882321F080E20E944B1C91C03C
:101BE00080913B0290913C020E946D27883C9105B8
:101BF00098F780E20E944B1C88E20E94C31A88E298
:101C00000E94DC1B7EC0C93D8CE5D80708F058C097
:101C1000F8018281C63DFCE5DF0751F5882351F0CC
:101C200010923D020E94612790933A0280933902FC
:101C300082E0CBCF0E94532585FF05C081E08093D1
:101C40003D0280933E0280913D0281110FC0809140
:101C5000390290913A020E946D27883C910530F438
:101C600086E20E94C31A86E20E94DC1B82E0B5CFA6
:101C7000C73DDC4528F4882309F443C083E206CF3E
:101C800081119ACF0E94532581FF05C081E0809386
:101C90003D0280933E0280913E0281119DCF809152
:101CA0003B0290913C020E946D27883C910508F010
:101CB00093CF87E20E94C31A87E20E94DC1B8CCF7D
:101CC000CC3DECE5DE0741F4F80182818823C9F0C0
:101CD00082E00E94B02E15C0CD3DFCE5DF0739F44F
:101CE000F8018281882369F00E944D260AC0CB3D0D
:101CF000DC4509F01ECEF8018281882311F080E0D6
:101D0000E8CF80E0DF91CF911F910F91FF90089570
:101D1000089596E0799FF001112494E5899FE00DE4
:101D2000F11D1124E60FF11DEE0FFF1FE551FE4FCF
:101D3000859194910895880F991FFC01E951FE4FF8
:101D4000859194910895CF93DF930E94890E0E940C
:101D50005210EC01811520E59207F0F5811530E471
:101D6000930708F021C1883E910500F5803E91055A
:101D700008F094C1883A910570F4853A910508F00D
:101D8000A3C08130910509F489C108F440C10497CA
:101D900008F084C13CC18D3B910508F4A0C0803C93
:101DA000910508F434C1805C9109F0C0811590421E
:101DB00058F4C11581E0D80708F070C1C03FD105C3
:101DC00008F425C1D0656AC1C11590E3D90708F0B0
:101DD000E1C0CE019F70DAC0811525E5920708F0B9
:101DE00043C0811534E5930708F0F5C0811542E53D
:101DF000940708F5C11581E5D80708F0D8C02C2F45
:101E0000237081E090E002C0880F991F2A95E2F7C5
:101E10009C689E0174E0369527957A95E1F72370CA
:101E2000922BCF70C695C69540E2C49FE001112465
:101E3000C82BD92B33C1869586959E0123703327F5
:101E4000C115D34508F0B8C040E2849FC0011124F9
:101E5000C1E0D0E002C0CC0FDD1F2A95E2F78C2B49
:101E60009D2BEC01DC681AC181152AE5920798F4D4
:101E7000811539E5930708F0B9C08115964508F436
:101E8000AFC0C11588E5D80708F4C1C0DC2FCC2746
:101E9000C06FD06A03C1C1159BE5D90708F4B7C06C
:101EA000C1152CE5D20708F4AFC0CE0190568115BC
:101EB000904208F0ACC08D2F8F710E94CF10DD27AB
:101EC000D0628F71D82BEAC0853A910509F4A2C07F
:101ED000863A910509F0A1C0C2E8D0E4DFC0883A93
:101EE000910509F49DC0893A910509F49CC08A3A8C
:101EF000910509F49BC08B3A910509F49AC08C3A7C
:101F0000910509F499C08B3B910509F498C08C3B6D
:101F1000910509F497C08D3A910509F496C0803B6C
:101F2000910509F495C08E3A910509F494C08F3A51
:101F3000910509F493C0813B910509F492C0823B5D
:101F4000910509F491C0833B910509F490C0843B4D
:101F5000910509F48FC0853B910509F48EC0863B3D
:101F6000910509F48DC0873B910509F48CC0883B2D
:101F7000910509F48BC0893B910509F48AC08A3B1D
:101F8000910509F489C0C0E0D4E488C00E949B0E8A
:101F9000EC0184C0CE019927D3FF03C0EC01D86CBB
:101FA0007DC0EC01D06C7AC0DF70D06A77C0DC2FC6
:101FB000CC27C16FD06A72C040E2849FC001112457
:101FC000C1E0D0E002C0CC0FDD1F2A95E2F7C82B9C
:101FD000D92BDA6863C0D82FCC27C46FD06A5EC013
:101FE000CF71DD27DC2FCC27D06258C08F70806E78
:101FF00090E0906A24E0D695C7952A95E1F7CF70D6
:102000009C013C2BE9014AC0DD27D06647C0C0E0F7
:10201000D0E044C0C1E8D0E441C0C3E8D0E43EC051
:10202000C2EED4E43BC0C9EED4E438C0CAEED4E476
:1020300035C0C5EBD4E432C0C6EBD4E42FC0C3EB4B
:10204000D4E42CC0C4EBD4E429C0C7EBD4E426C04C
:10205000CCECD4E423C0CDECD4E420C0C3E8D5E478
:102060001DC0CAE8D5E41AC0C2E9D5E417C0C4E966
:10207000D5E414C0C1E2D6E411C0C3E2D6E40EC078
:10208000C4E2D6E40BC0C5E2D6E408C0C6E2D6E49A
:1020900005C0C7E2D6E402C0CAE2D6E4CE01DF91B1
:1020A000CF9108958238910549F1B0F481339105BB
:1020B00009F458C048F48932910509F44EC08A32B7
:1020C000910509F454C008958533910509F440C081
:1020D0008933910599F00895833E910529F138F4EB
:1020E000803E910591F0823E9105A1F00895863ED3
:1020F0009105F9F0873E910531F1089520919B03F8
:1021000020FD3AC021FD38C0089580919B0380FDD9
:1021100035C032C080919B0382FF32C080919B0307
:1021200084FD30C083EE39C080919B0382FD28C0BE
:10213000F5CF80919B0383FF27C080919B0384FD93
:1021400021C087EE2AC080919B0383FD1DC0F5CF7F
:1021500080919B0385FD1AC01BC080919B0385FD68
:1021600017C014C080919B0386FD14C015C08091D8
:102170009B0386FD11C00EC080EE0FC089E30DC029
:1021800082EE0BC080E009C086EE07C089E205C080
:1021900085E303C08AE201C081E390E00895909155
:1021A0009B0392FF0DC0282F2871283019F4877FD8
:1021B000846006C0282F2471243011F48B7F88603E
:1021C00093FF0DC0282F2871283119F4877E846170
:1021D00006C0282F2471243111F48B7E886194FD70
:1021E000877E0895CF93DF93813020E8920778F0BF
:1021F000FB012281222359F0EC010E940B110E9465
:102200001911CE019F770E94E1110E94951181E082
:10221000DF91CF91089580913F02811109C08CE038
:1022200090E00E94FD368093400281E080933F025F
:102230000895E0910F01F091100180818093530384
:1022400081FF03C081EE0E94DC1B8091530385FF58
:1022500003C085EE0E94DC1B8091530380FF03C006
:1022600080EE0E94DC1B8091530384FF03C084EE48
:102270000E94DC1B8091530382FF03C082EE0E9408
:10228000DC1B8091530386FF03C086EE0E94DC1B9B
:102290008091530383FF03C083EE0E94DC1B809177
:1022A000530387FF03C087EE0E94DC1B809140022E
:1022B000823001F1A8F48823C9F0813079F580EEED
:1022C0000E94C31A81EE0E94C31A88E10E94C31AB9
:1022D00088E10E94DC1B81EE0E94DC1B80EE1CC0AA
:1022E000843081F08530D1F486EE01C082EE0E9408
:1022F000C31A14C082EE0E94C31A87E50E94C31A53
:1023000087E50AC086EE0E94C31A86EE0E94DC1B97
:1023100088E10E94C31A88E10E94DC1B8FE39CE9DC
:102320000197F1F700C000000895809140028130CC
:1023300049F030F0823021F0853051F486EE06C04D
:1023400082EE04C08CE20E94C31A8CE20E94DC1B65
:102350008091530381FF03C081EE0E94C31A8091D4
:10236000530385FF03C085EE0E94C31A8091530377
:1023700080FF03C080EE0E94C31A8091530384FF44
:1023800003C084EE0E94C31A8091530382FF03C0EE
:1023900082EE0E94C31A8091530386FF03C086EE2B
:1023A0000E94C31A8091530383FF03C083EE0E94EF
:1023B000C31A8091530387FF03C087EE0C94C31A9E
:1023C0000895EF92FF921F93CF93DF937C01CCE0AF
:1023D000D0E097010C2E02C0369527950A94E2F7BB
:1023E000122F1F70812F0E94A70B0E94C31A812FEA
:1023F0000E94A70B0E94DC1B2497CC3F8FEFD807CD
:1024000041F7DF91CF911F91FF90EF900895EF92E8
:10241000FF920F931F93CF93DF93E901662309F493
:102420004BC0242F30E0EFEFF0E0E61BF109B901DB
:10243000E69F9001E79F300DF69F300D1124232F6A
:102440008B01031B11095CE3E52EF12CB7010E94FF
:10245000C236FB01BC01069FC001079F900D169F6D
:10246000900D1124B7010E94C236E230F105B1F09F
:1024700040F4309779F0319711F5832F242F461BC4
:1024800021C0E430F105A1F068F03597C1F4842F44
:10249000861B18C0832F262F230F14C0862F830F6F
:1024A000E42F03C0E42FE61B842F432F2E2F0AC0F6
:1024B000842F462F430F06C0842F242F03C080E0B3
:1024C00020E040E0E42FF0E0E95CF34F4491E22F9C
:1024D000F0E0E95CF34F9491E82FF0E0E95CF34F12
:1024E000E49149839883EA83DF91CF911F910F9103
:1024F000FF90EF90089588E090E00C940537AB01D1
:10250000BC0188E090E00C942337E4E5F3E083E03D
:102510008083109255038FEF8283838314826081BE
:102520007181828193810C947F126091540360FFCA
:1025300006C066956F7370E080E090E0089560E0FB
:1025400070E0CB0108958091580390E001968430AB
:10255000910514F083E090E0809358036091540358
:102560007091550380915603909157030C947F12FC
:102570008091580390E0019797FF02C080E090E0BF
:102580008430910514F083E090E0809358036091CB
:1025900054037091550380915603909157030C9406
:1025A0007F128091540380FF06C06FE070E089E5E0
:1025B00093E00C94D31880E090E0FC01E75AFC4FC4
:1025C00011821082128204968C339105B1F7EDCFFF
:1025D0009091540390FF0FC020E030E0F901E75ADA
:1025E000FC4F8183608342832C5F3F4F2C33310546
:1025F000A9F70C94D1120895CF93DF9300D000D0A7
:10260000CDB7DEB72091540320FF0AC09E012F5F93
:102610003F4F0E9407124B8169818A810E94E81214
:102620000F900F900F900F90DF91CF9108955F92D0
:102630006F927F928F929F92AF92BF92CF92DF92D2
:10264000EF92FF920F931F93CF93DF9300D000D0B0
:10265000CDB7DEB78C01E62EF42E522E80915403B6
:1026600080FF89C0982F9E77923061F49E012F5F82
:102670003F4FC8010E9407124B8169818A810E94E5
:10268000E81259C0E82FE695EF739EE39E0F9F7303
:10269000943018F4F09057034EC09AE39E0F9F7346
:1026A000993068F4881F8827881F90915503292F37
:1026B000220F022F082B97FB112710F93CC087E24D
:1026C0008E0F8F738A30B8F5F0E07997E0FD02C085
:1026D00021E001C02FEFEE7FE35DF34F85919491F0
:1026E0006FE070E00E94C23626034001279F900CE5
:1026F0001124580188E9A81A8EEFB80A89E5C82E76
:1027000083E0D82E98E6692E77247394C501B3012F
:102710000E94C23696014F2D6E2D0E940712A80C02
:10272000B91C84E0C80ED11C85E9C81683E0D80620
:1027300069F70E94D1128091540300FB87F98093BE
:102740005403902F9695809155038078892B10FB28
:1027500087F980935503E0925603F0925703552072
:1027600051F06091540370915503809156039091FC
:1027700057030E947F120F900F900F900F90DF91E0
:10278000CF911F910F91FF90EF90DF90CF90BF906E
:10279000AF909F908F907F906F905F90089521E011
:1027A0000C941713E4E5F3E02081221F2227221F57
:1027B00030915503432F440F842F822B37FB9927E9
:1027C00090F90C9668E671E00E94D63643816281EA
:1027D0000C94CF1320915403221F2227221F3091E3
:1027E0005503432F440F842F822B37FB992790F9F1
:1027F0008C3091051CF4845A9E4F01C00C9768E6FA
:1028000071E00E94D63640915703609156030C94B4
:10281000CF13E4E5F3E08081881F8827881F90911B
:102820005503292F220F97FB992790F943816FEFCA
:10283000822B0C94CF13E4E5F3E08081881F882776
:10284000881F90915503292F220F97FB992790F904
:10285000438160E0822B0C94CF1340915703842F67
:1028600090E0843F910514F4445F01C04FEF8091E4
:102870005403881F8827881F90915503292F220F02
:1028800097FB992790F960915603822B0C94CF13F4
:1028900040915703842F90E00C9714F04C5001C0E6
:1028A00040E080915403881F8827881F909155032A
:1028B000292F220F97FB992790F960915603822BBD
:1028C0000C94CF1320E00C941713CF9390915403E2
:1028D00090FF40C09178811102C0926007C085329C
:1028E00010F0986403C08F73880F982B9093540353
:1028F000662351F060915403709155038091560303
:10290000909157030E947F12C09154036C2F6695DB
:102910006F7370E04BE050E084E091E00E94F0368D
:10292000892B19F010925E0203C081E080935E0251
:10293000CC1FCC27CC1F90915503892F880F97FB74
:10294000992790F940915703609156038C2BCF91B2
:102950000C946214CF91089561E00C9465148091F9
:10296000540386958F738F5F853208F081E00C9455
:10297000AC148091540386958F73815009F484E2DE
:102980000C94AC14E4E5F3E080818160808386954B
:102990008F730C94AC1460E00C9465148091210347
:1029A0008160809321030E94DF25811104C00E9471
:1029B0004D260E9485120E947B12609354037093EF
:1029C000550380935603909357036E7761F40E94EA
:1029D00085120E947B126093540370935503809379
:1029E00056039093570381E080935E0280915403D5
:1029F00080FF04C086958F730C94CB140895E4E592
:102A0000F3E080818E7F80836081718182819381F8
:102A10000E947F1210925E022FEF80E792E0215019
:102A200080409040E1F700C000000C94D1128091EA
:102A3000540380FD0C94FF140C94C214CF93C82F40
:102A400080915C0290915D020E946D27EC2FF0E076
:102A5000E75DF34FE491F0E08E179F0708F443C061
:102A60000E94612790935D0280935C0260915B02FB
:102A700070E080E090E00E94C33420E030E04FE757
:102A800053E40E94E6332BED3FE049E450E40E941A
:102A9000EC350E9459360E9460342BE43AE34EE252
:102AA0005FE30E94793320EF3BEF48ED52E40E9450
:102AB000EC350E949234462F80915403881F88275A
:102AC000881F90915503292F220F97FB992790F982
:102AD00060915603822B0E94FC1280915B0290E071
:102AE000019680935B02CF910895CF93C82F809178
:102AF000590290915A020E946D27EC2FF0E0EA5D96
:102B0000F34FE491F0E08E179F07E8F00E946127F1
:102B100090935A0280935902409157036091560353
:102B200080915702909158020E94FC1280915702A6
:102B300090915802019668E671E00E94C236909327
:102B4000580280935702CF910895CF92DF92FF925F
:102B50000F931F93CF93DF93F82E8091550290919E
:102B600056020E946D27EF2DE695F0E0ED5DF34FE4
:102B7000E491F0E08E179F07E8F10E94612790939F
:102B800056028093550209E513E0C0E0D0E088E6E4
:102B9000C82EDD24D39480915302909154028C0F5F
:102BA0009D1FB6010E94C236980140915703609163
:102BB00056030E94071268960C5F1F4FC83681E0CB
:102BC000D80749F70E94D112209153023091540244
:102BD000F0FE0AC0C9010196BE010E94C236909360
:102BE00054028093530206C021503109309354029D
:102BF00020935302DF91CF911F910F91FF90DF90AF
:102C0000CF900895AF92BF92CF92DF92EF92FF9252
:102C10000F931F93CF93DF93C82F80FF02C01FEF46
:102C200001C011E080915102909152020E946D27E3
:102C3000C695EC2FF0E0E05EF34FE491F0E08E17E4
:102C40009F0708F466C00E94612790935202809308
:102C5000510229E5C22E23E0D22E3BE5E32E33E0DC
:102C6000F32EC0E0D0E0F70131971082F601108218
:102C7000F701108294E0A92EB12C00E0809150025F
:102C8000800F87FD815F082E000C990BC817D907AC
:102C9000E9F4809157038A9DA0018B9D500D11246A
:102CA000559547955595479580915403881F8827DA
:102CB000881F90915503592F550F97FB992790F92D
:102CC000960160915603852B0E940712010FF1E0D7
:102CD000AF1AB10899F6219684E0C80ED11CE4E041
:102CE000EE0EF11CCF30D10509F0BDCF0E94D112FC
:102CF00080915002113031F4811102C08EE007C082
:102D0000815005C090E00196BE010E94D6368093A6
:102D10005002DF91CF911F910F91FF90EF90DF90C4
:102D2000CF90BF90AF9008950F931F93CF93DF93F1
:102D3000C82F80914E0290914F020E946D27EC2F78
:102D4000F0E0E35EF34FE491F0E08E179F0708F4A4
:102D500064C00E94612790934F0280934E0280E0EE
:102D600090E0FC01E75AFC4F118210821282049617
:102D70008C339105B1F7C0E0D0E00FE010E0CE0158
:102D8000B8010E94D636FC0180914D02082E000C3D
:102D9000990BEE0FFF1FEE0FFF1FC817D907FCF0AE
:102DA00080910301082E000C990B8C179D07BCF035
:102DB0009F01275A3C4F80915403881F8827881F02
:102DC00090915503592F550F97FB992790F94091F2
:102DD000570360915603852B0E94071205C0E75ADE
:102DE000FC4F1182108212822196CF30D10539F624
:102DF0000E94D1128091020190914D02980F909300
:102E00004D0220910301280F20930301121614F4A0
:102E10009E301CF0819580930201DF91CF911F912C
:102E20000F910895EF92FF920F931F93CF93DF932B
:102E300080914B0290914C020E946D27883E9340F6
:102E4000D0F10E94612790934C0280934B02C09175
:102E50004902D0914A022196C170DD27D0934A02DF
:102E6000C093490289E5E82E83E0F82E10E008E7D8
:102E7000812F8695FE01E80FF11DCF018170992702
:102E800097014091570360915603FC010E9FC001CA
:102E90000F9F900D11240E9407121F5FF4E0EF0EA8
:102EA000F11C1F3029F7DF91CF911F910F91FF90F7
:102EB000EF900C94D112DF91CF911F910F91FF9061
:102EC000EF900895CF93DF9300D000D0CDB7DEB759
:102ED00080914702909148020E946D27EBE1FCE04F
:102EE0002591349182179307C0F180914602811198
:102EF0000CC09E012F5F3F4F4FEF6FEF80E090E0DF
:102F00000E9407128A81809346020E946127909353
:102F100048028093470280914502813051F028F0A9
:102F2000823061F4409146020AC08091460240E03E
:102F300007C06091460240E080E003C040E080E0CE
:102F400060E00E94E8128091450290E0019663E003
:102F500070E00E94D636809345020F900F900F903C
:102F60000F90DF91CF9108950F931F93CF93DF932D
:102F700080914302909144020E946D27843F9140CA
:102F800008F448C00E946127909344028093430252
:102F9000C9E5D3E000E010E0209141023091420207
:102FA0008091540390915503073011051CF4232B95
:102FB00079F002C0232B61F4881F8827881F592FBE
:102FC000550F97FB992790F99E01409157030AC02E
:102FD000881F8827881F592F550F97FB992790F92D
:102FE0009E0140E060915603852B0E9407120F5FFF
:102FF0001F4F24960F30110579F60E94D11280914F
:103000004102909142020196817099279093420269
:1030100080934102DF91CF911F910F91089580918C
:103020005E028823D9F190915403892F86958F737E
:103030002EE3280F2F73243018F482500C941E15A1
:103040002AE3280F2F73233018F486500C9475153B
:1030500027E3280F2F73263018F489500C94A515F8
:1030600021E3280F2F73263018F48F500C9402168A
:103070002BE2280F2F73233018F485510C949416EB
:10308000892F8E77803311F40C941217863411F443
:103090000C946217883411F40C94B41708958823A3
:1030A00019F05198599A02C0519A59985098589AC3
:1030B00095E09A95F1F70000509A589895E09A9506
:1030C000F1F70000882311F0519A599885E08A950C
:1030D000F1F7000008958BB18C7F8BB95098589A06
:1030E0005198599A85E08A95F1F7000008958AB1C0
:1030F0008C7F8AB985E08A95F1F70000519A59983A
:1031000085E08A95F1F70000509A589885E08A95F5
:10311000F1F7000008955098589A85E08A95F1F7E4
:1031200000005198599A85E08A95F1F700000895BA
:10313000CF93DF93D82FC8E08D2F80780E944F184F
:10314000DD0FC150C9F780E00E944F1885E08A95D5
:10315000F1F7000085E08A95F1F7000080E0DF914B
:10316000CF9108952BB1342F309523233BB1432BBE
:103170003FB7F894FC01680F791FE617F70789F04D
:10318000819198E04BB9000000C087FF2BB9880FF0
:10319000000000C000C000C02BB900C09A9591F794
:1031A000ECCF3FBF0895AF92BF92CF92DF92EF92E4
:1031B000FF920F931F93CF93DF938C01EB01CFB658
:1031C000D090BC00F8948091BC008B7F8093BC00B1
:1031D0000E946B180E94771884E80E949818CC0F00
:1031E000DD1FCC0FDD1F78015801AC0EBD1EEA14A7
:1031F000FB0431F0F70181917F010E949818F7CF0D
:103200000E948B18CFBED092BC00579A40E8BE01F6
:10321000C801DF91CF911F910F91FF90EF90DF9048
:10322000CF90BF90AF900C94B218909364028093AB
:1032300063020895E0916302F0916402309721F0F7
:103240000190F081E02D099480E00895E0916302FF
:10325000F0916402309799F020912001222359F0D7
:1032600020919B0327FF07C0DC012C9111962C9322
:10327000119725E02C930280F381E02D09940895A5
:10328000E0916302F0916402309739F022E0DC01B2
:103290002C930480F581E02D09940895209161021A
:1032A000309162028217930771F0909362028093CB
:1032B0006102E0916302F0916402309721F0068090
:1032C000F781E02D0994089520915F02309160020A
:1032D0008217930771F09093600280935F02E091F0
:1032E0006302F0916402309721F00084F185E02DB3
:1032F0000994089585B7806885BF85B7806885BFC4
:10330000089508950E947A190C94811981E0089516
:103310000E9458270E943E080E94EF270C94CE146A
:10332000CF92DF92EF92FF920F931F93CF93DF9391
:10333000CDB7DEB72B970FB6F894DEBF0FBECDBF6B
:103340000E94B0080E948619811111C08FEF8983F5
:103350008A831B820E9461278160782F9D838C83E2
:1033600049815A816B818D810E94741A56C086E60C
:10337000C82E82E0D82E00E010E0E02E802F0E94C0
:103380001E09F60141916F01F42EF82631F40F5F0A
:103390001F4F0E30110589F7D9CF9091210391FF6E
:1033A00004C08B870E9424098B8520E030E04F2DDC
:1033B00050E0922FBA01022E02C0759567950A94CB
:1033C000E2F760FF24C02E83EF8221E030E0690144
:1033D00002C0CC0CDD1C9A95E2F790E08C219D2177
:1033E000892B09F420E028870E9461278160782FCB
:1033F0009A8789874E815F8168858A850E94741AC1
:10340000F801EA59FD4F8081C826C08206C02F5FAF
:103410003F4F2630310569F6BACF0E9482291091BC
:1034200065020E941A191817A1F00E941A198093B8
:1034300065022B960FB6F894DEBF0FBECDBFDF91AD
:10344000CF911F910F91FF90EF90DF90CF900C9450
:10345000B80B2B960FB6F894DEBF0FBECDBFDF9131
:10346000CF911F910F91FF90EF90DF90CF90089533
:10347000DC0111962C9111978C91682F70E041E03E
:1034800050E001C0440F8A95EAF712968C9112978A
:1034900030E0882329F0809184028823E9F006C077
:1034A000F901EC58FD4F90819423B1F086E0829FA2
:1034B000F001839FF00D1124E60FF71FEE0FFF1FA1
:1034C000EF5DFE4F808191818D939C93F901EC58C3
:1034D000FD4F8081482B06C0F901EC58FD4F409507
:1034E0008081482340830895CF93DF93CDB7DEB723
:1034F0002B970FB6F894DEBF0FBECDBF942F4F832E
:10350000252F588769877A878B874A855B85452B66
:1035100021F02F3F09F59F3FF9F4DE01119686E077
:10352000FD0111928A95E9F785E0FE013796019039
:103530000D928A95E1F749815A816B817C818D8159
:103540009E810E94F6212B960FB6F894DEBF0FBE27
:10355000CDBFDF91CF910895CE0107960E94381A12
:10356000DCCFFC01808191810E94C12492959F70E3
:10357000963041F48091840291E0892780938402FF
:10358000909383020895CF93DF931F92CDB7DEB758
:10359000882309F40DC1682F8238C1F40E941A19DA
:1035A00081FD06C169E380910F01909110010E9495
:1035B000B4260E9420252FEF81EE94E02150804018
:1035C0009040E1F700C0000069E319C0833811F5AD
:1035D0000E941A1980FDECC063E580910F01909163
:1035E00010010E94B4260E9420252FEF81EE94E066
:1035F000215080409040E1F700C0000063E58091D9
:103600000F01909110010E94BF260F90DF91CF9182
:103610000C9420258438C1F40E941A1982FDC8C078
:1036200067E480910F01909110010E94B4260E94DE
:1036300020252FEF81EE94E0215080409040E1F76B
:1036400000C0000067E4DBCF8CEF860F813A70F496
:10365000862F69830E94B82B69818111A9C080914E
:103660000F01909110010E94B426CFCF80E2860F07
:10367000883048F4677081E001C0880F6A95EAF7E6
:103680000E945625C2CF8BE5860F833088F4653AB9
:1036900029F0663A31F083E890E005C081E890E0D7
:1036A00002C082E890E00F90DF91CF910C944E1908
:1036B00088E5860F853108F071C0683A61F1693A92
:1036C00069F16A3A71F16B3A79F16C3A81F16B3BCD
:1036D00089F16C3B91F16D3A99F1603BA1F16E3A41
:1036E000A9F16F3AB1F1613BB9F1623BC1F1633BC2
:1036F000C9F1643BD1F1653BD9F1663BE1F1673B30
:10370000E9F1683BF1F1693BF9F16A3B09F43FC02B
:1037100080E090E03EC082EE90E03BC089EE90E019
:1037200038C08AEE90E035C085EB90E032C086EB81
:1037300090E02FC083EB90E02CC084EB90E029C098
:1037400087EB90E026C08CEC90E023C08DEC90E0FD
:1037500020C083E891E01DC08AE891E01AC082E9A8
:1037600091E017C084E991E014C081E292E011C0B9
:1037700083E292E00EC084E292E00BC085E292E028
:1037800008C086E292E005C087E292E002C08AE2C9
:1037900092E00F90DF91CF910C946419603F40F05C
:1037A000862F0E948A280F90DF91CF910C94772961
:1037B0000F90DF91CF910895882309F464C0823877
:1037C00079F40E941A1981FF5EC069E380910F01AC
:1037D000909110010E94B4260E94202569E310C038
:1037E0008338B1F40E941A1980FF4DC063E58091BF
:1037F0000F01909110010E94B4260E94202563E5DC
:1038000080910F01909110010E94BF260C942025F9
:10381000843879F40E941A1982FF35C067E48091D8
:103820000F01909110010E94B4260E94202567E4A8
:10383000E7CF9CEF980F913A10F4682FE1CF90E218
:10384000980F983050F4877091E001C0990F8A95D5
:10385000EAF7892F0E945C25D9CF9BE5980F93301A
:1038600020F480E090E00C944E1998E5980F953183
:1038700020F480E090E00C946419803F20F00E94D6
:10388000F2280C9477290895882321F00E94562568
:103890000C9420250895882321F00E945C250C9427
:1038A000202508958F929F92AF92BF92DF92EF9260
:1038B000FF920F931F93CF93DF937C01D62FC72FD7
:1038C000FC01058102950F70128111110E94732570
:1038D0000E941925882379F0112369F080E28D0F69
:1038E000883048F082E00E9402250E94192591E06C
:1038F000D82ED92601C0D12CAC2EA2948FE0A822BC
:10390000B12CF501EA58FF4F0C94EA368C2F807FDA
:10391000CF70882311F0C295C07F112399F0CC237A
:1039200009F4C8C180E28D0F883010F0D11104C0B5
:103930008C2F0E94562503C08C2F0E9466250E9462
:103940002025B8C18D2F0E94DC1BCC2309F42EC288
:1039500080E28D0F883010F0D11104C08C2F0E94AE
:103960005C2503C08C2F0E946C250E9420251EC25E
:103970008C2F807FCF70803211F0C295C07FDD2305
:1039800019F0D130C9F021C0112371F0002341F0AA
:10399000013031F40E948C258C2B0E94862506C2B2
:1039A0000E948C258C2B3FC1002319F0013009F4B3
:1039B000FDC10E94892511C0112321F0023008F0B9
:1039C000F5C107C00111F2C108C0112321F0011196
:1039D00071C18C2F28C101117EC18C2F2AC18C2F5F
:1039E00086958695837090E0009719F0019761F0B5
:1039F000DDC1112321F08D2F9C2F937002C080E038
:103A000090E00E944E19E2C1112321F08D2F9C2FCE
:103A1000937002C080E090E00E946419D7C1112326
:103A2000F9F0D53F51F0D63F71F0D43FA9F4809121
:103A300095039091960381600BC0809195039091BE
:103A40009603826005C080919503909196038460EF
:103A500090939603809395038D2F0E948A281EC011
:103A6000D53F51F0D63F71F0D43FA9F48091950332
:103A7000909196038E7F0BC0809195039091960351
:103A80008D7F05C080919503909196038B7F9093D5
:103A90009603809395038D2F0E94F2280E94772928
:103AA00095C18C2F837009F050C011118BC18D2FDF
:103AB000829586958770880F880F9D2F9F70892E1D
:103AC000912CA12CB12C082E04C0880C991CAA1C86
:103AD000BB1C0A94D2F7D4FF14C00FE010E020E022
:103AE00030E0B901A80104C0440F551F661F771FBD
:103AF0008A95D2F7CB01BA01609570958095909523
:103B000003C060E070E0CB01C695C695C370D0E0FD
:103B1000C230D10561F0C330D10581F0682979291F
:103B20008A299B29219771F00E943B234BC1682968
:103B300079298A299B290E944D2344C10E943B2355
:103B4000C501B4010E9429233DC1112319F08C2F16
:103B5000817001C08695882309F434C18D2F829528
:103B600086958770880F880F9D2F9F70892E912CC6
:103B7000A12CB12C082E04C0880C991CAA1CBB1CBB
:103B80000A94D2F7D4FF14C00FE010E020E030E038
:103B9000B901A80104C0440F551F661F771F8A95FD
:103BA000D2F7CB01BA01609570958095909503C0CE
:103BB00060E070E0CB01C695C695C3704C2F50E015
:103BC0004230510569F04330510589F0682979295F
:103BD0008A299B294130510571F00E940024F2C0CE
:103BE000682979298A299B290E941224EBC00E9406
:103BF0000024C501B4010E94EE23E4C08D2F90E0A3
:103C0000FC01E05EF109E531F10508F04FC0EA572B
:103C1000FF4F0C94EA36DF708C2F8F71112331F037
:103C20000E9487238D2F0E94441CC0C00E94A8239D
:103C30008D2F0E944B1CBAC0112339F00111B6C060
:103C40008C2F8F710E94CD23B1C0023008F0AEC01E
:103C5000F7CF112339F08C2F8F710E948723A6C0D4
:103C60001123C9F38C2F8F710E94A8239FC01123A9
:103C700029F08C2F8F710E94722398C00E946D23AF
:103C800095C0112349F0CF718C2F0E94872363E0E8
:103C90008C2F0E94F9248AC081E00E940225023004
:103CA00008F484C082E00E94022580C0112331F014
:103CB000002389F28D2F0E94C31A78C0002391F24D
:103CC000D93349F45FEF67EE73E0515060407040C4
:103CD000E1F700C000008D2F0E94DC1B67C04C2F55
:103CE0004F706D2FC7010E94E40A0E949A226EC095
:103CF000D23FB1F028F4D03F49F0D13FF9F028C0CD
:103D0000D43FB9F058F0D53F71F022C0112309F427
:103D100047C09091840281E0892708C081E018277C
:103D2000109384023DC011113BC081E08093840256
:103D300037C0111135C01092840232C0112329F00E
:103D400080918302882329F329C0002311F328C01E
:103D5000809183020023C1F0882341F09091840276
:103D600081E0892780938402109283028D2F112392
:103D700019F00E94C31A14C00E94DC1B86E0F701F0
:103D800011928A95E9F70CC0882351F0111108C0EF
:103D90009091840281E089278093840210928302AB
:103DA0004C2F4F706D2FC7010E94880EF8E0AF16A0
:103DB000B10441F05CF04AE0A41AB10852E0A51643
:103DC000B10420F40E941A190E94B80BDD20E1F022
:103DD0000E94F52480FD18C0F70112820E94EF2492
:103DE0000E948723C7010E94101F0E94EF24DF91C9
:103DF000CF911F910F91FF90EF90DF90BF90AF9008
:103E00009F908F900C94A823DF91CF911F910F91D9
:103E1000FF90EF90DF90BF90AF909F908F900895AC
:103E20000F931F93CF93DF93EC01888199812B81AE
:103E30003C81232BB9F09F3F11F48F3F99F0CE01C5
:103E40000E94CA0B882371F0688179818A810E945F
:103E5000CC248C010E9424240E942623B801CE0188
:103E60000E94521CDF91CF911F910F9108950E94E3
:103E700073250E94832580910F01909110010E946B
:103E8000CA260E9420250E941D2A0E94772980E0D0
:103E900090E00E944E1980E090E00C9464190E941A
:103EA00063250C94371F0E94C124E92FE295EF701F
:103EB000F0E03297EE30F105B0F4E556FF4F0C9488
:103EC000EA36803F91F018F4803E68F40EC0843FDB
:103ED00051F40BC0803E48F0813F29F406C093FBAB
:103EE000882780F9089580E0089581E00895CF93B0
:103EF000DF9300D000D01F92CDB7DEB70F900F90A8
:103F00000F900F900F90DF91CF910895CF93DF9393
:103F100000D000D000D0CDB7DEB726960FB6F8940B
:103F2000DEBF0FBECDBFDF91CF9108951F93CF931A
:103F3000DF93C091850216E080918602C81799F040
:103F4000D0E01C9FF0011D9FF00D1124E957FD4F9B
:103F50004081518162817381848195810E94861F95
:103F60002196C770E9CFDF91CF911F9108954091BD
:103F7000B7025091B8026091B9027091BA02809173
:103F8000BB029091BC020C94861F8091BC0282956A
:103F90008F7009F054C08091B902882309F44FC092
:103FA00080918502A09186026091B7027091B8025B
:103FB0004091BA025091BB02B6E08A1709F43FC0A3
:103FC00090E041155105C1F17F3F11F46F3FA1F120
:103FD000B89FF001B99FF00D1124E957FD4F2181E1
:103FE00072132AC02081621327C02281211124C0AC
:103FF000238134812417350710F421503109241B03
:10400000350B283C3105C0F42091BC022F70206193
:104010002093BC0226E0289FF001299FF00D112477
:10402000E457FD4F80818F708061808387EB92E041
:104030000E94101F0C94961F01968770BECF0895A2
:10404000CF92DF92EF92FF920F931F93CF93DF9364
:10405000CDB7DEB762970FB6F894DEBF0FBECDBF07
:104060008C0185E0F801DE011D9601900D928A9584
:10407000E1F7D8014C9111965C91119712966C91D1
:1040800012971396CD90DC9014973091B7027091EF
:10409000B8028091BA029091BB02009709F46BC1FB
:1040A0007F3F19F43F3F09F466C1E090B902EE206A
:1040B00009F4C0C02091BC02C816D90628F0F60148
:1040C000E81BF90BCF0104C0809590958C0D9D1DC8
:1040D000FF24F394883C910578F0F12C207F09F0BF
:1040E000C6C07C2DD98AC88A89890E94771F87EB30
:1040F00092E00E94101FB1C0822F807F09F046C05D
:10410000751314C0341312C0611110C02F702061D8
:104110002093BC020E94B71F87EB92E00E94101F01
:104120008091BC02D80115968C932EC0CD2819F130
:104130005F3F11F44F3FF9F0F62E61111CC08091E2
:1041400085022091860236E0821709F45AC090E079
:10415000389FF001399FF00D1124E957FD4F71810F
:10416000571306C07081471303C07281711103C0D9
:1041700001968770E9CFF62E662309F427C1809156
:10418000BC0281608093BC02F12C20C1751308C071
:10419000341306C0611104C08091BC02D801C3C0B1
:1041A0004D875E878D859E856A8B0E94531F6A8925
:1041B0008823E1F16623D1F12091BC02822F829500
:1041C0008F7090E0029774F08091B7029091B802DE
:1041D00098878F831986DB86CA862C87CE0107963F
:1041E0000E94101F86E0F801A7EBB2E001900D924B
:1041F0008A95E1F70E94C51F0E94B71FFF24F39420
:10420000E5C04D875E878D859E850E94C124292F3C
:1042100022952F7030E0223031050CF0CBC09F701A
:1042200009F0C5C0805E883008F4D0C0C8010E9483
:10423000101FE4CFC816D90608F453C0F601E81BD6
:10424000F90BCF01883C910508F450C0F12C7C2D6E
:10425000D98AC88A89890E94771FE7EBF2E086E055
:10426000DF011D928A95E9F70E94B71FAFC0751351
:1042700014C0341312C0611110C08091BC02F80147
:104280008583C8010E94101F86E0E7EBF2E0DF01A2
:104290001D928A95E9F7FE2C99C04D875E878D8522
:1042A0009E856A8B0E94531F6A89882309F4BECFBA
:1042B000662309F4BBCF2091BC02822F82958F70B8
:1042C00090E002970CF48ECF8091B7029091B802E3
:1042D0009A8389831B82DD82CC822E83CE01019654
:1042E0007FCF809590958C0D9D1DACCFF62E6623CB
:1042F00009F49CCF75132EC034132CC02091BC023E
:1043000020FD1FC0822F82958F70D9F0D80115969D
:104310002C9315978F3049F08F5F982F9295907F4F
:10432000822F8F70892B15968C93C8010E94101FC5
:1043300086E0F801A7EBB2E001900D928A95E1F7D3
:1043400093CF86E0F801A7EBB2E001900D928A9539
:10435000E1F73CC04D875E878D859E850E94531F87
:10436000811140CF8091BC0281608093BC02C80162
:104370000E94101F2BC0662309F458CF4D875E871B
:104380008D859E850E94531FF82E882309F44ECFF9
:1043900086E0F801A7EBB2E001900D928A95E1F773
:1043A00087EB92E00E94B11A0E94C51F5DCF811178
:1043B00039CF0CC0243031050CF038CF9F7009F490
:1043C00031CFF8019581907F09F02CCF8F2D629627
:1043D0000FB6F894DEBF0FBECDBFDF91CF911F9116
:1043E0000F91FF90EF90DF90CF9008951F93CF93A0
:1043F000DF93CDB7DEB72C970FB6F894DEBF0FBEB4
:10440000CDBF4F83588769877A878B879C87CE017A
:1044100007960E942020882369F08F8198852A853D
:104420003B85232BF1F19F3F09F063C08F3F09F0DB
:1044300060C037C086E0FE013796DE01119601901C
:104440000D928A95E1F76F817885EA85FB85309733
:1044500041F17F3F11F46F3F21F12091860230E05E
:10446000C9010196877099274091850250E0841711
:10447000950709F447C069837A83FD83EC8396E04E
:10448000929FD001939FB00D1124A957BD4FFE01FB
:10449000319601900D929A95E1F7809386020E94E1
:1044A000961F16E080918502909186028917C1F1CE
:1044B000189FC001112489579D4F0E9420208823F6
:1044C00079F1E09185021E9FF0011124E957FD4F1B
:1044D0004081518162817381848195810E94861F10
:1044E0008091850290E001968770992780938502DC
:1044F000D9CF4F81588569857A858B859C850E94A7
:10450000861FCFCF0E944F1F109286021092850205
:10451000E7EBF2E086E0DF011D928A95E9F7C1CF73
:104520002C960FB6F894DEBF0FBECDBFDF91CF91B2
:104530001F910895EF92FF920F931F93CF93DF93F4
:104540008C01892B09F46CC0F12CEE24E394E80172
:104550002196F8018491843740F4843008F051C0EA
:10456000813081F0823019F15BC0853709F444C095
:10457000A8F19CE7980F903708F052C08F770E94FF
:10458000DC1B41C00E5F1F4FFE01C49180E28C0F07
:10459000883048F4C7708E2D01C0880FCA95EAF79D
:1045A0000E94762514C08C2F0E94C31A2DC00E5F66
:1045B0001F4FFE01C49180E28C0F883058F4C77001
:1045C0008E2D01C0880FCA95EAF70E947C250E94B3
:1045D00020251AC08C2F0E94DC1B16C00E5F1F4FB7
:1045E000FE01C491CC2381F08FE99FE00197F1F7A0
:1045F00000C00000C150F6CF0E5F1F4FFE01F490C7
:1046000003C00E94C31A8E018F2D882309F49FCF07
:10461000EFE9FFE03197F1F700C000008150F5CFDE
:10462000DF91CF911F910F91FF90EF900895089522
:104630000C9417230E9418236093F8027093F902D8
:104640008093FA029093FB020C94371F08950C9408
:104650001A230F931F930091F8021091F9022091F1
:10466000FA023091FB02602B712B822B932B1F914E
:104670000F910C941A230F931F930091F80210913D
:10468000F9022091FA023091FB0260237123822308
:1046900093231F910F910C941A230F931F93009152
:1046A000F8021091F9022091FA023091FB02602782
:1046B0007127822793271F910F910C941A230C9432
:1046C0000B0B0E945F236093F4027093F5028093BA
:1046D000F6029093F7020C94371F60E070E0CB0174
:1046E0000C9461230F931F9341E050E060E070E071
:1046F0008A019B0104C0000F111F221F331F8A95DE
:10470000D2F7C901B8011F910F910C9461230F9347
:104710001F9341E050E060E070E004C0440F551F7B
:10472000661F771F8A95D2F78091F4029091F50267
:10473000A091F602B091F7028A019B01082B192B78
:104740002A2B3B2BC901B8011F910F910C946123B7
:104750000F931F9341E050E060E070E004C0440F0D
:10476000551F661F771F8A95D2F740955095609523
:1047700070958091F4029091F502A091F602B091AB
:10478000F7028A019B01082319232A233B23C9012D
:10479000B8011F910F910C9461230F931F9341E077
:1047A00050E060E070E004C0440F551F661F771FA3
:1047B0008A95D2F78091F4029091F502A091F602C9
:1047C000B091F7028A019B01082719272A273B2766
:1047D000C901B8011F910F910C9461230F931F938E
:1047E0000091F4021091F5022091F6023091F70247
:1047F000602B712B822B932B1F910F910C946123B3
:104800000F931F930091F4021091F5022091F6028C
:104810003091F70260237123822393231F910F911C
:104820000C9461230F931F930091F4021091F502F1
:104830002091F6023091F702602771278227932793
:104840001F910F910C9461230895292F220F920F2D
:10485000990F890FA82FA695A695A695877051E068
:1048600001C0550F8A95EAF785E0A89FD001112471
:1048700020E030E070E0F901EA0FFB1FE354FD4F48
:104880004081CB01022E02C0969587950A94E2F7EB
:1048900081709927819584278523842780832F5FC2
:1048A0003F4F2530310539F70895292F220F920FF8
:1048B000990F890F682F669566956695982F977062
:1048C00085E0689FB001112440E050E080E0FA01EB
:1048D000E60FF71FE354FD4F208130E0092E02C0A0
:1048E000369527950A94E2F721703327042E01C0EC
:1048F000220F0A94EAF7822B4F5F5F4F4530510534
:1049000031F70895CF92DF92EF92FF920F931F93AA
:10491000CF93DF938C01C090F802D090F902E09021
:10492000FA02F090FB028091F4029091F502A091BE
:10493000F602B091F702C82AD92AEA2AFB2ACFE167
:10494000D0E0D701C6010C2E04C0B695A795979567
:1049500087950A94D2F780FF06C0B8018C2F0E9479
:10496000A30E019721F4219760F780E001C08C2FFE
:10497000DF91CF911F910F91FF90EF90DF90CF903B
:104980000895CF93DF93EC010E948224BE010E9420
:10499000A30EDF91CF9108951F93CF93DF93EB0187
:1049A00090918202992321F0CB010E94C12413C06F
:1049B000882349F0CB010E948224182F682FCE0152
:1049C0000E94252404C0CB010E945524182FBE014B
:1049D000812F0E94A30EDF91CF911F9108958091A6
:1049E000FC0285958595859508958091FC028770D8
:1049F000089598E0899F90011124262B2093FC02B2
:104A00000C9487232091FC02809582238093FC02E2
:104A1000982F977069F430E0482F082E000C550B42
:104A20002417350729F08595859585950C94A8233D
:104A300008959091FC02977081E009F480E0089558
:104A4000E0910F01F0911001809120038083E091AB
:104A50000F01F0911001908180911F03892B8083B9
:104A6000E0910F01F0911001908180911E03892B3C
:104A700080838091FD02882381F0E0910F01F09105
:104A800010019081892B808380910F0190911001FA
:104A90000E944F2681111092FD0280910F0190918A
:104AA00010010C9426198091200308959091200301
:104AB000892B80932003089580959091200389236A
:104AC00080932003089510922003089590911F036E
:104AD000892B80931F030895809590911F0389234C
:104AE00080931F03089510921F03089590911E0351
:104AF000892B80931E030895809590911E0389232E
:104B000080931E03089510921E0308958093FD0262
:104B100008951092FD0208958091FD020895CF92AC
:104B2000DF92EF92FF926C01EE24FF24C114D104B6
:104B3000E104F10421F0C701B60120E101C020E049
:104B4000C72ED82EE92EFF24C114D104E104F104AC
:104B500019F0285FC701B6016B017C0154E0F6949F
:104B6000E794D794C7945A95D1F7C114D104E104BE
:104B7000F10419F02C5FC701B6016B017C0142E022
:104B8000F694E794D794C7944A95D1F7C114D10409
:104B9000E104F10419F02E5FC701B601DC01CB017D
:104BA000B695A79597958795892B8A2B8B2B09F01E
:104BB0002F5F822FFF90EF90DF90CF90089580E0DD
:104BC00090E00E940B3721E08D3E9E4F09F020E0DF
:104BD000822F089582E090E00C94FD3683E090E00F
:104BE0000C94FD3684E090E00C94FD36682F84E050
:104BF00090E00C941137AB01BC018FE090E00C9475
:104C00002337AB01BC0183E190E00C94233760E0D3
:104C100070E0CB010C94012660E070E0CB010E94B3
:104C2000FB250C9407266DEE7EEF80E090E00E945D
:104C30002F3760E082E090E00E94113760E083E06F
:104C400090E00E9411371092F8021092F90210922F
:104C5000FA021092FB0260E084E090E00E941137BB
:104C600060E085E090E00E94113760E086E090E02F
:104C70000E9411376FEF87E090E00E94113740E00B
:104C800050E0BA0188E090E00E94233760E08DE0B8
:104C900090E00E9411370C940C260C941326FC0112
:104CA000329680912001882331F080919B0387FF09
:104CB00002C09EE101C096E080E0915028F0219171
:104CC0002223D9F38F5FF9CF08959C01FC0132961E
:104CD0009FEF80E04191461789F09F3F19F4411101
:104CE00001C0982F8F5F8630A9F79F3F39F0F901F7
:104CF000E90FF11D97FDFA95628308950895FC016F
:104D0000329608962081261301C010823196E8174A
:104D1000F907C1F70895262F2695269526952E3159
:104D200068F4FC01E20FF11D677021E030E001C082
:104D3000220F6A95EAF78281282B22830895262F75
:104D40002695269526952E3170F4FC01E20FF11D73
:104D5000677021E030E001C0220F6A95EAF72095E4
:104D6000828128232283089520912001222329F083
:104D700020919B0327FD0C948B260C946526209193
:104D80002001222329F020919B0327FD0C949F26CC
:104D90000C947F2620912001FC013296222331F0D1
:104DA00080919B0387FF02C08EE101C086E0DF0196
:104DB0001D928A95E9F7089508950C94DC260E94C7
:104DC000DD268091A103843049F11092220320E472
:104DD00088E190E00FB6F894A895809360000FBE2C
:104DE0002093600080E00E94B80B0E94DD2683B70C
:104DF000817F846083BF83B7816083BF7894889507
:104E000083B78E7F83BF0FB6F894A895809160001A
:104E1000886180936000109260000FBE089508952D
:104E2000CF930E9460080E94B0080E940F27C0E044
:104E30008C2F0E941E09811104C0CF5FCE30C1F7B4
:104E400001C081E0CF91089508950C9424270E9419
:104E50004F1F0E941A190E94B80B0C9425271F920D
:104E60000F920FB60F9211248F939F93AF93BF931E
:104E700080912203811113C0809197039091980330
:104E8000A0919903B0919A034196A11DB11D809301
:104E9000970390939803A0939903B0939A03BF91BB
:104EA000AF919F918F910F900FBE0F901F9018950B
:104EB00082E084BD93E095BD9AEF97BD80936E002C
:104EC00008952FB7F8948091970390919803A0913B
:104ED0009903B0919A032FBF0895CF92DF92EF927A
:104EE000FF920F931F932FB7F8944091970350911F
:104EF00098036091990370919A032FBF6A017B0117
:104F0000EE24FF248C0120E030E0C016D106E2063A
:104F1000F30610F4415051099A01281B390BC901BD
:104F20001F910F91FF90EF90DF90CF9008957894AC
:104F30001F920F920FB60F9211248F939F93AF93EE
:104F4000BF938091970390919803A0919903B0919A
:104F50009A030196A11DB11D809397039093980326
:104F6000A0939903B0939A03BF91AF919F918F91B2
:104F70000F900FBE0F901F901895F89481E08093CA
:104F8000E00080E28093D800E9ECF0E010828FE14D
:104F90009EE40197F1F700C000001DBA109268006E
:104FA0001CBC10BE1FBA10927A0010926E001092B4
:104FB0006F0010927100109272001082ECEBF0E022
:104FC000108214B817B81AB81DB810BA108215B8E4
:104FD00018B81BB81EB811BA0C94003F08950E946F
:104FE000DF25811102C00E944D260E94EA25809390
:104FF00021030E94F22590E090939C0380939B03F1
:105000000E94EE25682F70E080E090E00C9427234A
:105010008091260380FF0BC06091140185E0689F9A
:10502000B001112475956795759567952BC081FF23
:1050300009C06091140185E0689FB0011124759545
:10504000679520C082FF07C06091140185E0689FCA
:10505000B001112417C0909127039923D1F06091DA
:105060001301961788F72091140185E0289F90017D
:105070001124929FA001939F500D112470E0CA014A
:105080000E94D6366038710540F46115710539F01B
:1050900002C065E070E0862F08958FE7089581E0F3
:1050A00008958091260380FF08C06091120170E08E
:1050B000759567957595679521C081FF06C06091CC
:1050C000120170E07595679519C082FF04C0609168
:1050D000120170E010C0909127039923C1F06091F4
:1050E00011019617A0F780911201899FC001112428
:1050F00070E00E94D6366038710528F4611571059C
:1051000021F0862F08958FE7089581E0089561E0EA
:1051100070E0F4CF803F21F40E940828819504C0FC
:10512000813F29F40E94082880932B030895823F31
:1051300021F40E940828819504C0833F29F40E942D
:10514000082880932A030895893F19F40E94512862
:1051500005C08A3F31F40E945128819580932C0329
:1051600008958B3F21F40E945128819504C08C3F03
:1051700029F40E94512880932D030895843F21F43F
:1051800080912903816017C0853F21F48091290314
:10519000826011C0863F21F48091290384600BC096
:1051A000873F21F480912903886005C0883F31F44E
:1051B0008091290380618093290308958D3F21F414
:1051C0008091260381600BC08E3F21F480912603DD
:1051D000826005C08F3F29F480912603846080930C
:1051E00026030895803F39F480912B0387FF6CC01C
:1051F00010922B0369C0813F29F480912B0318166C
:10520000BCF362C090912A03823F29F497FF5CC0EF
:1052100010922A0359C0833F19F41916CCF354C0D5
:10522000893F41F480912C0318160CF04DC0109268
:105230002C034AC08A3F29F480912C0387FF44C085
:10524000F6CF8B3F39F480912D0387FF3DC010923C
:105250002D033AC08C3F29F480912D031816BCF31E
:1052600033C0843F21F4809129038E7F17C0853F8E
:1052700021F4809129038D7F11C0863F21F4809114
:1052800029038B7F0BC0873F21F480912903877FFF
:1052900005C0883F31F4809129038F7E80932903D4
:1052A00013C08D3F21F4809126038E7F0BC08E3F6B
:1052B00021F4809126038D7F05C08F3F29F48091D2
:1052C00026038B7F8093260380912A0381110EC0D1
:1052D00080912B0381110AC080912C03811106C09B
:1052E00080912D03811102C010922703089588E256
:1052F00093E00E9440190E946127909324038093B9
:10530000230308951F93CF93DF93809123039091FC
:1053100024030E946D27AC0190912703992321F06B
:105320002091150130E006C0209125038AE0289FD6
:10533000900111244217530708F47BC080912A037F
:10534000C0912B03D0912C0310912D03811107C024
:10535000C1116BC0D11169C0111167C06AC09F3FF4
:1053600019F09F5F90932703181624F40E940828D1
:1053700080932A0380912A0387FF05C00E94082892
:10538000819580932A031C1624F40E940828809398
:105390002B0380912B0387FF05C00E94082881956D
:1053A00080932B0330912A033323E1F020912B03C8
:1053B0002223C1F045EB3403C0011124892F990F3A
:1053C000990B009709F481E080932A0335EB2303BE
:1053D000C0011124892F990F990B009709F481E0DE
:1053E00080932B031D1624F40E94512880932C03D4
:1053F00080912C0387FF05C00E94512881958093DE
:105400002C03111624F40E94512880932D038091BF
:105410002D0387FF05C00E945128819580932D039D
:10542000DF91CF911F910C9477299F3F09F099CF7D
:10543000A1CFDF91CF911F910895E8E2F3E086E0DC
:10544000DF011D928A95E9F7109227031092260337
:105450000895833081F128F4813059F08230D1F001
:105460000895853009F449C0B8F1863009F456C072
:10547000089580912503262F30E0280F311D2F3FFE
:10548000310524F4680F6093250308958FEF80930E
:105490002503089580911501262F30E0280F311D36
:1054A0002F3F310524F4680F6093150108958FEFA5
:1054B00080931501089580911401262F30E0280F64
:1054C000311D2F3F310524F4680F609314010895B6
:1054D0008FEF80931401089580911301262F30E0FF
:1054E000280F311D2F3F310524F4680F60931301FD
:1054F00008958FEF80931301089580911201262F54
:1055000030E0280F311D2F3F310524F4680F6093E0
:10551000120108958FEF8093120108958091110177
:10552000262F30E0280F311D2F3F310524F4680F5E
:105530006093110108958FEF8093110108958330D6
:1055400011F128F4813049F0823091F008958530CE
:1055500081F120F18630C1F108958091250368170B
:1055600020F4861B80932503089510922503089547
:1055700080911501681720F4861B8093150108950A
:1055800010921501089580911401681720F4861B6C
:1055900080931401089510921401089580911301CD
:1055A000681720F4861B809313010895109213014D
:1055B000089580911201681720F4861B80931201D0
:1055C000089510921201089580911101681720F436
:1055D000861B8093110108951092110108950F9375
:1055E0001F93873208F04DC08E3108F093C0803190
:1055F00009F47DC008F5873009F46BC068F4863083
:1056000009F0A3C080912103817F8E7F80932103C5
:1056100081E080932F039AC08B3009F48FC08E30C5
:1056200009F093C08091210382FB222720F991E0A9
:10563000922790FB82F964C0863109F47FC088F418
:10564000813109F082C00E944F1F80919B0387FB2C
:10565000222720F991E0922790FB87F980939B0302
:105660006DC0893109F46AC08B3109F06EC0809138
:10567000210381FB222720F991E0922790FB81F9F9
:105680003FC0883309F45AC050F4893209F458C035
:10569000853309F455C0873209F452C056C08334AB
:1056A00009F44EC028F48A3308F44FC0895333C03C
:1056B000883409F04AC00E944F1F0FEF13ED20E31A
:1056C000015010402040E1F700C000000E94BD27BB
:1056D00035C080912103982F9095917090FB80F9AF
:1056E0008093210391112AC0897F877F10C0809108
:1056F000210383FB222720F991E0922790FB83F975
:10570000809321039923D1F08091210381608093BC
:10571000210314C08D5141E050E060E070E08A0147
:105720009B0104C0000F111F221F331F8A95D2F75F
:10573000C901B8010E9427230E944F1F81E006C0C3
:1057400061E070E080E090E0F5CF80E01F910F9184
:10575000089580E0089580E008958E518A3030F4F5
:10576000E82FF0E0E753FE4F8081089580E0089530
:10577000CF93C82F80912F03813079F018F08230B9
:10578000E9F185C0E0910F01F09110018081813134
:1057900069F0823209F07DC009C0E0910F01F091FB
:1057A00010018081813111F0823261F48C2F0E94CE
:1057B000A92B811104C08C2F0E94EF2A1DC081E00B
:1057C00090E01AC08C2F0E94AB2B811114C0C43101
:1057D00079F048F4CB3079F0C03109F05EC082E056
:1057E00080932F0308C0C93219F0C83321F055C087
:1057F00010922F0352C081E0817051C0C93279F1FB
:1058000008F5C43161F1A0F4C73009F044C010922A
:10581000250384E180931501C09314018CE38093E8
:10582000130188E08093120188E28093110133C054
:1058300082EE8C0F863078F58C2F0E94AD2B8093F2
:105840002E0329C0CE34E9F020F4CB3421F56AE0F0
:1058500013C0C13579F0C235F1F461E00DC080911B
:105860002E03882319F010922E0315C081E0809337
:105870002F0315C061E006C080912E030E94292AE3
:105880000AC06AE080912E030E949F2A04C01092F1
:105890002F0380E004C081E002C080E0ADCFCF9153
:1058A00008958091500308950F931F93CF93DF9332
:1058B00000D01F92CDB7DEB78C010E94C02E82307F
:1058C00011F0843021F584E089831B830A8382E010
:1058D0008093E9008FEF9091E800815095FD06C01C
:1058E00095ED9A95F1F700008111F5CF8091E800D0
:1058F00085FF0DC040E050E063E070E0CE0101960E
:105900000E94DD2E8091E8008E778093E8000F9052
:105910000F900F90DF91CF911F910F910895CF932A
:10592000DF9300D01F92CDB7DEB72091A1032430C2
:1059300031F523E02983805891099B838A8382E093
:105940008093E9008FEF9091E800815095FD06C0AB
:1059500095ED9A95F1F700008111F5CF8091E8005F
:1059600085FF0DC040E050E063E070E0CE0101969D
:105970000E94DD2E8091E8008E778093E8000F90E2
:105980000F900F90DF91CF910895CF93DF93EC01AB
:105990000E94C02E823011F08430F9F482E08093AE
:1059A000E9009FEF8091E800915085FD06C085EDEC
:1059B0008A95F1F700009111F5CF8091E80085FFFD
:1059C0000CC040E050E066E070E0CE010E94DD2EA9
:1059D0008091E8008E778093E800DF91CF91089561
:1059E000CF93DF93EC010E94C02E823011F08430FF
:1059F000D9F580912001882339F080919B0387FF9E
:105A000003C060E282E002C068E081E08093E900C8
:105A10008FEF9091E800815095FD06C095ED9A9525
:105A2000F1F700008111F5CF8091E80085FF1CC0DF
:105A300080912001811105C040E050E068E070E0F5
:105A400003C070E040E050E0CE010E94DD2E809166
:105A5000E8008E778093E80080E2FE01A0E3B3E0E7
:105A600001900D928A95E1F7DF91CF910895809191
:105A7000A003811109C00E9472300E94CF30809132
:105A8000E20084608093E20008951092A0030895DC
:105A9000089508950C94272742E061EC81E00E946C
:105AA000EC2F42E261EC82E00C94EC2F8091A30396
:105AB000833009F45CC030F4813071F0823009F435
:105AC00095C008958A3009F481C08B3009F467C00D
:105AD000893009F0A3C020C08091A203813A09F067
