:100000000C94E3040C942A050C942A050C942A05FC
:100010000C942A050C942A050C942A050C942A05A4
:100020000C942A050C942A050C944C2C0C941E2D2F
:100030000C94A7220C942A050C942A050C942A05EA
:100040000C942A050C942A050C942A050C942A0574
:100050000C942A050C940F230C942A050C942A0561
:100060000C942A050C942A050C942A050C942A0554
:100070000C942A050C942A050C942A050C942A0544
:100080000C942A050C942A050C942A050C942A0534
:100090000C942A050C942A050C942A050C942A0524
:1000A0000C942A050C942A050C942A0507080C08C0
:1000B00016080A080F0814081208B908BB08C60871
:1000C000BD08BF08C108C308C508C808CA08CC08CD
:1000D000D708CE08D008D208D408D608D90878188E
:1000E0007818B218B218E7180719741AB01A491913
:1000F000B01AF919F9196C1AB01AB01AAB1A061A13
:10010000061A061A061A061A061A061A061A061AEF
:10011000061A061A061A061A061A061A061A181ACD
:10012000251A2C1A331A3D1A3F1B3F1B511B511B1A
:10013000481B511B511B511B3F1B3F1B4D1B511B90
:10014000511B4D1B8B2DB22DA42EB22DA42EFE2D96
:10015000212EA42E772E862E07634236B79BD8A772
:100160001A39685618AEBAAB558C1D3CB7CC5763DC
:10017000BD6DEDFD753EF6177231BF000000803F8A
:1001800005A84CCDB2D44EB93836A9020C50B9915D
:100190008688083CA6AAAA2ABE000000803F657295
:1001A000676F646F785F657A2F62653839323462C1
:1001B0006462326333306230663966333720402000
:1001C000302E352E3135362D31312D6738343761AB
:1001D0006465006572676F646F785F657A2F62652A
:1001E0003839323462646232633330623066396681
:1001F0003337204020302E352E3135362D31312DFC
:1002000067383437616465000000F0A10100010027
:1002100029000100010000001E00140004621D00FE
:10022000010001001F001A0016641B0001002A00D3
:10023000200008430768060001002C422100150039
:10024000096119002B040100220017000A000500B3
:10025000000001001150010000004A0000000100F0
:100260003D04010000004D000000010023001C00BF
:100270000B00110000000100240018000D611000A7
:100280000100010025000C440E682D0001002841EA
:10029000260012450F64340001004C0027001300B3
:1002A00033622F0001000100010001002B0001005A
:1002B0000100000001000100010001000100000038
:1002C00001000100E1000100010001000100010046
:1002D000F2000100010001000100F000F100010046
:1002E0000100E00001000100F30001000100010035
:1002F0000100010001000100000001001050010098
:1003000000000100000001000100010000000100E8
:1003100000000100010001000100010000000100D7
:100320000100FA00F400FB00A90001000100010037
:10033000F5000100010001000100F9000100FC00CE
:1003400001000100010001000100010001000100A5
:100350000100010001000100010000000100010096
:10036000010001000100000001000100E1000100A6
:100370000100010001000100E20001000100010094
:1003800001000100E3000100010001000100010083
:10039000E000010001000100010001000100010076
:1003A0000000010001000100000001000000010048
:1003B0000100010000000100000001000100010037
:1003C0004A000100000001000100FA005000FB009B
:1003D0000100010001005200510001000100010074
:1003E0000100F9004F00FC000100010001000100C4
:1003F0004D000100010001000100010001000100A9
:1004000001000000010001000100010001000000E6
:1004100001000100010001000100010001000100D4
:100420005000010001000100010001000100010075
:1004300001002C00010001004F000100010001003B
:1004400001000100010001000000010001000100A5
:100450000000010000000100010001000000010097
:100460000000010001006414230264000000010088
:1004700001002514250238000100010001002614A6
:10048000260227020100280001002414360264021B
:10049000010001000100271421022D1401000100B8
:1004A0000100010001000100010000000100010045
:1004B00001000100010000000100301432022D0291
:1004C00001000100010024021F021E0201000100C0
:1004D000010030023600380201002C000100370212
:1004E0003700300001000100010022021414320024
:1004F00000000100010001000000010000000100F7
:1005000001000100000001000000010001000100E5
:100510000100010000000100010001005000010085
:10052000010001000100010001000100010028009C
:10053000010001004F000100010001000100010065
:1005400001000100010001000100010001000100A3
:100550000100000001000100010001000100000095
:10056000010001003702010001000100010001004B
:1005700038140100010001000100350235000100BE
:1005800001000100010020022E0201000100010013
:100590000100010001000100000001000100010054
:1005A0000000010000000100010001000000010046
:1005B0000000010001000100010001000000010035
:1005C0000100010001000100010001000100010023
:1005D0000100010001000100010001000100010013
:1005E0000100010001000100010001000100010003
:1005F00001000100010001000100000000000000F6
:10060000000000002A2B280000000000000000006D
:100610000000000000000029000000002C1E342013
:10062000212224342627252E362D3738271E1F2039
:100630002122232425263333362E37381F0405067E
:100640000708090A0B0C0D0E0F10111213141516C2
:100650001718191A1B1C1D2F3130232D35040506C0
:100660000708090A0B0C0D0E0F10111213141516A2
:100670001718191A1B1C1D2F3130354C00000000B3
:10068000000000000000000000000000000000006A
:100690000000000000000000000000000001010157
:1006A0000101010001010101000000000000000043
:1006B0000000000000000100010001010101010132
:1006C000010101010101010101010101010101011A
:1006D0000101010101010100000001010000000011
:1006E000000000000000000000000000000000000A
:1006F0000000000000000001010101006801F0009D
:10070000B40078005A007F3F1F64321464321478BA
:100710003C1E1E140A050000000000010101010139
:1007200001010101020202020202020202030303AA
:100730000303030303040404040404050505050579
:100740000606060606070707070808080809090934
:100750000A0A0A0A0B0B0B0C0C0C0D0D0D0E0E0FDA
:100760000F0F101011111112121313141415151666
:10077000161717181819191A1A1B1C1C1D1D1E1FD5
:100780001F20202122222324252526272728292A25
:100790002B2B2C2D2E2F2F3031323334353636374C
:1007A00038393A3B3C3D3E3F40414243444647484E
:1007B000494A4B4C4D4F50515253555657585A5B1E
:1007C0005C5E5F606263646667696A6C6D6E7071BF
:1007D00073747678797B7C7E8081838486888A8B2B
:1007E0008D8F91929496989A9B9D9FA1A3A5A7A95E
:1007F000ABADAFB1B3B5B7B9BBBDBFC1C4C6C8CA55
:10080000CCCFD1D3D6D8DADCDFE1E4E6E8EBEDF00B
:10081000F2F5F7FAFCFF16034500720067006F005F
:1008200044006F007800200045005A0000001603C5
:100830004500720067006F0044006F0078002000E0
:1008400045005A0000000403090409026D00040178
:1008500000A0FA09040000010301010009211101AF
:1008600000012240000705810308000A0904010075
:100870000103010200092111010001224D000705B9
:10088000820308000A090402000103000000092194
:10089000110100012236000705830308000A09043C
:1008A00003000103000000092111010001223900A9
:1008B000070584032000011201100100000008ED6B
:1008C000FE071301000102000105010906A101054F
:1008D0000719E029E7150025019508750181020532
:1008E0000819012905950575019102950175039176
:1008F000010507190029F71500250195F8750181F3
:1009000002C005010980A10185021601002603002D
:100910001A81002A8300751095018100C0050C0919
:1009200001A1018503160100269C021A01002A9CE0
:1009300002751095018100C005010902A10109019C
:10094000A100050919012905150025019505750165
:100950008102950175038101050109300931158175
:10096000257F95027508810609381581257F950137
:1009700075088106050C0A38021581257F950175D9
:10098000088106C0C005010906A101050719E02973
:10099000E71500250195087501810295017508810B
:1009A0000105081901290595057501910295017543
:1009B0000391010507190029FF150026FF00950680
:1009C00075088100C00011241FBECFEFDAE0DEBF42
:1009D000CDBF04B603FE27C08091BA039091BB033C
:1009E000A091BC03B091BD038730904BA740B04BA2
:1009F000D1F41092BA031092BB031092BC03109270
:100A0000BD0314BE84B7877F84BF0FB6F894A89542
:100A100080916000886180936000109260000FBE3A
:100A2000E0E0FFE3099511E0A0E0B1E0E2E3F5E6E4
:100A300002C005900D92AC3DB107D9F723E0ACEDB3
:100A4000B1E001C01D92AA3BB207E1F70E947929EB
:100A50000C9497320C9400001092B9008AE08093B5
:100A6000B800089594EA9093BC009091BC0097FF61
:100A7000FCCF9091B900987F983021F0903111F01F
:100A800081E008958093BB0084E88093BC0080914E
:100A9000BC0087FFFCCF8091B900887F883111F0BE
:100AA000803471F780E0089584E98093BC008091E0
:100AB000BC0084FDFCCF08958093BB0084E8809344
:100AC000BC008091BC0087FFFCCF9091B900987F5B
:100AD00081E0983209F480E0089584E88093BC00B6
:100AE0008091BC0087FFFCCF8091BB00089580B34C
:100AF0008C7080BB81B3836F81BB089580910001AE
:100B0000811115C080E40E9432058093000181119B
:100B10000CC082E10E945C0580930001811105C038
:100B20008FEF0E945C05809300010E94540584B100
:100B3000807F84B985B1807F85B98AB1837F8AB986
:100B40008BB1837F8BB93E984698089508950C9495
:100B5000A6050E946C07809300010E947E050E94FA
:100B600077052DED31E0E1E3F2E04EE04E0F11921A
:100B700080E090E0D901A80FB91F1C920196863041
:100B80009105C1F72A5F3F4F4E13F1CF0C94220B12
:100B90000E946C07809300010E947E050E947705E9
:100BA000E1E3F2E08EE08E0F11928E13FDCF0895F7
:100BB00026E0829FC0011124FC01E352FE4F20E099
:100BC00030E080E041E050E09081992319F09150AD
:100BD000908307C0BA01022E01C0660F0A94EAF79B
:100BE000862B2F5F3F4F31962630310569F70895E8
:100BF00096E0699FB001112420E030E090E04FE0E2
:100C0000FC01022E02C0F595E7950A94E2F7E0FF99
:100C100006C0F901E60FF71FE352FE4F40832F5F36
:100C20003F4F2630310561F70895AF92BF92CF92C2
:100C3000DF92EF92FF920F931F93CF93DF938091F8
:100C40000001882379F08091DC018F5F8093DC01C3
:100C5000811108C00E946C0780930001811102C0BD
:100C60000E94FE0681E3E82E82E0F82E00E010E00C
:100C7000CC24C394D12CAA24A394C02F07301105EF
:100C800000F58091000181113CC080E40E94320592
:100C900080930001811112C082E10E945C05809363
:100CA000000181110BC0C601002E01C0880F0A94FB
:100CB000EAF780950E945C05809300010E9454052C
:100CC00020C00A30A1F028F4083059F0093061F052
:100CD00005C00C3089F070F00D3089F0209A28980A
:100CE00010C0219A29980DC0229A2A980AC0239AE6
:100CF0002B9807C0529A01C0539A5B9802C03E9A43
:100D0000469880EA8A95F1F78C2F0E94D805D82F53
:100D10000730110518F580910001811144C080E46D
:100D20000E94320580930001882311F0B12C12C07B
:100D300083E10E945C05809300018111F7CF81E47B
:100D40000E943205809300018111F0CF0E946D0551
:100D5000B82EB0940E9454059B2D26C08FB181708F
:100D60008A25799902C092E001C090E0892B7C9994
:100D700002C094E001C090E0982B7D9902C038E059
:100D800001C030E0932B7E9902C020E101C020E039
:100D9000922B2FB12095221F2227221F2295220F4E
:100DA000207E922B01C090E0F70180819D23D09599
:100DB000D823D92B6C2F8D270E94F805F701D193EA
:100DC0007F010E947E050F5F1F4F0E30110509F055
:100DD00054CF0E94240B81E0DF91CF911F910F919E
:100DE000FF90EF90DF90CF90BF90AF900895E82FE5
:100DF000F0E0EF5CFD4F80810895089556985E986D
:100E000025982D9826982E9827982F988FEF90E068
:100E1000909389008093880090938B0080938A0040
:100E200090938D0080938C00259A2D9A2FEF80E768
:100E300092E0215080409040E1F700C00000269AE7
:100E40002E9A2FEF80E792E0215080409040E1F70A
:100E500000C00000279A2F9A2FEF80E792E02150E0
:100E600080409040E1F700C0000025982D982FEFBA
:100E700080E792E0215080409040E1F700C0000000
:100E800026982E982FEF80E792E0215080409040E6
:100E9000E1F700C0000027982F9856985E98259893
:100EA0002D9826982E9827982F98089589EA809350
:100EB000800089E08093810024982C983F988AB123
:100EC0008F7C8AB96E98479A8BB180638BB9769A7A
:100ED0000E94FE060C94C80780E280930001809176
:100EE0003F0281110EC00E942C0581E080933F02D9
:100EF0002FEF83ED90E3215080409040E1F700C058
:100F0000000080E40E9432058093000181112EC010
:100F10000E945C0580930001811128C00E945C053D
:100F200080930001811122C08FE30E945C058093B1
:100F3000000181111BC00E94540580E40E9432050B
:100F400080930001811112C08CE00E945C058093A7
:100F5000000181110BC00E945C058093000181118A
:100F600005C08FE30E945C05809300010E94540538
:100F7000809100010895611108C0FC0182818823DD
:100F800021F083ED91E00E941F0B80E090E0089536
:100F90000895FB018C3D2CE5920769F08D3D2CE511
:100FA000920789F08B3D9C45B1F482818823A1F0A2
:100FB0000E94A9210EC08281882371F08EE991E000
:100FC0000E941F0B06C08281882331F081E00E94BD
:100FD000481180E0089581E00895CF92DF92EF926A
:100FE000FF926B017C010E94592156985E982598CA
:100FF0002D9826982E9827982F9890E0FC013197ED
:10100000E730F105A8F4EA5AFF4F0C944932259ACB
:101010002D9A0EC0259A2D9A269A2E9A09C0259AA5
:101020002D9A04C0259A2D9A269A2E9A279A2F9A9D
:10103000C701B601FF90EF90DF90CF90089581E057
:1010400008950C94C9070E942D1B2FEF84E39CE0A8
:10105000215080409040E1F700C000000C943523FF
:10106000FF920F931F93CF93DF938C01FC01C081FC
:10107000D18180919102811113C08281882349F02E
:10108000CE010E944F20F82E682FCE010E94F21F41
:1010900004C0CE010E942220F82EBE018F2D04C074
:1010A000CE010E944F20BE010E94390BEC01B80115
:1010B0000E942108882309F462C2B801CE010E946F
:1010C000950D882309F45BC2B801CE010E94E40D9E
:1010D000882309F454C2CA3CFCE5DF0741F4F80157
:1010E0008281882309F44BC20E94131148C2CB3C71
:1010F0008CE5D80708F004C1C33C9CE5D90741F44E
:10110000F8018281882309F43AC20E94D61137C2BD
:10111000C43CECE5DE0708F0ACC0C531FCE5DF07F8
:1011200008F057C0C2308CE5D80708F47BC0F8013E
:101130008281882309F46EC00E94CA21811102C0F5
:101140000E94A9210E94DD2190E09093AC0380933E
:10115000AB03FE01E350FC45E231F10530F4E35A04
:10116000FF4F8091AB030C9449328091AB038160B7
:1011700027C0826025C0846023C0806121C0806256
:101180001FC080641DC080681BC08460886018C058
:101190008E7F16C08D7F14C08B7F12C08F7E10C0D3
:1011A0008F7D0EC08F7B0CC08F770AC08B7F877FAF
:1011B00007C087FB222720F991E0922790FB87F94F
:1011C0008093AB038091AB030E94E1210E942D1B11
:1011D000D6C1C531DC45C9F40E942021282FF80171
:1011E000828140910301509104018823B9F12A7A48
:1011F00091E009F490E09093400291112DC069E2D2
:10120000CA010E9442220E94ED2081E080934502A3
:1012100080934602C801DF91CF911F910F91FF90FB
:101220000C941F08C1159CE5D90741F4F80182818F
:10123000882309F4A4C10E942308A1C1C130DC4560
:1012400021F7F8018281882309F499C180912F0345
:10125000816080932F0393C165E3D2CF80914002D8
:10126000811102C069E201C065E3CA010E944D22FA
:10127000CACFC63C8CE5D80741F4F80182818823A7
:1012800009F47DC10E94B8107AC1C73C9CE5D9071A
:10129000E0F4C43CECE5DE0741F4F80182818823E8
:1012A00009F46DC10E94C3116AC1C53CDC4509F057
:1012B000ACCFF8018281882309F461C10E9420210A
:1012C000827281F30E94CD115AC1F8018281C83C1B
:1012D000FCE5DF0731F4882309F451C10E94EF10C7
:1012E0004EC1C93CDC4530F4882309F448C10E9452
:1012F000D01045C1882309F442C10E9401113FC1A9
:10130000C13DECE5DE07C1F4F8018281882309F4D0
:1013100036C10E948E0F653171058105910540F03F
:101320000E948E0F673171058105910508F4BACFCF
:1013300085E10E94481123C1C23DFCE5DF0708F0AA
:101340007AC0CD3C8CE5D807B1F4F80182818823BE
:1013500009F415C10E948E0F623071058105910557
:1013600040F00E948E0F653071058105910508F4EB
:1013700099CF82E0DECFCE3C9CE5D907B8F4CB3CD8
:10138000ECE5DE0741F4F8018281882309F4F7C017
:101390000E942E11F4C0CC3CDC4509F036CFF80198
:1013A0008281882309F4EBC081E0C3CFF8018281F8
:1013B000CF3CFCE5DF07A1F4882309F4E0C00E94DC
:1013C0008E0F693071058105910540F00E948E0FE6
:1013D0006E3071058105910508F464CF89E0A9CFCD
:1013E000C03DDC45A0F4882309F4C9C00E948E0FDB
:1013F000663071058105910540F00E948E0F6830BE
:1014000071058105910508F44DCF86E092CF8823C0
:1014100009F4B5C00E948E0F6F30710581059105EA
:1014200040F00E948E0F643171058105910508F42A
:1014300039CF8FE07ECFC43DECE5DE0761F5F801E2
:101440008281882351F0109245020E94D922909304
:1014500042028093410282E03DC00E94202185FF2C
:1014600005C081E080934502809346028091450249
:1014700081110FC080914102909142020E94E522A9
:10148000883C910530F486E20E94BF1686E20E94F5
:10149000CE1782E030C0C53DFCE5DF0778F1C83DDE
:1014A000ECE5DE0709F44DC0C93DFCE5DF0709F4B2
:1014B0004EC0C53DDC4509F0A8CEF80182818823E5
:1014C00061F0109246020E94D922909344028093C8
:1014D000430280E20E942D1852C00E94202181FF09
:1014E00005C081E0809345028093460280914602C8
:1014F0008823A9F180E20E94341841C0C23D8CE5E6
:10150000D80731F4F80182818823C9F188E111CF2D
:10151000C33DDC4509F079CEF8018281882379F159
:101520000E948E0F693171058105910540F00E947E
:101530008E0F623271058105910508F4B3CE89E101
:10154000F8CEF80182818823D1F080E005C0F8014F
:1015500082818823A1F082E00E940F2A10C080912E
:101560004302909144020E94E522883C910510F6C6
:1015700087E20E94BF1687E20E94CE17BBCF80E0B1
:10158000DF91CF911F910F91FF900895CF93282F56
:1015900030E0F901E450FA4FC491F901E458F94FF1
:1015A0002491222359F081EE0E94BF168C2F0E94B5
:1015B000BF168C2F0E94CE1781EE04C08C2F0E9484
:1015C000BF168C2FCF910C94CE170F931F93CF93F0
:1015D000DF93EC01062FFE018491882359F19E01CF
:1015E0002F5F3F4F813041F4E901F9011491812FC0
:1015F0000E94BF16812F0DC0823031F4E901F9013C
:1016000084910E94BF160AC0833031F4E901F901C8
:1016100084910E94CE1702C00E94C60A2196802F94
:101620008823C9F2EFE9FFE03197F1F700C000002D
:101630008150F6CFDF91CF911F910F91089560E017
:101640000C94E50A0C9456070C94A705282F8823C0
:1016500039F090E02A3010F44D96089506970895D9
:1016600087E290E0089508950C94330B0C94340BAA
:10167000089596E0799FF001112494E5899FE00D8B
:10168000F11D1124E60FF11DEE0FFF1FE45FFD4F6A
:10169000859194910895880F991FFC01E85FFD4F93
:1016A000859194910895CF93DF930E94390B0E9406
:1016B000EB0CEC01811520E49207B0F5811540E3B5
:1016C000940708F0E1C0803E9105D0F4803C91057C
:1016D00008F06FC0883A910570F4853A910508F0DA
:1016E0006BC08130910509F472C108F429C10497D7
:1016F00008F06DC125C18D3B910508F468C020C17B
:101700008F3F910509F048F4803F910508F0B6C07D
:10171000883E910508F45BC113C1811550E295071D
:1017200008F455C19F70ACC0811564E59607D8F4E4
:10173000C11583E5D80708F0E2C0C11521E5D2073D
:1017400040F4C11540E5D40708F0A7C0DF70D06AA7
:101750003EC1C11552E5D50708F0BBC0DC2FCC2730
:10176000C16FD06A34C1811566E5960750F4C11582
:1017700085E5D80708F0D9C0DC2FCC27C46FD06A24
:1017800026C1811528E5920708F4DAC0811549E5DC
:10179000940708F4D0C090568115904208F0D0C04C
:1017A0008D2F8F710E94680DDD27D0628F71D82B2D
:1017B0000EC1805C910964C0853A910509F4C3C0EB
:1017C000863A910509F0C2C0C2E8D0E400C1883A67
:1017D000910509F4BEC0893A910509F4BDC08A3A61
:1017E000910509F4BCC08B3A910509F4BBC08C3A51
:1017F000910509F4BAC08B3B910509F4B9C08C3B43
:10180000910509F4B8C08D3A910509F4B7C0803B41
:10181000910509F4B6C08E3A910509F4B5C08F3A26
:10182000910509F4B4C0813B910509F4B3C0823B32
:10183000910509F4B2C0833B910509F4B1C0843B22
:10184000910509F4B0C0853B910509F4AFC0863B12
:10185000910509F4AEC0873B910509F4ADC0883B02
:10186000910509F4ACC0893B910509F4ABC08A3BF2
:10187000910509F4AAC0C0E0D4E4A9C0D065A7C00E
:101880000E944B0BEC01A3C09927D3FF03C0EC01CE
:10189000D86C9DC0EC01D06C9AC02C2F237081E0D5
:1018A00090E002C0880F991F2A95E2F79C689E017C
:1018B00044E0369527954A95E1F72370922BCF7037
:1018C000C695C69560E2C69FE0011124C82BD92BAE
:1018D0007EC02C2F2695269580E2289F900111240A
:1018E000C370DD2781E090E0AC0102C0440F551FBA
:1018F000CA95E2F7EA01C22BD32BDC6868C02C2F13
:101900002695269580E2289F90011124C370DD273B
:1019100081E090E0AC0102C0440F551FCA95E2F788
:10192000EA01C22BD32BDA6852C0CF71DD27DC2F3E
:10193000CC27D0624CC0DC2FCC27C06FD06A47C008
:10194000C0E0D0E044C0C1E8D0E441C0C3E8D0E486
:101950003EC0C2EED4E43BC0C9EED4E438C0CAEE07
:10196000D4E435C0C5EBD4E432C0C6EBD4E42FC018
:10197000C3EBD4E42CC0C4EBD4E429C0C7EBD4E45B
:1019800026C0CCECD4E423C0CDECD4E420C0C3E822
:10199000D5E41DC0CAE8D5E41AC0C2E9D5E417C031
:1019A000C4E9D5E414C0C1E2D6E411C0C3E2D6E470
:1019B0000EC0C4E2D6E40BC0C5E2D6E408C0C6E25D
:1019C000D6E405C0C7E2D6E402C0CAE2D6E4CE013E
:1019D000DF91CF9108958238910549F1B0F48133B8
:1019E000910509F458C048F48932910509F44EC0B4
:1019F0008A32910509F454C008958533910509F49C
:101A000040C08933910599F00895833E910529F1ED
:101A100038F4803E910591F0823E9105A1F0089541
:101A2000863E9105F9F0873E910531F108952091A8
:101A3000AB0320FD3AC021FD38C008958091AB036F
:101A400080FD35C032C08091AB0382FF32C08091EF
:101A5000AB0384FD30C083EE39C08091AB0382FDBF
:101A600028C0F5CF8091AB0383FF27C08091AB03E3
:101A700084FD21C087EE2AC08091AB0383FD1DC089
:101A8000F5CF8091AB0385FD1AC01BC08091AB03DD
:101A900085FD17C014C08091AB0386FD14C015C02E
:101AA0008091AB0386FD11C00EC080EE0FC089E3AC
:101AB0000DC082EE0BC080E009C086EE07C089E24F
:101AC00005C085E303C08AE201C081E390E0089588
:101AD000CF93C82F0E94DD2190E09093AC038093B8
:101AE000AB0382FF0DC09C2F9871983019F4C77F0B
:101AF000C46006C09C2F9471943011F4CB7FC860F1
:101B000083FF0DC09C2F9871983119F4C77EC46172
:101B100006C09C2F9471943111F4CB7EC86184FD72
:101B2000C77E8C2FCF91089508950F931F93CF9365
:101B3000FB012281211102C0C1E041C08C01C09192
:101B40005402C11125C086319C45B1F70E94940D05
:101B500081E0809354020E94D92290935302809393
:101B600052021092470210924902109248021092BB
:101B70004B0210924A0210924D0210924C021092A7
:101B80004F0210924E02109251021092500217C052
:101B900080915202909153020E94E522883C910567
:101BA00058F690914702E92FF0E0EE0FFF1FE85B37
:101BB000FD4F118300839F5F90934702C0E08C2FFD
:101BC000CF911F910F910895CF93DF93813020E83B
:101BD0009207D0F0FB0122812223B1F0EC01809129
:101BE0005502811109C08CE090E00E944F320E94A2
:101BF000080E81E0809355020E940F0ECE019F7760
:101C00000E94D70E0E948B0E81E0DF91CF91089544
:101C100080935602682F8CE090E00C946332E09140
:101C20000301F091040180818093600381FF03C070
:101C300081EE0E94CE178091600385FF03C085EE80
:101C40000E94CE178091600380FF03C080EE0E9447
:101C5000CE178091600384FF03C084EE0E94CE17EC
:101C60008091600382FF03C082EE0E94CE178091B4
:101C7000600386FF03C086EE0E94CE17809160034A
:101C800083FF03C083EE0E94CE178091600387FF1D
:101C900003C087EE0E94CE1780915602823001F178
:101CA000A8F48823C9F0813079F580EE0E94BF1630
:101CB00081EE0E94BF1688E10E94BF1688E10E9453
:101CC000CE1781EE0E94CE1780EE1CC0843081F0CA
:101CD0008530D1F486EE01C082EE0E94BF1614C09A
:101CE00082EE0E94BF1687E50E94BF1687E50AC0F4
:101CF00086EE0E94BF1686EE0E94CE1788E10E94F3
:101D0000BF1688E10E94CE178FE39CE90197F1F797
:101D100000C00000089580915602813049F030F0F3
:101D2000823021F0853051F486EE06C082EE04C088
:101D30008CE20E94BF168CE20E94CE178091600355
:101D400081FF03C081EE0E94BF168091600385FF72
:101D500003C085EE0E94BF168091600380FF03C020
:101D600080EE0E94BF168091600384FF03C084EE62
:101D70000E94BF168091600382FF03C082EE0E9422
:101D8000BF168091600386FF03C086EE0E94BF16D7
:101D90008091600383FF03C083EE0E94BF16809191
:101DA000600387FF03C087EE0C94BF160895EF927F
:101DB000FF921F93CF93DF937C01CCE0D0E097019B
:101DC0000C2E02C0369527950A94E2F7122F1F7049
:101DD000812F0E94260B0E94BF16812F0E94260B86
:101DE0000E94CE172497CC3F8FEFD80741F7DF91A1
:101DF000CF911F91FF90EF900895EF92FF920F9374
:101E00001F93CF93DF93E901662309F44BC0242F7E
:101E100030E0EFEFF0E0E61BF109B901E69F900139
:101E2000E79F300DF69F300D1124232F8B01031BEC
:101E300011095CE3E52EF12CB7010E942132FB0170
:101E4000BC01069FC001079F900D169F900D1124A5
:101E5000B7010E942132E230F105B1F040F4309731
:101E600079F0319711F5832F242F461B21C0E430E0
:101E7000F105A1F068F03597C1F4842F861B18C0D6
:101E8000832F262F230F14C0862F830FE42F03C028
:101E9000E42FE61B842F432F2E2F0AC0842F462FBA
:101EA000430F06C0842F242F03C080E020E040E0D1
:101EB000E42FF0E0EA5EF84F4491E22FF0E0EA5EB2
:101EC000F84F9491E82FF0E0EA5EF84FE4914983EF
:101ED0009883EA83DF91CF911F910F91FF90EF904C
:101EE000089588E090E00C945732AB01BC0188E083
:101EF00090E00C947532E1E6F3E083E08083109289
:101F000062038FEF82838383609161037091620328
:101F100080916303909164030C94750F6091610349
:101F200060FF06C066956F7370E080E090E00895F2
:101F300060E070E0CB0108958091610380FF06C0EE
:101F40006FE070E089E693E00C94FC1480E090E090
:101F5000FC01E759FC4F11821082128204968C33E7
:101F60009105B1F7EDCF20E030E0F901E759FC4FE2
:101F70008183608342832C5F3F4F2C333105A9F767
:101F80000C949C0FEF92FF920F931F93CF93DF93CC
:101F900000D000D0CDB7DEB700916103109162038D
:101FA00020916303309164030093650310936603EB
:101FB00020936703309368032091610320FF21C0C1
:101FC000042FF62EE92E182F9E012F5F3F4F0E94FF
:101FD000FD0E8091650310FB87F9809365031695CC
:101FE000809166038078182BE0FA17F91093660346
:101FF000F0926703009368034B8169818A810E9494
:10200000B30F0F900F900F900F90DF91CF911F9112
:102010000F91FF90EF9008958F929F92AF92BF9291
:10202000CF92DF92EF92FF920F931F93CF93DF93A4
:10203000EC01062F142F8091610380FF8CC0982F34
:102040009E77923021F4CE010E94C20F5AC0E82F31
:10205000E695EF739EE39E0F9F73943018F41091F2
:1020600064034FC09AE39E0F9F73993070F4881FEA
:102070008827881F90916203292F220FC22FC82B17
:1020800097FB992790F9D92F3CC087E28E0F8F7369
:102090008A30B8F5F0E07997E0FD02C021E001C098
:1020A0002FEFEE7FE450F94F859194916FE070E04F
:1020B0000E94213226036001279FD00C11244E017B
:1020C00088E9881A8EEF980A89E6E82E83E0F82ED0
:1020D00098E6A92EBB24B394C401B5010E94213215
:1020E0009701412F602F0E94FD0E8C0C9D1C94E0E7
:1020F000E90EF11C85EAE81683E0F80669F70E940C
:102100009C0F809161039C2FC0FB87F98093610332
:102110009695809162038078892BD0FB87F9809314
:1021200062030093630310936403609161037091F1
:1021300062038091630390916403DF91CF911F91BB
:102140000F91FF90EF90DF90CF90BF90AF909F9056
:102150008F900C94750FDF91CF911F910F91FF908D
:10216000EF90DF90CF90BF90AF909F908F900895A9
:10217000E1E6F3E02081221F2227221F3091620333
:10218000432F440F842F822B37FB992790F90C960D
:1021900068E671E00E943532438162810C940C1034
:1021A00020916103221F2227221F30916203432FB7
:1021B000440F842F822B37FB992790F98C3091059F
:1021C0001CF4845A9E4F01C00C9768E671E00E948F
:1021D000353240916403609163030C940C10E1E686
:1021E000F3E08081881F8827881F90916203292F40
:1021F000220F97FB992790F943816FEF822B0C9464
:102200000C10E1E6F3E08081881F8827881F9091F9
:102210006203292F220F97FB992790F9438160E0F1
:10222000822B0C940C1040916403842F90E0843F27
:10223000910514F4445F01C04FEF80916103881F42
:102240008827881F90916203292F220F97FB9927D7
:1022500090F960916303822B0C940C1040916403FD
:10226000842F90E00C9714F04C5001C040E0809116
:102270006103881F8827881F90916203292F220FEE
:1022800097FB992790F960916303822B0C940C10B3
:102290009091610390FF42C09178811102C09260D9
:1022A00007C0833210F0946403C08F73880F982B9B
:1022B0009093610360916103709162038091630365
:1022C000909164030E94750F80916103982F9E770F
:1022D000923019F410926C0210C0982F96959F734B
:1022E0002EE3290F2F73273120F491E090936C0295
:1022F00004C0995D9F739A3068F3881F8827881FF0
:1023000090916203292F220F97FB992790F9409112
:10231000640360916303822B0C940C1008958091E8
:102320002F03816080932F0381E080936D020E94D0
:10233000CA21811104C00E94A9210E947B0F0E9422
:10234000710F6093610370936203809363039093B2
:1023500064036E7761F40E947B0F0E94710F60939B
:10236000610370936203809363039093640381E03D
:1023700080936C028091610380FF04C086958F7307
:102380000C94481108958091610386958F738F5F37
:10239000833208F081E00C944811809161038695A6
:1023A0008F73815009F482E20C944811809161038B
:1023B000982F909590FB80F9809361036091610361
:1023C0007091620380916303909164030E94750F82
:1023D0008091610380FF04C086958F730C9448112F
:1023E00010926C022FEF80E792E0215080409040E5
:1023F000E1F700C000000C949C0FCF93C82F809190
:102400006A0290916B020E94E522EC2FF0E0EE5EF2
:10241000F84FE491F0E08E179F0708F443C00E9444
:10242000D92290936B0280936A026091690270E0F6
:1024300080E090E00E94223020E030E04FE753E45B
:102440000E94452F2BED3FE049E450E40E944B31C0
:102450000E94B8310E94BF2F2BE43AE34EE25FE3C3
:102460000E94D82E20EF3BEF48ED52E40E944B3102
:102470000E94F12F462F80916103881F8827881FB3
:1024800090916203292F220F97FB992790F9609171
:102490006303822B0E94C20F8091690290E0019633
:1024A00080936902CF910895CF93C82F80916702DE
:1024B000909168020E94E522EC2FF0E0E15FF84F76
:1024C000E491F0E08E179F07E8F00E94D9229093E4
:1024D0006802809367024091640360916303809176
:1024E0006502909166020E94C20F809165029091F0
:1024F0006602019668E671E00E94213290936602BE
:1025000080936502CF910895CF92DF92FF920F934F
:102510001F93CF93DF93F82E809163029091640212
:102520000E94E522EF2DE695F0E0E45FF84FE4919C
:10253000F0E08E179F07E8F10E94D9229093640281
:102540008093630209E613E0C0E0D0E088E6C82E7D
:10255000DD24D39480916102909162028C0F9D1FC3
:10256000B6010E9421329801409164036091630397
:102570000E94FD0E68960C5F1F4FC83681E0D80799
:1025800049F70E949C0F2091610230916202F0FE97
:102590000AC0C9010196BE010E94213290936202D5
:1025A0008093610206C0215031093093620220936A
:1025B0006102DF91CF911F910F91FF90DF90CF903B
:1025C0000895AF92BF92CF92DF92EF92FF920F9356
:1025D0001F93CF93DF93C82F80FF02C01FEF01C06E
:1025E00011E080915F02909160020E94E522C69501
:1025F000EC2FF0E0E75FF84FE491F0E08E179F07D3
:1026000008F466C00E94D9229093600280935F0212
:1026100029E6C22E23E0D22E3BE6E32E33E0F32E52
:10262000C0E0D0E0F70131971082F6011082F70187
:10263000108294E0A92EB12C00E080915E02800F00
:1026400087FD815F082E000C990BC817D907E9F4A4
:10265000809164038A9DA0018B9D500D1124559596
:1026600047955595479580916103881F8827881F56
:1026700090916203592F550F97FB992790F9960176
:1026800060916303852B0E94FD0E010FF1E0AF1AEC
:10269000B10899F6219684E0C80ED11CE4E0EE0E54
:1026A000F11CCF30D10509F0BDCF0E949C0F809165
:1026B0005E02113031F4811102C08EE007C08150FA
:1026C00005C090E00196BE010E94353280935E0203
:1026D000DF91CF911F910F91FF90EF90DF90CF90FE
:1026E000BF90AF9008950F931F93CF93DF93C82FA0
:1026F00080915C0290915D020E94E522EC2FF0E057
:10270000EA5FF84FE491F0E08E179F0708F464C089
:102710000E94D92290935D0280935C0280E090E059
:10272000FC01E759FC4F11821082128204968C330F
:102730009105B1F7C0E0D0E00FE010E0CE01B801A4
:102740000E943532FC0180915B02082E000C990B2F
:10275000EE0FFF1FEE0FFF1FC817D907FCF0809187
:102760000201082E000C990B8C179D07BCF09F01ED
:1027700027593C4F80916103881F8827881F9091BB
:102780006203592F550F97FB992790F940916403E5
:1027900060916303852B0E94FD0E05C0E759FC4F35
:1027A0001182108212822196CF30D10539F60E9413
:1027B0009C0F8091010190915B02980F90935B02B6
:1027C00020910201280F20930201121614F49E306A
:1027D0001CF0819580930101DF91CF911F910F91A2
:1027E0000895EF92FF920F931F93CF93DF93809101
:1027F000590290915A020E94E522883E9340D0F1FE
:102800000E94D92290935A0280935902C091570294
:10281000D09158022196C170DD27D0935802C09301
:10282000570289E6E82E83E0F82E10E008E7812FB2
:102830008695FE01E80FF11DCF0181709927970160
:102840004091640360916303FC010E9FC0010F9FE0
:10285000900D11240E94FD0E1F5FF4E0EF0EF11C9D
:102860001F3029F7DF91CF911F910F91FF90EF90CB
:102870000C949C0FDF91CF911F910F91FF90EF90DF
:10288000089580916C02882391F190916103892FC2
:1028900086958F732EE3280F2F73243018F48250FF
:1028A0000C94FD112AE3280F2F73233018F486505F
:1028B0000C94541227E3280F2F73263018F48950F4
:1028C0000C94841221E3280F2F73263018F48F50B4
:1028D0000C94E1122BE2280F2F73233018F485514A
:1028E0000C9473139E77903311F40C94F1130895A4
:1028F000882319F05198599A02C0519A59985098C2
:10290000589A95E09A95F1F70000509A589895E0FA
:102910009A95F1F70000882311F0519A599885E0B3
:102920008A95F1F7000008958BB18C7F8BB9509890
:10293000589A5198599A85E08A95F1F700000895C0
:102940008AB18C7F8AB985E08A95F1F70000519AA7
:10295000599885E08A95F1F70000509A589885E0DB
:102960008A95F1F7000008955098589A85E08A9565
:10297000F1F700005198599A85E08A95F1F7000027
:102980000895CF93DF93D82FC8E08D2F80780E94D1
:102990007814DD0FC150C9F780E00E94781485E0FB
:1029A0008A95F1F7000085E08A95F1F7000080E054
:1029B000DF91CF9108952BB1342F309523233BB174
:1029C000432B3FB7F894FC01680F791FE617F70710
:1029D00089F0819198E04BB9000000C087FF2BB9C6
:1029E000880F000000C000C000C02BB900C09A953D
:1029F00091F7ECCF3FBF0895AF92BF92CF92DF9295
:102A0000EF92FF920F931F93CF93DF938C01EB0113
:102A1000CFB6D090BC00F8948091BC008B7F80939F
:102A2000BC000E9494140E94A01484E80E94C11467
:102A3000CC0FDD1FCC0FDD1F78015801AC0EBD1E81
:102A4000EA14FB0431F0F70181917F010E94C11467
:102A5000F7CF0E94B414CFBED092BC00579A40E882
:102A6000BE01C801DF91CF911F910F91FF90EF90B0
:102A7000DF90CF90BF90AF900C94DB1490937302D3
:102A8000809372020895E0917202F0917302309780
:102A900021F00190F081E02D099480E00895E0910B
:102AA0007202F0917302309721F00280F381E02DE1
:102AB00009940895E0917202F0917302309721F029
:102AC0000480F581E02D09940895209170023091E1
:102AD00071028217930771F09093710280937002D4
:102AE000E0917202F0917302309721F00680F78135
:102AF000E02D0994089520916E0230916F028217A3
:102B0000930771F090936F0280936E02E0917202CE
:102B1000F0917302309721F00084F185E02D099443
:102B2000089508950C94911581E008950E94D02293
:102B30000E94A9050E9457230C948F11CF92DF9217
:102B4000EF92FF920F931F93CF93DF93CDB7DEB732
:102B50002B970FB6F894DEBF0FBECDBF0E941506AF
:102B60000E949415811111C08FEF89838A831B8283
:102B70000E94D9228160782F9D838C8349815A815C
:102B80006B818D810E94821656C085E7C82E82E037
:102B9000D82E00E010E0E02E802F0E94F706F6010C
:102BA00041916F01F42EF82631F40F5F1F4F0E3064
:102BB000110589F7D9CF90912F0391FF04C08B871E
:102BC0000E94FD068B8520E030E04F2D50E0922FD3
:102BD000BA01022E02C0759567950A94E2F760FF6C
:102BE00024C02E83EF8221E030E0690102C0CC0CCA
:102BF000DD1C9A95E2F790E08C219D21892B09F448
:102C000020E028870E94D9228160782F9A878987BF
:102C10004E815F8168858A850E948216F801EB5893
:102C2000FD4F8081C826C08206C02F5F3F4F2630EF
:102C3000310569F6BACF0E94EA24109174020E940D
:102C400043151817A1F00E944315809374022B9628
:102C50000FB6F894DEBF0FBECDBFDF91CF911F91AD
:102C60000F91FF90EF90DF90CF900C94360B2B9646
:102C70000FB6F894DEBF0FBECDBFDF91CF911F918D
:102C80000F91FF90EF90DF90CF900895DC011196A7
:102C90002C9111978C91682F70E041E050E001C0B9
:102CA000440F8A95EAF712968C91129730E08823A8
:102CB00029F0809192028823E9F006C0F901ED57CE
:102CC000FD4F90819423B1F086E0829FF001839FB5
:102CD000F00D1124E60FF71FEE0FFF1FEB5EFE4F06
:102CE000808191818D939C93F901ED57FD4F8081F7
:102CF000482B06C0F901ED57FD4F409580814823D0
:102D000040830895CF93DF93CDB7DEB72B970FB6EF
:102D1000F894DEBF0FBECDBF942F4F83252F588769
:102D200069877A878B874A855B85452B21F02F3F02
:102D300009F59F3FF9F4DE01119686E0FD0111923D
:102D40008A95E9F785E0FE01379601900D928A9504
:102D5000E1F749815A816B817C818D819E810E943E
:102D6000C51D2B960FB6F894DEBF0FBECDBFDF9109
:102D7000CF910895CE0107960E944616DCCFCF93DF
:102D8000DF931F92CDB7DEB7882309F403C1682F04
:102D90008238C1F40E94431581FDFCC069E3809133
:102DA0000301909104010E9442220E94ED202FEF26
:102DB00081EE94E0215080409040E1F700C0000097
:102DC00069E319C0833811F50E94431580FDE2C004
:102DD00063E580910301909104010E9442220E94C8
:102DE000ED202FEF81EE94E0215080409040E1F7FC
:102DF00000C0000063E580910301909104010E94EE
:102E00004D220F90DF91CF910C94ED208438C1F4C6
:102E10000E94431582FDBEC067E48091030190913A
:102E200004010E9442220E94ED202FEF81EE94E0E7
:102E3000215080409040E1F700C0000067E4DBCF04
:102E40008CEF860F813A70F4862F69830E941327D6
:102E5000698181119FC080910301909104010E94BA
:102E60004222CFCF80E2860F883048F4677081E03D
:102E700001C0880F6A95EAF70E942321C2CF8BE533
:102E8000860F833088F4653A29F0663A31F083E89A
:102E900090E005C081E890E002C082E890E00F90E9
:102EA000DF91CF910C94651588E5860F853108F088
:102EB00071C0683A61F1693A69F16A3A71F16B3A45
:102EC00079F16C3A81F16B3B89F16C3B91F16D3A90
:102ED00099F1603BA1F16E3AA9F16F3AB1F1613B12
:102EE000B9F1623BC1F1633BC9F1643BD1F1653B90
:102EF000D9F1663BE1F1673BE9F1683BF1F1693BF0
:102F0000F9F16A3B09F43FC080E090E03EC082EEF8
:102F100090E03BC089EE90E038C08AEE90E035C08A
:102F200085EB90E032C086EB90E02FC083EB90E021
:102F30002CC084EB90E029C087EB90E026C08CEC9D
:102F400090E023C08DEC90E020C083E891E01DC0AC
:102F50008AE891E01AC082E991E017C084E991E023
:102F600014C081E292E011C083E292E00EC084E2DC
:102F700092E00BC085E292E008C086E292E005C0D4
:102F800087E292E002C08AE292E00F90DF91CF9157
:102F90000C947B150F90DF91CF910895882309F44D
:102FA0005BC0682F823879F40E94431581FF54C0BA
:102FB00069E380910301909104010E9442220E94E2
:102FC000ED2069E310C08338B1F40E94431580FFFF
:102FD00043C063E580910301909104010E94422265
:102FE0000E94ED2063E580910301909104010E940D
:102FF0004D220C94ED20843879F40E94431582FF11
:103000002BC067E480910301909104010E94422249
:103010000E94ED2067E4E7CF8CEF860F813A18F32A
:1030200080E2860F883048F4677081E001C0880F25
:103030006A95EAF70E942921DCCF8BE5860F833061
:1030400020F480E090E00C946515685A653120F416
:1030500080E090E00C947B150895882321F00E9475
:1030600023210C94ED200895882321F00E9429212A
:103070000C94ED2008958F929F92AF92BF92CF92C1
:10308000DF92EF92FF920F931F93CF93DF931F92E4
:10309000CDB7DEB77C01C72EFC01058102950F700C
:1030A0001281112321F069830E9440216981698383
:1030B0000E94E6206981882381F0112371F080E26B
:1030C000860F883050F082E00E94CF200E94E620D8
:1030D00091E0D82ED926698101C0D12CAC2CA294C4
:1030E0008FE0A822B12CF501E159FF4F0C94493231
:1030F0008C2D807F0C2D0F70882311F00295007F9E
:103100001123C1F0002309F4D2C180E2860F883078
:1031100010F0611105C0802F69830E94232104C033
:10312000802F69830E943321698169830E94ED2089
:103130006981BDC1862F69830E94CE1769810023F2
:1031400009F40EC280E2860F883010F0611104C0CD
:10315000802F0E94292103C0802F0E9439210E94C4
:10316000ED20FEC19C2D907F8C2D8F70903211F040
:103170008295807F662319F06130B1F01EC0112363
:1031800049F0002309F44BC1013009F048C10E9405
:103190005321E6C1002319F0013009F4E1C189830C
:1031A0000E945621898141C1112321F0023008F08B
:1031B000D7C135C10111D4C138C1112321F0002379
:1031C00009F42DC174C1002309F42FC181C18C2DD4
:1031D00086958695837090E0009719F0019761F0CD
:1031E000BFC1112321F0862F9C2D937002C080E077
:1031F00090E00E946515C4C1112321F0862F9C2DFB
:10320000937002C080E090E00E947B15B9C1112349
:10321000F9F0653F51F0663F71F0643FA9F4809189
:10322000A5039091A60381600BC08091A5039091A6
:10323000A603826005C08091A5039091A6038460D7
:103240009093A6038093A503862F0E94F2231EC0AD
:10325000653F51F0663F71F0643FA9F48091A5038A
:103260009091A6038E7F0BC08091A5039091A60339
:103270008D7F05C08091A5039091A6038B7F9093CD
:10328000A6038093A503862F0E945A240E94DF2460
:1032900077C18C2D837009F052C011116DC1862F3A
:1032A000829586958770880F880F962F9F70892E3C
:1032B000912CA12CB12C082E04C0880C991CAA1C9E
:1032C000BB1C0A94D2F764FF14C00FE010E020E0AA
:1032D00030E0B901A80104C0440F551F661F771FD5
:1032E0008A95D2F7CB01BA0160957095809590953B
:1032F00003C060E070E0CB012C2D2695269523704D
:1033000030E02230310569F02330310589F0682939
:1033100079298A299B292130310571F00E94081FE3
:103320002BC1682979298A299B290E941A1F24C147
:103330000E94081FC501B4010E94F61E1DC1112381
:1033400019F08C2D817001C08695882309F414C171
:10335000862F829586958770880F880F962F9F708D
:10336000892E912CA12CB12C082E04C0880C991CFC
:10337000AA1CBB1C0A94D2F764FF14C00FE010E033
:1033800020E030E0B901A80104C0440F551F661FBA
:10339000771F8A95D2F7CB01BA0160957095809519
:1033A000909503C060E070E0CB012C2D269526950A
:1033B0002370422F50E04230510569F043305105EF
:1033C00089F0682979298A299B294130510571F0B2
:1033D0000E94CD1FD1C0682979298A299B290E9482
:1033E000DF1FCAC00E94CD1FC501B4010E94BB1FD0
:1033F000C3C0862F90E0FC01E05EF109E531F105E4
:1034000008F051C0E158FF4F0C944932062F0F705D
:103410008C2D8F71112331F00E94541F802F0E9438
:103420002D189EC00E94751F802F0E94341898C0CE
:10343000112339F0011194C08C2D8F710E949A1FB5
:103440008FC0023008F08CC0F7CF112339F08C2DDB
:103450008F710E94541F84C01123C9F38C2D8F716A
:103460000E94751F7DC0112329F08C2D8F710E9441
:103470003F1F76C00E943A1F73C0112351F01C2DCC
:103480001F71812F0E94541F63E0812F0E94C6206C
:1034900067C081E00E94CF20023008F461C082E062
:1034A0000E94CF205DC0112331F0002381F2862FCE
:1034B0000E94BF1655C0002389F2693349F45FEFBB
:1034C00077EE83E0515070408040E1F700C000008B
:1034D000862F0E94CE1744C04C2D4F70C7010E940A
:1034E000BB070E94691E4CC0623F99F128F4603FFF
:1034F00049F0613FE1F020C0643FA1F050F0653F2A
:1035000059F01AC0112339F19091920281E0892774
:1035100006C081E018271DC011111DC081E08093F5
:10352000920219C0111117C01092920214C0002308
:1035300081F0111110C0E8CF002359F0862F698364
:10354000112319F00E94BF1602C00E94CE17698194
:1035500002C0109392024C2D4F70C7010E94380B8D
:1035600098E0A916B10441F05CF0FAE0AF1AB10896
:1035700022E0A216B10420F40E9443150E94360BEB
:10358000DD20F1F00E94C22080FD1AC0F7011282F6
:103590000E94BC200E94541FC7010E94EE1A0E9484
:1035A000BC200F90DF91CF911F910F91FF90EF9072
:1035B000DF90CF90BF90AF909F908F900C94751F2D
:1035C0000F90DF91CF911F910F91FF90EF90DF90BF
:1035D000CF90BF90AF909F908F9008950F931F93BF
:1035E000CF93DF93EC01888199812B813C81232B40
:1035F000B9F09F3F11F48F3F99F0CE010E9430083F
:10360000882371F0688179818A810E9499208C01D8
:103610000E94F11F0E94F31EB801CE010E943B18C8
:10362000DF91CF911F910F9108950E9440210E9438
:10363000502180910301909104010E9458220E9420
:10364000ED200E9478250E94DF2480E090E00E9417
:10365000651580E090E00C947B150E9430210C945D
:10366000151B0E948E20E92FE295EF70F0E0329753
:10367000EE30F105B0F4EC56FF4F0C944932803F28
:1036800091F018F4803E68F40EC0843F51F40BC0F2
:10369000803E48F0813F29F406C093FB882780F9DB
:1036A000089580E0089581E00895CF93DF9300D0DE
:1036B00000D01F92CDB7DEB70F900F900F900F90F4
:1036C0000F90DF91CF910895CF93DF9300D000D07A
:1036D00000D0CDB7DEB726960FB6F894DEBF0FBE8A
:1036E000CDBFDF91CF9108951F93CF93DF93C0910A
:1036F000930216E080919402C81799F0D0E01C9FC5
:10370000F0011D9FF00D1124EB56FD4F40815181BA
:1037100062817381848195810E94641B2196C770A8
:10372000E9CFDF91CF911F9108954091C50250914B
:10373000C6026091C7027091C8028091C90290913F
:10374000CA020C94641B8091CA0282958F7009F0A2
:1037500054C08091C702882309F44FC0809193021E
:10376000A09194026091C5027091C6024091C80276
:103770005091C902B6E08A1709F43FC090E04115A4
:103780005105C1F17F3F11F46F3FA1F1B89FF001E6
:10379000B99FF00D1124EB56FD4F218172132AC001
:1037A0002081621327C02281211124C0238134810A
:1037B0002417350710F421503109241B350B283C00
:1037C0003105C0F42091CA022F7020612093CA02F3
:1037D00026E0289FF001299FF00D1124E656FD4FA9
:1037E00080818F708061808385EC92E00E94EE1A68
:1037F0000C94741B01968770BECF0895CF92DF9210
:10380000EF92FF920F931F93CF93DF93CDB7DEB765
:1038100062970FB6F894DEBF0FBECDBF8C0185E076
:10382000F801DE011D9601900D928A95E1F7D8010D
:103830004C9111965C91119712966C911297139678
:10384000CD90DC9014973091C5027091C6028091A2
:10385000C8029091C902009709F46BC17F3F19F427
:103860003F3F09F466C1E090C702EE2009F4C0C0F2
:103870002091CA02C816D90628F0F601E81BF90BF8
:10388000CF0104C0809590958C0D9D1DFF24F3946D
:10389000883C910578F0F12C207F09F0C6C07C2D82
:1038A000D98AC88A89890E94551B85EC92E00E94BA
:1038B000EE1AB1C0822F807F09F046C0751314C084
:1038C000341312C0611110C02F7020612093CA02FE
:1038D0000E94951B85EC92E00E94EE1A8091CA022C
:1038E000D80115968C932EC0CD2819F15F3F11F4A5
:1038F0004F3FF9F0F62E61111CC080919302209188
:10390000940236E0821709F45AC090E0389FF00123
:10391000399FF00D1124EB56FD4F7181571306C0EE
:103920007081471303C07281711103C001968770C3
:10393000E9CFF62E662309F418C18091CA0281608E
:103940008093CA02F12C11C1751308C0341306C04C
:10395000611104C08091CA02D801C3C04D875E873F
:103960008D859E856A8B0E94311B6A898823E1F1CF
:103970006623D1F12091CA02822F82958F7090E048
:10398000029774F08091C5029091C60298878F8348
:103990001986DB86CA862C87CE0107960E94EE1A0E
:1039A00086E0F801A5ECB2E001900D928A95E1F76E
:1039B0000E94A31B0E94951BFF24F394D6C04D8741
:1039C0005E878D859E850E948E20292F22952F70DF
:1039D00030E0223031050CF0BCC09F7009F0B6C059
:1039E000805E883008F4C1C0C8010E94EE1AE4CF9E
:1039F000C816D90608F453C0F601E81BF90BCF012D
:103A0000883C910508F450C0F12C7C2DD98AC88AD5
:103A100089890E94551BE5ECF2E086E0DF011D92EA
:103A20008A95E9F70E94951BA0C0751314C0341342
:103A300012C0611110C08091CA02F8018583C801CB
:103A40000E94EE1A86E0E5ECF2E0DF011D928A9515
:103A5000E9F7FE2C8AC04D875E878D859E856A8B2F
:103A60000E94311B6A89882309F4BECF662309F4BA
:103A7000BBCF2091CA02822F82958F7090E002976F
:103A80000CF48ECF8091C5029091C6029A838983EF
:103A90001B82DD82CC822E83CE0101967FCF809562
:103AA00090958C0D9D1DACCFF62E662309F49CCF0E
:103AB00075132EC034132CC02091CA0220FD1FC0E4
:103AC000822F82958F70D9F0D80115962C93159777
:103AD0008F3049F08F5F982F9295907F822F8F7053
:103AE000892B15968C93C8010E94EE1A86E0F80186
:103AF000A5ECB2E001900D928A95E1F793CF86E0B4
:103B0000F801A5ECB2E001900D928A95E1F72DC085
:103B10004D875E878D859E850E94311B811140CF28
:103B20008091CA0281608093CA02C8010E94EE1A85
:103B30001CC0662309F458CF4D875E878D859E850E
:103B40000E94311B882309F44FCF2ACF811148CF1F
:103B50000CC0243031050CF047CF9F7009F440CFE2
:103B6000F8019581907F09F03BCF8F2D62960FB6BB
:103B7000F894DEBF0FBECDBFDF91CF911F910F91A3
:103B8000FF90EF90DF90CF9008951F93CF93DF9336
:103B9000CDB7DEB72C970FB6F894DEBF0FBECDBF02
:103BA0004F83588769877A878B879C87CE010796D2
:103BB0000E94FE1B882369F08F8198852A853B85AA
:103BC000232BF1F19F3F09F063C08F3F09F060C0E4
:103BD00037C086E0FE013796DE01119601900D9206
:103BE0008A95E1F76F817885EA85FB85309741F109
:103BF0007F3F11F46F3F21F12091940230E0C90121
:103C00000196877099274091930250E08417950799
:103C100009F447C069837A83FD83EC8396E0929F21
:103C2000D001939FB00D1124AB56BD4FFE013196CC
:103C300001900D929A95E1F7809394020E94741B73
:103C400016E080919302909194028917C1F1189F18
:103C5000C00111248B569D4F0E94FE1B882379F1D1
:103C6000E09193021E9FF0011124EB56FD4F40811D
:103C7000518162817381848195810E94641B80914E
:103C8000930290E001968770992780939302D9CF91
:103C90004F81588569857A858B859C850E94641B38
:103CA000CFCF0E942D1B1092940210929302E5EC4C
:103CB000F2E086E0DF011D928A95E9F7C1CF2C96EC
:103CC0000FB6F894DEBF0FBECDBFDF91CF911F912D
:103CD0000895EF92FF920F931F93CF93DF938C0180
:103CE000892B09F46CC0F12CEE24E394E8012196B1
:103CF000F8018491843740F4843008F051C0813059
:103D000081F0823019F15BC0853709F444C0A8F115
:103D10009CE7980F903708F052C08F770E94CE171B
:103D200041C00E5F1F4FFE01C49180E28C0F8830AE
:103D300048F4C7708E2D01C0880FCA95EAF70E941B
:103D4000432114C08C2F0E94BF162DC00E5F1F4F41
:103D5000FE01C49180E28C0F883058F4C7708E2D1C
:103D600001C0880FCA95EAF70E9449210E94ED2000
:103D70001AC08C2F0E94CE1716C00E5F1F4FFE0177
:103D8000C491CC2381F08FE99FE00197F1F700C047
:103D90000000C150F6CF0E5F1F4FFE01F49003C02C
:103DA0000E94BF168E018F2D882309F49FCFEFE963
:103DB000FFE03197F1F700C000008150F5CFDF91AF
:103DC000CF911F910F91FF90EF90089508950E9459
:103DD000E61E609306037093070380930803909395
:103DE00009030C94151B08950C94E71E0F931F9361
:103DF00000910603109107032091080330910903F5
:103E0000602B712B822B932B1F910F910C94E71E2B
:103E10000F931F930091060310910703209108034D
:103E20003091090360237123822393231F910F9103
:103E30000C94E71E0F931F93009106031091070344
:103E40002091080330910903602771278227932767
:103E50001F910F910C94E71E0C94ED070E942C1FEC
:103E6000609302037093030380930403909305030C
:103E70000C94151B60E070E0CB010C942E1F0F9387
:103E80001F9341E050E060E070E08A019B0104C0B4
:103E9000000F111F221F331F8A95D2F7C901B801E5
:103EA0001F910F910C942E1F0F931F9341E050E030
:103EB00060E070E004C0440F551F661F771F8A95AD
:103EC000D2F78091020390910303A0910403B09173
:103ED00005038A019B01082B192B2A2B3B2BC901B7
:103EE000B8011F910F910C942E1F0F931F9341E067
:103EF00050E060E070E004C0440F551F661F771F5C
:103F00008A95D2F7409550956095709580910203FF
:103F100090910303A0910403B09105038A019B01D2
:103F2000082319232A233B23C901B8011F910F91AC
:103F30000C942E1F0F931F9341E050E060E070E05F
:103F400004C0440F551F661F771F8A95D2F78091D2
:103F5000020390910303A0910403B09105038A0129
:103F60009B01082719272A273B27C901B8011F9160
:103F70000F910C942E1F0F931F9300910203109129
:103F800003032091040330910503602B712B822BD6
:103F9000932B1F910F910C942E1F0F931F93009141
:103FA0000203109103032091040330910503602361
:103FB0007123822393231F910F910C942E1F0F9333
:103FC0001F93009102031091030320910403309189
:103FD000050360277127822793271F910F910C9467
:103FE0002E1F0895292F220F920F990F890FA82FA6
:103FF000A695A695A695877051E001C0550F8A95A4
:10400000EAF785E0A89FD001112420E030E070E0BD
:10401000F901EA0FFB1FE553FD4F4081CB01022E52
:1040200002C0969587950A94E2F781709927819549
:1040300084278523842780832F5F3F4F25303105D8
:1040400039F70895292F220F920F990F890F682FA2
:10405000669566956695982F977085E0689FB00184
:10406000112440E050E080E0FA01E60FF71FE5532D
:10407000FD4F208130E0092E02C0369527950A9425
:10408000E2F721703327042E01C0220F0A94EAF7C9
:10409000822B4F5F5F4F4530510531F70895CF9226
:1040A000DF92EF92FF920F931F93CF93DF938C01D8
:1040B000C0900603D0900703E0900803F090090336
:1040C0008091020390910303A0910403B091050332
:1040D000C82AD92AEA2AFB2ACFE1D0E0D701C601B3
:1040E0000C2E04C0B695A795979587950A94D2F79C
:1040F00080FF06C0B8018C2F0E94530B019721F45A
:10410000219760F780E001C08C2FDF91CF911F9144
:104110000F91FF90EF90DF90CF900895CF93DF93B2
:10412000EC010E944F20BE010E94530BDF91CF9102
:1041300008951F93CF93DF93EB0190919102992300
:1041400021F0CB010E948E2013C0882349F0CB01BF
:104150000E944F20182F682FCE010E94F21F04C02A
:10416000CB010E942220182FBE01812F0E94530BE9
:10417000DF91CF911F91089580910A0385958595D0
:104180008595089580910A038770089598E0899F26
:1041900090011124262B20930A030C94541F209184
:1041A0000A038095822380930A03982F977069F4FD
:1041B00030E0482F082E000C550B2417350729F046
:1041C0008595859585950C94751F089590910A03A2
:1041D000977081E009F480E00895E0910301F09187
:1041E000040180912E038083E0910301F09104018A
:1041F000908180912D03892B8083E0910301F091C0
:104200000401908180912C03892B808380910B0382
:10421000882381F0E0910301F09104019081892BC2
:10422000808380910301909104010E94E621811115
:1042300010920B0380910301909104010C944F158F
:1042400080912E03089590912E03892B80932E0345
:104250000895809590912E03892380932E030895CD
:1042600010922E03089590912D03892B80932D0396
:104270000895809590912D03892380932D030895AF
:1042800010922D03089590912C03892B80932C0379
:104290000895809590912C03892380932C03089591
:1042A00010922C03089580930B03089510920B0332
:1042B0000895CF92DF92EF92FF926C01EE24FF24DB
:1042C000C114D104E104F10421F0C701B60120E1D9
:1042D00001C020E0C72ED82EE92EFF24C114D1043E
:1042E000E104F10419F0285FC701B6016B017C01FC
:1042F00054E0F694E794D794C7945A95D1F7C11433
:10430000D104E104F10419F02C5FC701B6016B017F
:104310007C0142E0F694E794D794C7944A95D1F78C
:10432000C114D104E104F10419F02E5FC701B601F4
:10433000DC01CB01B695A79597958795892B8A2B9C
:104340008B2B09F02F5F822FFF90EF90DF90CF90A3
:1043500008956DEE7EEF80E090E00E94813260E093
:1043600082E090E00E94633260E083E090E00E948F
:10437000633260E084E090E00E94633260E085E0B8
:1043800090E00E94633240E050E0BA0188E090E0A3
:104390000C94753280E090E00E945D3221E08D3E09
:1043A0009E4F09F020E0822F089582E090E00C9467
:1043B0004F3283E090E00C944F3284E090E00C9414
:1043C0004F32682F84E090E00C946332FC01319608
:1043D0009C01205E3F4F80E0919191118F5FE21729
:1043E000F307D1F708959C01FC0132969FEF80E01E
:1043F0004191461789F09F3F19F4411101C0982F50
:104400008F5F8E31A9F79F3F39F0F901E90FF11D58
:1044100097FDFA95628308950895FC01329680967F
:104420002081261301C010823196E817F907C1F7E1
:104430000895262F2695269526952F3168F4FC01A0
:10444000E20FF11D677021E030E001C0220F6A9594
:10445000EAF78181282B21830895262F269526951A
:1044600026952F3170F4FC01E20FF11D677021E0F9
:1044700030E001C0220F6A95EAF720958181282358
:104480002183089520911401222329F02091AB0368
:1044900027FD0C9419220C94F3212091140122235E
:1044A00029F02091AB0327FD0C942D220C940D22B2
:1044B000FC01319680961192E817F907E1F708950B
:1044C0008091B103843039F11092300320E488E107
:1044D00090E00FB6F894A895809360000FBE2093EB
:1044E000600080E00E94360B83B7817F846083BFC9
:1044F00083B7816083BF7894889583B78E7F83BFAD
:104500000FB6F894A8958091600088618093600050
:10451000109260000FBE08950895CF930E94C805C1
:104520000E9415060E948C22C0E08C2F0E94F70684
:10453000811104C0CF5FCE30C1F701C081E0CF91BF
:1045400008950E942D1B0E9443150C94360B1F9258
:104550000F920FB60F9211248F939F93AF93BF9337
:1045600080913003811113C08091A7039091A8031B
:10457000A091A903B091AA034196A11DB11D8093FA
:10458000A7039093A803A093A903B093AA03BF9194
:10459000AF919F918F910F900FBE0F901F90189524
:1045A00082E084BD93E095BD9AEF97BD80936E0045
:1045B00008952FB7F8948091A7039091A803A09134
:1045C000A903B091AA032FBF0895CF92DF92EF9273
:1045D000FF920F931F932FB7F8944091A703509128
:1045E000A8036091A9037091AA032FBF6A017B0100
:1045F000EE24FF248C0120E030E0C016D106E20654
:10460000F30610F4415051099A01281B390BC901D6
:104610001F910F91FF90EF90DF90CF9008957894C5
:104620001F920F920FB60F9211248F939F93AF9307
:10463000BF938091A7039091A803A091A903B09183
:10464000AA030196A11DB11D8093A7039093A8030F
:10465000A093A903B093AA03BF91AF919F918F91AB
:104660000F900FBE0F901F9018950E94D12BF894B9
:104670002FEF87EA91E6215080409040E1F700C09B
:10468000000087E090EBDC018093BA039093BB03BA
:10469000A093BC03B093BD039CE088E10FB6F894EF
:1046A000A895809360000FBE90936000FFCF0E949A
:1046B000CA21811102C00E94A9210E94D5218093A4
:1046C0002F030E94DD2190E09093AC038093AB0315
:1046D0000E94D921682F70E080E090E00C94F41ED5
:1046E0008091340380FF0BC06091080185E0689FD2
:1046F000B001112475956795759567952BC081FF5D
:1047000009C06091080185E0689FB001112475958A
:10471000679520C082FF07C06091080185E0689F0F
:10472000B001112417C0909135039923D1F0609105
:104730000701961788F72091080185E0289F9001CE
:104740001124929FA001939F500D112470E0CA0183
:104750000E9435326038710540F46115710539F0F9
:1047600002C065E070E0862F08958FE7089581E02C
:1047700008958091340380FF08C06091060170E0C5
:10478000759567957595679521C081FF06C0609105
:10479000060170E07595679519C082FF04C06091AD
:1047A000060170E010C0909135039923C1F060912B
:1047B00005019617A0F780910601899FC001112479
:1047C00070E00E9435326038710528F4611571057A
:1047D00021F0862F08958FE7089581E0089561E024
:1047E00070E0F4CF803F21F40E947023819504C0D3
:1047F000813F29F40E947023809338030895823FFB
:1048000021F40E947023819504C0833F29F40E9403
:104810007023809337030895893F19F40E94B923C8
:1048200005C08A3F31F40E94B923819580933903F2
:1048300008958B3F21F40E94B923819504C08C3FD9
:1048400029F40E94B92380933A030895843F21F408
:1048500080913603816017C0853F21F48091360333
:10486000826011C0863F21F48091360384600BC0C2
:10487000873F21F480913603886005C0883F31F47A
:104880008091360380618093360308958D3F21F433
:104890008091340381600BC08E3F21F480913403FA
:1048A000826005C08F3F29F4809134038460809337
:1048B00034030895803F39F48091380387FF6CC03A
:1048C0001092380369C0813F29F48091380318168B
:1048D000BCF362C090913703823F29F497FF5CC01C
:1048E0001092370359C0833F19F41916CCF354C002
:1048F000893F41F48091390318160CF04DC0109295
:1049000039034AC08A3F29F48091390387FF44C0A4
:10491000F6CF8B3F39F480913A0387FF3DC0109268
:104920003A033AC08C3F29F480913A031816BCF33D
:1049300033C0843F21F4809136038E7F17C0853FBA
:1049400021F4809136038D7F11C0863F21F4809140
:1049500036038B7F0BC0873F21F480913603877F1E
:1049600005C0883F31F4809136038F7E80933603F3
:1049700013C08D3F21F4809134038E7F0BC08E3F96
:1049800021F4809134038D7F05C08F3F29F48091FD
:1049900034038B7F809334038091370381110EC0E1
:1049A0008091380381110AC080913903811106C0BA
:1049B00080913A03811102C010923503089586E375
:1049C00093E00E945A150E94D9229093320380935B
:1049D000310308951F93CF93DF938091310390911A
:1049E00032030E94E522AC0190913503992321F016
:1049F0002091090130E006C0209133038AE0289F0E
:104A0000900111244217530708F46EC080913703B8
:104A1000C0913803D091390310913A03811107C036
:104A2000C1115EC0D1115CC011115AC05DC09F3F61
:104A300019F09F5F90933503181624F40E94702399
:104A4000809337038091370387FF05C00E9470234E
:104A50008195809337031C1624F40E947023809361
:104A600038038091380387FF05C00E947023819529
:104A70008093380340913703442379F03091380311
:104A8000332359F025EB4203A0011124509337033F
:104A90003203C0011124909338031D1624F40E94A0
:104AA000B923809339038091390387FF05C00E94A1
:104AB000B923819580933903111624F40E94B923F8
:104AC00080933A0380913A0387FF05C00E94B9237F
:104AD000819580933A03DF91CF911F910C94DF244D
:104AE0009F3F09F0A6CFAECFDF91CF911F910895E0
:104AF000E6E3F3E085E0DF011D928A95E9F7109285
:104B00003503109234030895833081F128F4813005
:104B100059F08230D1F00895853009F449C0B8F1D8
:104B2000863009F456C0089580913303262F30E073
:104B3000280F311D2F3F310524F4680F6093330394
:104B400008958FEF80933303089580910901262FF4
:104B500030E0280F311D2F3F310524F4680F60939A
:104B6000090108958FEF809309010895809108014C
:104B7000262F30E0280F311D2F3F310524F4680F18
:104B80006093080108958FEF809308010895809144
:104B90000701262F30E0280F311D2F3F310524F467
:104BA000680F6093070108958FEF809307010895C0
:104BB00080910601262F30E0280F311D2F3F31054F
:104BC00024F4680F6093060108958FEF8093060127
:104BD000089580910501262F30E0280F311D2F3FC9
:104BE000310524F4680F6093050108958FEF8093D9
:104BF00005010895833011F128F4813049F08230A5
:104C000091F00895853081F120F18630C1F1089549
:104C100080913303681720F4861B80933303089533
:104C200010923303089580910901681720F4861BC0
:104C30008093090108951092090108958091080157
:104C4000681720F4861B80930801089510920801CC
:104C5000089580910701681720F4861B809307014F
:104C6000089510920701089580910601681720F4B5
:104C7000861B809306010895109206010895809185
:104C80000501681720F4861B809305010895109292
:104C9000050108950F931F93873208F04DC08E31A0
:104CA00008F093C0803109F47DC008F5873009F41D
:104CB0006BC068F4863009F0A3C080912F03817F18
:104CC0008E7F80932F0381E080933C039AC08B30CA
:104CD00009F48FC08E3009F093C080912F0382FBBE
:104CE000222720F991E0922790FB82F964C0863157
:104CF00009F47FC088F4813109F082C00E942D1B25
:104D00008091AB0387FB222720F991E0922790FB4B
:104D100087F98093AB036DC0893109F46AC08B3188
:104D200009F06EC080912F0381FB222720F991E0CA
:104D3000922790FB81F93FC0883309F45AC050F4A0
:104D4000893209F458C0853309F455C0873209F413
:104D500052C056C0833409F44EC028F48A3308F494
:104D60004FC0895333C0883409F04AC00E942D1BBC
:104D70000FEF13ED20E3015010402040E1F700C099
:104D800000000E94352335C080912F03982F909505
:104D9000917090FB80F980932F0391112AC0897F35
:104DA000877F10C080912F0383FB222720F991E099
:104DB000922790FB83F980932F039923D1F0809160
:104DC0002F03816080932F0314C08D5141E050E088
:104DD00060E070E08A019B0104C0000F111F221FD8
:104DE000331F8A95D2F7C901B8010E94F41E0E94B0
:104DF0002D1B81E006C061E070E080E090E0F5CF1F
:104E000080E01F910F91089580E0089580E008955B
:104E10008E518A3030F4E82FF0E0E354FE4F808169
:104E2000089580E00895CF93C82F80913C0381308E
:104E300079F018F08230E9F185C0E0910301F0913A
:104E400004018081813169F0823209F07DC009C09E
:104E5000E0910301F09104018081813111F08232EF
:104E600061F48C2F0E940427811104C08C2F0E94B2
:104E70004A261DC081E090E01AC08C2F0E940627B0
:104E8000811114C0C43179F048F4CB3079F0C031CD
:104E900009F05EC082E080933C0308C0C93219F07B
:104EA000C83321F055C010923C0352C081E081709C
:104EB00051C0C93279F108F5C43161F1A0F4C730AD
:104EC00009F044C01092330384E180930901C09338
:104ED00008018CE38093070188E08093060188E253
:104EE0008093050133C082EE8C0F863078F58C2FCD
:104EF0000E94082780933B0329C0CE34E9F020F4B8
:104F0000CB3421F56AE013C0C13579F0C235F1F434
:104F100061E00DC080913B03882319F010923B03A0
:104F200015C081E080933C0315C061E006C080910C
:104F30003B030E9484250AC06AE080913B030E94E3
:104F4000FA2504C010923C0380E004C081E002C056
:104F500080E0ADCFCF91089580915D0308950F93C8
:104F60001F93CF93DF9300D01F92CDB7DEB78C0194
:104F70000E941F2A823011F0843019F593E0998342
:104F80001B830A839093E9008FEF9091E800815092
:104F900095FD06C095ED9A95F1F700008111F5CFCA
:104FA0008091E80085FF0DC040E050E063E070E0D4
:104FB000CE0101960E943C2A8091E8008E77809372
:104FC000E8000F900F900F90DF91CF911F910F91FC
:104FD0000895CF93DF9300D01F92CDB7DEB7209115
:104FE000B103243031F522E02983805891099B8355
:104FF0008A8383E08093E9008FEF9091E8008150ED
:1050000095FD06C095ED9A95F1F700008111F5CF59
:105010008091E80085FF0DC040E050E063E070E063
:10502000CE0101960E943C2A8091E8008E77809301
:10503000E8000F900F900F90DF91CF910895CF93DC
:10504000DF93EC010E941F2A823011F08430F9F4C2
:1050500082E08093E9009FEF8091E800915085FD08
:1050600006C085ED8A95F1F700009111F5CF80918A
:10507000E80085FF0CC040E050E065E070E0CE0144
:105080000E943C2A8091E8008E778093E800DF91AF
:10509000CF910895CF93DF93EC010E941F2A8230B5
:1050A00019F0843009F047C0809114018823E1F0A1
:1050B0008091AB0387FF18C084E08093E9008FEFF5
:1050C0009091E800815095FD06C095E19A95F1F721
:1050D00000008111F5CF8091E80085FF2CC040E0F1
:1050E00050E060E270E017C081E08093E9008FEF4C
:1050F0009091E800815095FD06C095ED9A95F1F7E5
:1051000000008111F5CF8091E80085FF14C040E0D8
:1051100050E068E070E0CE010E943C2A8091E800F7
:105120008E778093E80080E2FE01ADE3B3E001906A
:105130000D928A95E1F7DF91CF9108958091B003A8
:10514000811109C00E94D12B0E942E2C8091E20077
:1051500084608093E20008951092B003089508954A
:1051600008950C94A12242E061EC81E00E944B2B57
:1051700042E061EC82E00E944B2B42E061EC83E074
:105180000E944B2B42E261EC84E00C944B2B80910B
:10519000B303833009F455C030F4813071F08230AC
:1051A00009F48EC008958A3009F47AC08B3009F46E
:1051B00060C0893009F09CC020C08091B203813A60
:1051C00009F096C08091E800877F8093E800809185
:1051D000B6039091B703892B21F460E28DE393E04D
:1051E00003C060E080E090E070E00E94872A809138
:1051F000E8008B778093E80008958091B2038132B4
:1052000009F076C08091B6039091B703009719F02A
:10521000039709F06DC08091E800877F8093E800D4
:105220008091E80082FD05C08091B1038111F8CF23
:105230005FC08091F10080935D038091E8008B77DF
:1052400053C08091B203813A09F052C08091B603F5
:105250009091B703892B09F04BC08091E800877FBC
:105260008093E8008091E80080FFFCCF80911401DA
:1052700036C08091B2038132D9F58091B603909106
:10528000B703892BA9F58091E800877F8093E80018
:105290000E94802B8091B403809314010C942D1BE9
:1052A0008091B203813221F58091E800877F80935D
:1052B000E8000E94802B8091B50380935E030895DF
:1052C0008091B203813AA1F48091E800877F8093B6
:1052D000E8008091E80080FFFCCF80915E0380931E
:1052E000F1008091E8008E778093E8000C94802B89
:1052F000089584B7877F84BF0FB6F894A8958091EE
:105300006000886180936000109260000FBE80E8AA
:1053100080936100109261000E9492150E94D12B2F
:105320000E942E2C8091E20084608093E2007894A9
:105330000E94BD2E0E9496158AE091E00E943E15C3
:105340008091B103853069F40E9460228091AF039F
:105350008823B1F30E948D22882391F30E94262A8C
:10536000EFCF0E949E150E944114EACF292F3327C8
:1053700023303105C9F064F42130310581F0223049
:10538000310509F043C08DE690E02AE438E042C0E0
:1053900021323105F1F02232310541F137C082E18D
:1053A00090E027EB38E036C099278130910541F035
:1053B0008230910541F0892B49F5E6E4F8E005C01B
:1053C000EEE2F8E002C0E6E1F8E0849190E09F01AF
:1053D00021C064307105D0F4660F771FFB01ED52D8
:1053E000FE4F2081318189E090E014C06430710566
:1053F00068F4FB01EE0FFF1FE553FE4F2081318162
:10540000FB01E953FE4F808190E004C080E090E012
:1054100020E030E0FA013183208308950895CF938E
:10542000C82F0E940E2AC0935F03CF9108958091E8
:10543000B103843011F081E0089582E008958091F5
:105440005F03811102C00C94172A089580E189BD81
:1054500082E189BD09B400FEFDCF8091D8008F7D27
:105460008093D8008091E00082608093E00080917A
:10547000E00081FDFCCF0895CF92DF92EF92FF9282
:105480000F931F93CF93DF93EC018B016A010E946E
:105490009F2B811133C0C114D10439F0F6018081F2
:1054A0009181081B190BC80FD91FE12CF12C011594
:1054B000110519F18091E80085FD16C08091E80082
:1054C0008E778093E800C114D10449F0F601808101
:1054D0009181E80EF91EF182E08285E00FC00E9402
:1054E0009F2B882321F30AC089918093F1000150FA
:1054F0001109FFEFEF1AFF0ADACF80E0DF91CF91B9
:105500001F910F91FF90EF90DF90CF900895209121
:10551000B8033091B9032617370748F061157105B4
:1055200039F42091E8002E772093E80001C0B901FA
:1055300040E061157105A9F12091B103222309F41E
:1055400043C0253009F442C02091E80023FD40C04B
:105550002091E80022FD32C02091E80020FFE9CF31
:105560004091F3002091F20030E0342BFC01CF0198
:105570006115710559F02830310540F4819180930F
:10558000F100615071092F5F3F4FF1CF41E02830AA
:10559000310509F040E02091E8002E772093E800E3
:1055A000C8CF4111C9CF0AC08091B103882361F0EF
:1055B000853061F08091E80083FD0AC08091E800A9
:1055C00082FFF2CF80E0089582E0089583E008959D
:1055D00081E008952091B8033091B9032617370769
:1055E00048F06115710539F42091E8002E77209379
:1055F000E80001C0B901FC0120E06115710591F1DD
:105600008091B103882309F440C0853009F43FC07C
:105610008091E80083FD3DC08091E80082FD2FC0AD
:105620008091E80080FFE9CF2091F3008091F200A3
:1056300090E0922B6115710559F08830910540F486
:1056400024912093F1003196615071090196F2CFB7
:1056500021E0089709F020E08091E8008E778093A0
:10566000E800CBCF2111CCCF0AC08091B1038823B1
:1056700061F0853061F08091E80083FD0AC080917F
:10568000E80082FFF2CF80E0089582E0089583E091
:10569000089581E00895982F973058F59093E90088
:1056A000981739F07091EC002091ED005091F000C6
:1056B00003C0242F762F50E021FF19C03091EB005A
:1056C0003E7F3093EB003091ED003D7F3093ED0055
:1056D0003091EB0031603093EB007093EC0020933D
:1056E000ED005093F0002091EE0027FF07C09F5F70
:1056F000D3CF8F708093E90081E0089580E0089512
:105700008091B20387FF11C08091E80082FD05C03F
:105710008091B1038111F8CF11C08091E8008B779F
:105720000BC08091B103882349F08091E80080FF8D
:10573000F8CF8091E8008E778093E800089520915B
:10574000E4003091E50095E64091EC00842F8170F3
:1057500040FF22C08091E80080FD1CC08091B10311
:10576000882391F0853091F08091EB0085FD10C089
:105770004091E4005091E5004217530729F39A0144
:10578000915011F784E0089582E0089583E0089530
:1057900081E0089580E008954091E80042FFDECF67
:1057A00008950E943F2C0E94472CE0EEF0E080819B
:1057B00081608083E8EDF0E080818F77808319BC81
:1057C000A7EDB0E08C918E7F8C9380818F7E80835B
:1057D0001092B00308950F931F93CF93DF930E940D
:1057E0003F2C0E94472CC8EDD0E088818F778883BA
:1057F00088818068888388818F7D888319BC109216
:10580000B1031092AD031092AF031092AE0300EEFD
:1058100010E0F80180818B7F80838881816088839C
:1058200042E060E080E00E944B2BE1EEF0E08081FE
:105830008E7F8083E2EEF0E08081816080838081D2
:1058400088608083F80180818E7F80838881806179
:105850008883DF91CF911F910F910895E8EDF0E0DB
:1058600080818F7E8083E7EDF0E08081816080839E
:1058700084E082BF81E08093B0030C94EB2BE8EDD1
:10588000F0E080818E7F80831092E2000895109274
:10589000DA001092E10008951F920F920FB60F9256
:1058A00011242F933F934F935F936F937F938F9325
:1058B0009F93AF93BF93EF93FF938091E10082FF9B
:1058C0000BC08091E20082FF07C08091E1008B7FD6
:1058D0008093E1000E94BC2E8091DA0080FF1FC0FF
:1058E0008091D80080FF1BC08091DA008E7F80936A
:1058F000DA008091D90080FF0DC080E189BD82E18E
:1059000089BD09B400FEFDCF81E08093B1030E9400
:105910009E2805C019BC1092B1030E94AC2880914A
:10592000E10080FF19C08091E20080FF15C08091E6
:10593000E2008E7F8093E2008091E200806180939C
:10594000E2008091D80080628093D80019BC85E085
:105950008093B1030E94B0288091E10084FF30C0A1
:105960008091E20084FF2CC080E189BD82E189BD85
:1059700009B400FEFDCF8091D8008F7D8093D800C0
:105980008091E1008F7E8093E1008091E2008F7E24
:105990008093E2008091E20081608093E200809138
:1059A000AD03882311F084E007C08091E30087FDF8
:1059B00002C081E001C083E08093B1030E94B1285E
:1059C0008091E10083FF29C08091E20083FF25C020
:1059D0008091E100877F8093E10082E08093B103B2
:1059E0001092AD038091E1008E7F8093E100809161
:1059F000E2008E7F8093E2008091E20080618093DC
:105A0000E20042E060E080E00E944B2B8091F000D9
:105A100088608093F0000E94AF28FF91EF91BF91C2
:105A2000AF919F918F917F916F915F914F913F9136
:105A30002F910F900FBE0F901F9018951F920F92ED
:105A40000FB60F9211242F933F934F935F936F9351
:105A50007F938F939F93AF93BF93CF93DF93EF93F6
:105A6000FF93C091E900CF708091EC00D82FD170E6
:105A700080FDD0E81092E9008091F000877F80934C
:105A8000F00078940E94622D1092E9008091F0005D
:105A900088608093F000CD2BCF70C093E900FF9118
:105AA000EF91DF91CF91BF91AF919F918F917F91B6
:105AB0006F915F914F913F912F910F900FBE0F907B
:105AC0001F9018951F93CF93DF93CDB7DEB7AA979A
:105AD0000FB6F894DEBF0FBECDBFE2EBF3E088E077
