:100000000C943C060C9459060C9459060C94590611
:100010000C9459060C9459060C9459060C945906E4
:100020000C9459060C9459060C94102E0C94E22E44
:100030000C9453240C9459060C9459060C945906AC
:100040000C9459060C9459060C9459060C945906B4
:100050000C9459060C94BB240C9459060C94590624
:100060000C9459060C9459060C9459060C94590694
:100070000C9459060C9459060C9459060C94590684
:100080000C9459060C9459060C9459060C94590674
:100090000C9459060C9459060C9459060C94590664
:1000A0000C9459060C9459060C945906EB06EE066E
:1000B000F106F406F706F906FC061A091F092909D4
:1000C0001D09220927092509E709E909F409EB09AE
:1000D000ED09EF09F109F309F609F809FA09050A2A
:1000E000FC09FE09000A020A040A070AF219F219B9
:1000F0002C1A2C1A611A811AEE1B4D1CC31A4D1CA6
:10010000731B731BE61B4D1C4D1C481C801B801B66
:10011000801B801B801B801B801B801B801B801B07
:10012000801B801B801B801B801B801B921B9F1BC6
:10013000A61BAD1BB71BDC1CDC1CEE1CEE1CE51C5F
:10014000EE1CEE1CEE1CDC1CDC1CEA1CEE1CEE1C87
:10015000EA1C4F2F762F6830762F6830C22FE52F9C
:1001600068303B304A3007634236B79BD8A71A390C
:10017000685618AEBAAB558C1D3CB7CC5763BD6DF5
:10018000EDFD753EF6177231BF000000803F05A8F7
:100190004CCDB2D44EB93836A9020C50B9918688EC
:1001A000083CA6AAAA2ABE000000803F6572676FBD
:1001B000646F785F657A2F666261383130613237FB
:1001C0003936303165323734303561204020302EB9
:1001D000352E3236342D362D67376339643561005C
:1001E0006572676F646F785F657A2F666261383118
:1001F000306132373936303165323734303561204D
:100200004020302E352E3236342D362D6737633967
:10021000643561000000F0A13900010029000100EF
:10022000010000001E00140004621D4601000100D0
:100230001F001A0016641B4901002A002000084311
:100240000768064801002C42210015000961194782
:1002500001000100220017000A0005000000AC00A8
:100260000100010000004A0000000100010001003F
:1002700000004D000000010023001C000B001100D5
:100280000000AB00240018000D6110000100010007
:1002900025000C440E682D0001002841260012455F
:1002A0000F64340001004C002700130033622F005C
:1002B00001000100010001002B0001003D040000CD
:1002C0000100010001000100010000000100010027
:1002D000E10001000100010001000100F200010045
:1002E000010001000100F000F10001000100E00048
:1002F00001000100F3000100010001000100010004
:100300000100010000000100105001000000E200A7
:1003100000000100010001000000010000000100D8
:100320000100010001000100000001000100FA00CD
:10033000F400FB00A900010001000100F50001002C
:10034000010001000100F9000100FC000100F600BD
:1003500001000100F600FD000100010001000100A4
:10036000FF00010001000000010001000100010088
:100370000100000001000100E10001000100010096
:1003800001000100E2000100010001000100010084
:10039000E30001000100010001000100E000010094
:1003A0000100010001000100010001000000010046
:1003B0000100010000000100000001000100010037
:1003C0000000010000000100010001004A000100DE
:1003D000000001000100FA005000FB0001000100D4
:1003E0000100520051000100010001000100F9006C
:1003F0004F00FC0001000100010001004D00010060
:1004000001000100010001000100010001000000E5
:1004100001000100010001000100000001000100D5
:100420000100010001000100010001005000010075
:1004300001000100010001000100010001002C0089
:10044000010001004F000100010001000100010056
:100450000100010000000100010001000000010096
:100460000000010001000100000001000000010087
:10047000010064142302640000000100010025143F
:10048000250238000100010001002614260227027F
:10049000010028000100241436026402010001005A
:1004A0000100271421022D140100010001000100A8
:1004B0000100010001000000010001000100010035
:1004C000010000000100301432022D020100010081
:1004D000010024021F021E0201000100010030027F
:1004E0003600380201002C000100370237003000CE
:1004F000010001000100220214143200000001007A
:1005000001000100000001000000010001000100E5
:1005100000000100000001000100010001000100D5
:100520000000010001000100500001000100010075
:10053000010001000100010001002800010001008C
:100540004F00010001000100010001000100010055
:100550000100010001000100010001000100000094
:10056000010001000100010001000000010035024E
:1005700037020100010001000100371438140100A6
:100580000100010001000814350001000100010014
:10059000010020022E020100010001000100010003
:1005A0000100010000000100010001000000010045
:1005B0000000010001000100000001000000010036
:1005C0000100010001000100000001000100010024
:1005D0000100010001000100010001000100010013
:1005E0000100010001000100010001000100010003
:1005F00001000100010001000100010001000100F3
:1006000001000100010000000100010001000100E3
:1006100001000000010001000100010001000100D3
:1006200001000100010001000100010001000100C2
:1006300001000100010001000100010001000100B2
:1006400001000100010001000100010000000100A3
:100650000100010000000100000001000100010094
:10066000000001000000010001003E010100010046
:100670000000010001004B03010001000100010026
:1006800001003001380101000100010001004E03AA
:100690000100010001000100010001000100010052
:1006A0000100010001000100010001000100000043
:1006B0000100010001000100010000000100010033
:1006C000E10001000100010001000100E200010061
:1006D0000100010001000100E300010001002C0005
:1006E00001000100E0000100010001000100010023
:1006F00001000100000001000100010000000100F4
:1007000000000100010001000000410100000100A3
:1007100001000100010001000000010001003A0099
:100720003E0042000100010001003B003F00430089
:100730000100280001003C004000440001000100CD
:1007400001003D00410045000100010001000100E1
:100750000100010001000000010001000100010092
:100760000100000001000100010001000100010082
:100770000100010001000100010001000100010071
:100780000100010001002C00010001000100010036
:100790000100010001000100010001000000010052
:1007A0000100010000000100000001000100010043
:1007B0000000010000000100010001000100010033
:1007C0000000010001005F005C0059000100010011
:1007D000010060005D005A0001006200010061003C
:1007E0005E005B00010001000100360063000100B3
:1007F00001000100010001000100010001000000F2
:1008000001000100010001000100000001000100E1
:1008100001000100010001000100010001000100D0
:1008200001000100010001000100010001000100C0
:1008300001000100010001000100010001000100B0
:1008400001000100000001000100010000000100A2
:100850000000010001000100000001000000010093
:1008600001000100010001000000010001003A0741
:100870003E0742070100010001003B073F07430715
:100880000100010001003C0740074407010001008E
:1008900001003D074107450701000100010001007B
:1008A0000100010001000000000000000000000045
:1008B0002A2B2800000000000000000000000000BB
:1008C00000000029000000002C1E342021222434C6
:1008D0002627252E362D3738271E1F202122232498
:1008E00025263333362E37381F0405060708090A34
:1008F0000B0C0D0E0F101112131415161718191AD0
:100900001B1C1D2F3130232D350405060708090A4D
:100910000B0C0D0E0F101112131415161718191AAF
:100920001B1C1D2F3130354C000000000000000062
:1009300000000000000000000000000000000000B7
:1009400000000000000000000001010101010100A1
:100950000101010100000000000000000000000093
:10096000000001000100010101010101010101017B
:100970000101010101010101010101010101010167
:100980000101010000000101000000000000000062
:100990000000000000000000000000000000000057
:1009A00000000001010101006801F000B4007800BE
:1009B0005A007F3F1F643214643214783C1E1E14A8
:1009C0000A0500000000000101010101010101010F
:1009D00002020202020202020203030303030303F0
:1009E00003040404040404050505050506060606BB
:1009F0000607070707080808080909090A0A0A0A72
:100A00000B0B0B0C0C0C0D0D0D0E0E0F0F0F101011
:100A10001111111212131314141515161617171895
:100A20001819191A1A1B1C1C1D1D1E1F1F202021FE
:100A300022222324252526272728292A2B2B2C2D43
:100A40002E2F2F30313233343536363738393A3B62
:100A50003C3D3E3F4041424344464748494A4B4C57
:100A60004D4F50515253555657585A5B5C5E5F601C
:100A70006263646667696A6C6D6E707173747678B0
:100A8000797B7C7E8081838486888A8B8D8F91920E
:100A90009496989A9B9D9FA1A3A5A7A9ABADAFB132
:100AA000B3B5B7B9BBBDBFC1C4C6C8CACCCFD1D31B
:100AB000D6D8DADCDFE1E4E6E8EBEDF0F2F5F7FAC0
:100AC000FCFF0403300000001603450072006700BD
:100AD0006F0044006F007800200045005A000000BD
:100AE00016034500720067006F0044006F00780035
:100AF000200045005A0000000403090409026D00AB
:100B0000040100A0FA090400000103010100092109
:100B1000110100012240000705810308000A0904B1
:100B200001000103010200092111010001224D0011
:100B30000705820308000A090402000103000000FF
:100B40000921110100012236000705830308000A6C
:100B50000904030001030000000921110100012222
:100B60003900070584032000011201100100000074
:100B700008EDFE071301000102030105010906A1AA
:100B800001050719E029E715002501950875018180
:100B90000205081901290595057501910295017550
:100BA0000391010507190029F71500250195F8752E
:100BB000018102C005010980A101850216010026FC
:100BC00003001A81002A8300751095018100C00579
:100BD0000C0901A1018503160100269C021A0100DF
:100BE0002A9C02751095018100C005010902A1012E
:100BF0000901A1000509190129051500250195051F
:100C000075018102950175038101050109300931E2
:100C10001581257F95027508810609381581257F84
:100C2000950175088106050C0A38021581257F9506
:100C30000175088106C0C005010906A10105071953
:100C4000E029E715002501950875018102950175D8
:100C5000088101050819012905950575019102957D
:100C600001750391010507190029FF150026FF00F2
:100C7000950675088100C00011241FBECFEFDAE091
:100C8000DEBFCDBF11E0A0E0B1E0EAEBF8E602C0C4
:100C900005900D92AC3DB107D9F723E0ACEDB1E082
:100CA00001C01D92AB3BB207E1F70E94352B0C94BB
:100CB0005B340C9400001092B9008AE08093B80075
:100CC000089594EA9093BC009091BC0097FFFCCFEC
:100CD0009091B900987F983021F0903111F081E027
:100CE00008958093BB0084E88093BC008091BC0091
:100CF00087FFFCCF8091B900887F883111F0803464
:100D000071F780E0089584E98093BC008091BC0075
:100D100084FDFCCF08958093BB0084E88093BC00E1
:100D20008091BC0087FFFCCF9091B900987F81E053
:100D3000983209F480E0089584E88093BC008091A3
:100D4000BC0087FFFCCF8091BB00089580B38C70FE
:100D500080BB81B3836F81BB089584B1807F84B9E8
:100D600085B1807F85B98AB1837F8AB98BB1837F52
:100D70008BB93E9846980895CF93E82F873008F5B1
:100D80008091000181113AC0CE2F80E40E9461065B
:100D900080930001811112C082E10E948B06809332
:100DA000000181110BC081E090E001C0880FCA955D
:100DB000EAF780950E948B0680930001CF910C94F6
:100DC000830690E0FC013797E730F105B8F4EA5A62
:100DD000FF4F0C940D34209A289810C0219A29981E
:100DE0000DC0229A2A980AC0239A2B9807C0529ABB
:100DF00001C0539A5B9802C03E9A4698CF910895DD
:100E0000CF93873018F580910001811128C080E4CC
:100E10000E94610680930001882311F0C0E012C097
:100E200083E10E948B06809300018111F7CF81E45A
:100E30000E946106809300018111F0CF0E949C0600
:100E4000C82FC0950E9483068C2F0AC09FB18FB116
:100E5000807F869586959370892B809501C080E070
:100E6000CF91089508950C9432070E947F088093D3
:100E700000010E94AD060E94A6062DED31E0E1E3DF
:100E8000F2E04EE04E0F119280E090E0D901A80F01
:100E9000B91F1C92019686309105C1F72A5F3F4F1A
:100EA0004E13F1CF0C94590C0E947F0880930001DF
:100EB0000E94AD060E94A606E1E3F2E08EE08E0FEE
:100EC00011928E13FDCF089526E0829FC001112458
:100ED000FC01E352FE4F20E030E080E041E050E0D2
:100EE0009081992319F09150908307C0BA01022E86
:100EF00001C0660F0A94EAF7862B2F5F3F4F3196A9
:100F00002630310569F7089596E0699FB0011124F4
:100F100020E030E090E04FE0FC01022E02C0F595A9
:100F2000E7950A94E2F7E0FF06C0F901E60FF71F24
:100F3000E352FE4F40832F5F3F4F2630310561F76C
:100F40000895CF92DF92EF92FF920F931F93CF936A
:100F5000DF9380910001882379F08091DC018F5F1D
:100F60008093DC01811108C00E947F0880930001FA
:100F7000811102C00E94110881E3C82E82E0D82EA0
:100F800098E3E92E92E0F92EC0E08C2F0E94BC0677
:100F900007E00C0F802F0E94BC068C2F0E94640774
:100FA000182F8C2F0E940007F6019081D12FD09529
:100FB000D9238123D82B6C2F8D2F89270E9484075A
:100FC000F601D1936F01802F0E946407182F802FA4
:100FD0000E940007F7019081D12FD095D92381235A
:100FE000D82B602F8D2F89270E948407F701D1937A
:100FF0007F010E94AD06CF5FC73039F60E945B0CBF
:1010000081E0DF91CF911F910F91FF90EF90DF90E2
:10101000CF900895E82FF0E0EF5CFD4F80810895B8
:10102000089556985E9825982D9826982E9827987A
:101030002F988FEF90E09093890080938800909391
:101040008B0080938A0090938D0080938C00259A6A
:101050002D9A2FEF80E792E0215080409040E1F7F9
:1010600000C00000269A2E9A2FEF80E792E02150D0
:1010700080409040E1F700C00000279A2F9A2FEFA0
:1010800080E792E0215080409040E1F700C00000EE
:1010900025982D982FEF80E792E0215080409040D6
:1010A000E1F700C0000026982E982FEF80E792E02D
:1010B000215080409040E1F700C0000027982F9811
:1010C00056985E9825982D9826982E9827982F98B0
:1010D000089589EA8093800089E0809381002498B4
:1010E0002C983F988AB18F7C8AB96E98479A8BB1B9
:1010F00080638BB9769A0E9411080C94DB0880E219
:101100008093000180913F0281110EC00E945B0616
:1011100081E080933F022FEF83ED90E321508040E8
:101120009040E1F700C0000080E40E9461068093D7
:10113000000181112EC00E948B0680930001811155
:1011400028C00E948B0680930001811122C08FE38A
:101150000E948B068093000181111BC00E948306B0
:1011600080E40E94610680930001811112C08CE02E
:101170000E948B068093000181110BC00E948B0698
:1011800080930001811105C08FE30E948B0680933C
:1011900000010E948306809100010895611108C03A
:1011A000FC018281882321F080EE91E00E94560CA0
:1011B00080E090E008950895FB01843D2CE59207BE
:1011C00069F0853D2CE5920789F0833D9C45B1F49B
:1011D00082818823A1F00E9455230EC0828188233A
:1011E00071F08CEA91E00E94560C06C0828188233F
:1011F00031F081E00E949C1280E0089581E0089522
:10120000CF92DF92EF92FF926B017C010E94052347
:1012100056985E9825982D9826982E9827982F985E
:1012200090E0FC013197E730F105A8F4E35AFF4F55
:101230000C940D34259A2D9A0EC0259A2D9A269A33
:101240002E9A09C0259A2D9A04C0259A2D9A269A7D
:101250002E9A279A2F9AC701B601FF90EF90DF9040
:10126000CF90089581E008950C94DC080E94CA1C78
:101270002FEF84E39CE0215080409040E1F700C0D4
:1012800000000C94E124FF920F931F93CF93DF9300
:101290008C01FC01C081D18180919102811113C028
:1012A0008281882349F0CE010E94FB21F82E682F0D
:1012B000CE010E949E2104C0CE010E94CE21F82EB4
:1012C000BE018F2D04C0CE010E94FB21BE010E94F1
:1012D000710CEC01B8010E943409882309F486C21C
:1012E000B801CE010E94E40E882309F47FC2B80140
:1012F000CE010E94330F882309F478C2C23CFCE57A
:10130000DF0741F4F8018281882309F46FC20E944B
:1013100082126CC2C33C8CE5D80708F015C1CB3BE8
:101320009CE5D90761F4F8018281882309F45EC243
:101330000E94CC228272E1F00E94211357C2CC3B62
:10134000ECE5DE07C0F0CE3B9CE5D90709F4CDC043
:1013500008F0DFC0CC3BFCE5DF0709F0CEC0F801A8
:101360008281882309F442C20E94CC22827221F336
:101370000E9417133BC2C531FCE5DF0708F07EC0B1
:10138000C2308CE5D80708F452C0F8018281882366
:1013900009F459C00E947623811102C00E9455238E
:1013A0000E94892390E09093AD038093AC03FE01EB
:1013B000E350FC45E231F10530F4EC59FF4F8091E8
:1013C000AC030C940D348091AC03816027C0826023
:1013D00025C0846023C0806121C080621FC08064FA
:1013E0001DC080681BC08460886018C08E7F16C0D6
:1013F0008D7F14C08B7F12C08F7E10C08F7D0EC07A
:101400008F7B0CC08F770AC08B7F877F07C087FBDD
:10141000222720F991E0922790FB87F98093AC0373
:101420008091AC030E948D230E94CA1CDFC1C115AC
:101430009CE5D90781F0C130DC45A9F081E08093BB
:10144000450280934602C801DF91CF911F910F9111
:10145000FF900C943209F8018281882309F4C6C1F7
:101460000E943609C3C1F8018281882309F4BEC1F4
:1014700080913003816080933003B8C1C531FCE5B1
:10148000DF0739F50E94CC22282FF8018281409194
:10149000030150910401882379F02A7A91E009F43C
:1014A00090E090934002911102C069E201C065E3AF
:1014B000CA010E94EE230AC080914002811102C03D
:1014C00069E201C065E3CA010E94F9230E949922E2
:1014D0008DC1CA3BDC4509F0B1CFF8018281882378
:1014E00009F484C10E945E1381C1F80182818823BE
:1014F00009F47CC10E94241279C1CD3BDC4509F07E
:101500009DCFF8018281882309F470C10E940C12DA
:101510006DC1F8018281C03CFCE5DF0731F488230E
:1015200009F464C10E94551261C1C13CDC4530F42C
:10153000882309F45BC10E94431258C1882309F42F
:1015400055C10E94671252C1C93CECE5DE0749F45F
:10155000F8018281882309F449C188E10E949C1224
:1015600045C1CA3CFCE5DF0708F088C0C53C8CE5F6
:10157000D807B1F4F8018281882309F437C10E94A9
:10158000DD10663071058105910540F00E94DD1087
:10159000683071058105910508F4EACE86E0DECF5A
:1015A000C63C9CE5D90728F5C33CECE5DE0739F4D9
:1015B000F8018281882309F419C181E0CFCFC43CAE
:1015C000DC4509F03BCFF8018281882309F40EC184
:1015D0000E94DD10623071058105910540F00E9486
:1015E000DD10653071058105910508F4C1CE82E0FA
:1015F000B5CFF8018281C73CFCE5DF07A1F4882361
:1016000009F4F4C00E94DD106F3071058105910569
:1016100040F00E94DD10643171058105910508F4E8
:10162000A7CE8FE09BCFC83CDC45A0F4882309F40B
:10163000DDC00E94DD10693071058105910540F023
:101640000E94DD106E3071058105910508F490CE81
:1016500089E084CF882309F4C9C00E94DD10653178
:1016600071058105910540F00E94DD10673171051B
:101670008105910508F47CCE85E170CFCC3CECE58A
:10168000DE0781F5F8018281882361F0109246021D
:101690000E948524909344028093430280E20E943A
:1016A000A719A4C00E94CC2281FF05C081E08093CD
:1016B0004502809346028091460281110FC08091BD
:1016C0004302909144020E949124883C910530F499
:1016D00087E20E94391887E20E94481980E20E943E
:1016E000AE1984C0CD3CFCE5DF0708F04AC0CA3C17
:1016F0008CE5D807B1F4F8018281882309F476C01B
:101700000E94DD10693171058105910540F00E944C
:10171000DD10623271058105910508F429CE89E159
:101720001DCFCB3CDC4509F089CEF80182818823AE
:1017300051F0109245020E948524909342028093BA
:10174000410282E0ACCF0E94CC2285FF05C081E03F
:1017500080934502809346028091450281110FC01B
:1017600080914102909142020E949124883C91050F
:1017700030F486E20E94391886E20E94481982E01D
:10178000AECFC03DECE5DE0731F4F801828188235D
:1017900069F180E009C0C13DFCE5DF0741F4F801D3
:1017A0008281882319F182E00E94D32B1FC0CD3C97
:1017B000DC4509F043CEF8018281811167CF809129
:1017C000460281118BCF80914302909144020E9486
:1017D0009124883C910508F081CF80E20E94AE19E7
:1017E00088E20E94391888E20E94481980E0DF915F
:1017F000CF911F910F91FF900895CF93282F30E044
:10180000F901E855F74FC491F901E85DF64F2491CD
:10181000222359F081EE0E9439188C2F0E9439182A
:101820008C2F0E94481981EE04C08C2F0E94391819
:101830008C2FCF910C9448190F931F93CF93DF9364
:10184000EC01062FFE018491882359F19E012F5F40
:101850003F4F813041F4E901F9011491812F0E9439
:101860003918812F0DC0823031F4E901F9018491DA
:101870000E9439180AC0833031F4E901F9018491DA
:101880000E94481902C00E94FD0B2196802F8823D8
:10189000C9F2EFE9FFE03197F1F700C00000815095
:1018A000F6CFDF91CF911F910F91089560E00C94D6
:1018B0001C0C0C9469080C943307282F2F7041F0EE
:1018C000822F90E02A3010F44D96089506970895DF
:1018D00087E290E0089508950C946B0C0C946C0CC6
:1018E000089596E0799FF001112494E5899FE00D19
:1018F000F11D1124E60FF11DEE0FFF1FE85EFD4FF5
:10190000859194910895880F991FFC01EC5EFD4F1D
:10191000859194910895CF93DF930E94710C0E945A
:101920003A0EEC01811520E59207F0F5811530E4BF
:10193000930708F021C1883E910500F5803E91058E
:1019400008F094C1883A910570F4853A910508F041
:10195000A3C08130910509F489C108F440C10497FE
:1019600008F084C13CC18D3B910508F4A0C0803CC7
:10197000910508F434C1805C9109F0C08115904252
:1019800058F4C11581E0D80708F070C1C03FD105F7
:1019900008F425C1D0656AC1C11590E3D90708F0E4
:1019A000E1C0CE019F70DAC0811525E5920708F0ED
:1019B00043C0811534E5930708F0F5C0811542E571
:1019C000940708F5C11581E5D80708F0D8C02C2F79
:1019D000237081E090E002C0880F991F2A95E2F7FA
:1019E0009C689E0174E0369527957A95E1F72370FF
:1019F000922BCF70C695C69540E2C49FE00111249A
:101A0000C82BD92B33C1869586959E012370332729
:101A1000C115D34508F0B8C040E2849FC00111242D
:101A2000C1E0D0E002C0CC0FDD1F2A95E2F78C2B7D
:101A30009D2BEC01DC681AC181152AE5920798F408
:101A4000811539E5930708F0B9C08115964508F46A
:101A5000AFC0C11588E5D80708F4C1C0DC2FCC277A
:101A6000C06FD06A03C1C1159BE5D90708F4B7C0A0
:101A7000C1152CE5D20708F4AFC0CE0190568115F0
:101A8000904208F0ACC08D2F8F710E94B70EDD27F9
:101A9000D0628F71D82BEAC0853A910509F4A2C0B3
:101AA000863A910509F0A1C0C2E8D0E4DFC0883AC7
:101AB000910509F49DC0893A910509F49CC08A3AC0
:101AC000910509F49BC08B3A910509F49AC08C3AB0
:101AD000910509F499C08B3B910509F498C08C3BA2
:101AE000910509F497C08D3A910509F496C0803BA1
:101AF000910509F495C08E3A910509F494C08F3A86
:101B0000910509F493C0813B910509F492C0823B91
:101B1000910509F491C0833B910509F490C0843B81
:101B2000910509F48FC0853B910509F48EC0863B71
:101B3000910509F48DC0873B910509F48CC0883B61
:101B4000910509F48BC0893B910509F48AC08A3B51
:101B5000910509F489C0C0E0D4E488C00E94830CD8
:101B6000EC0184C0CE019927D3FF03C0EC01D86CEF
:101B70007DC0EC01D06C7AC0DF70D06A77C0DC2FFA
:101B8000CC27C16FD06A72C040E2849FC00111248B
:101B9000C1E0D0E002C0CC0FDD1F2A95E2F7C82BD0
:101BA000D92BDA6863C0D82FCC27C46FD06A5EC047
:101BB000CF71DD27DC2FCC27D06258C08F70806EAC
:101BC00090E0906A24E0D695C7952A95E1F7CF700A
:101BD0009C013C2BE9014AC0DD27D06647C0C0E02C
:101BE000D0E044C0C1E8D0E441C0C3E8D0E43EC086
:101BF000C2EED4E43BC0C9EED4E438C0CAEED4E4AB
:101C000035C0C5EBD4E432C0C6EBD4E42FC0C3EB7F
:101C1000D4E42CC0C4EBD4E429C0C7EBD4E426C080
:101C2000CCECD4E423C0CDECD4E420C0C3E8D5E4AC
:101C30001DC0CAE8D5E41AC0C2E9D5E417C0C4E99A
:101C4000D5E414C0C1E2D6E411C0C3E2D6E40EC0AC
:101C5000C4E2D6E40BC0C5E2D6E408C0C6E2D6E4CE
:101C600005C0C7E2D6E402C0CAE2D6E4CE01DF91E5
:101C7000CF9108958238910549F1B0F481339105EF
:101C800009F458C048F48932910509F44EC08A32EB
:101C9000910509F454C008958533910509F440C0B5
:101CA0008933910599F00895833E910529F138F41F
:101CB000803E910591F0823E9105A1F00895863E07
:101CC0009105F9F0873E910531F108952091AC031B
:101CD00020FD3AC021FD38C008958091AC0380FDFD
:101CE00035C032C08091AC0382FF32C08091AC031A
:101CF00084FD30C083EE39C08091AC0382FD28C0E2
:101D0000F5CF8091AC0383FF27C08091AC0384FDA5
:101D100021C087EE2AC08091AC0383FD1DC0F5CFA2
:101D20008091AC0385FD1AC01BC08091AC0385FD7A
:101D300017C014C08091AC0386FD14C015C08091FB
:101D4000AC0386FD11C00EC080EE0FC089E30DC04C
:101D500082EE0BC080E009C086EE07C089E205C0B4
:101D600085E303C08AE201C081E390E00895CF9348
:101D7000C82F0E94892390E09093AD038093AC0319
:101D800082FF0DC09C2F9871983019F4C77FC460F2
:101D900006C09C2F9471943011F4CB7FC86083FFF0
:101DA0000DC09C2F9871983119F4C77EC46106C08C
:101DB0009C2F9471943111F4CB7EC86184FDC77E51
:101DC0008C2FCF91089508950F931F93CF93FB010C
:101DD0002281211102C0C1E041C08C01C091540296
:101DE000C11125C086319C45B1F70E94E30E81E008
:101DF000809354020E948524909353028093520250
:101E000010924702109249021092480210924B021F
:101E100010924A0210924D0210924C0210924F0200
:101E200010924E02109251021092500217C08091EF
:101E30005202909153020E949124883C910558F6D9
:101E400090914702E92FF0E0EE0FFF1FE85BFD4F96
:101E5000118300839F5F90934702C0E08C2FCF9146
:101E60001F910F910895CF93DF93813020E892075F
:101E7000D0F0FB0122812223B1F0EC0180915502C8
:101E8000811109C08CE090E00E9413340E94570F2A
:101E900081E0809355020E945E0FCE019F770E94E1
:101EA00026100E94DA0F81E0DF91CF910895809390
:101EB0005602682F8CE090E00C942734E0910301E7
:101EC000F091040180818093610381FF03C081EE62
:101ED0000E9448198091610385FF03C085EE0E942E
:101EE00048198091610380FF03C080EE0E94481969
:101EF0008091610384FF03C084EE0E9448198091A1
:101F0000610382FF03C082EE0E9448198091610341
:101F100086FF03C086EE0E9448198091610383FF0B
:101F200003C083EE0E9448198091610387FF03C0BC
:101F300087EE0E94481980915602823001F1A8F480
:101F40008823C9F0813079F580EE0E94391881EE3E
:101F50000E94391888E10E94391888E10E944819C6
:101F600081EE0E94481980EE1CC0843081F08530DB
:101F7000D1F486EE01C082EE0E94391814C082EEC0
:101F80000E94391887E50E94391887E50AC086EE55
:101F90000E94391886EE0E94481988E10E9439187B
:101FA00088E10E9448198FE39CE90197F1F700C08E
:101FB0000000089580915602813049F030F082305F
:101FC00021F0853051F486EE06C082EE04C08CE22A
:101FD0000E9439188CE20E9448198091610381FFA8
:101FE00003C081EE0E9439188091610385FF03C010
:101FF00085EE0E9439188091610380FF03C080EE56
:102000000E9439188091610384FF03C084EE0E940E
:1020100039188091610382FF03C082EE0E94391853
:102020008091610386FF03C086EE0E94391880917B
:10203000610383FF03C083EE0E943918809161031E
:1020400087FF03C087EE0C9439180895EF92FF9232
:102050001F93CF93DF937C01CCE0D0E097010C2E4F
:1020600002C0369527950A94E2F7122F1F70812F30
:102070000E945D0C0E943918812F0E945D0C0E9405
:1020800048192497CC3F8FEFD80741F7DF91CF91C4
:102090001F91FF90EF900895EF92FF920F931F937F
:1020A000CF93DF93E901662309F44BC0242F30E07E
:1020B000EFEFF0E0E61BF109B901E69F9001E79F21
:1020C000300DF69F300D1124232F8B01031B1109B6
:1020D0005CE3E52EF12CB7010E94E533FB01BC0166
:1020E000069FC001079F900D169F900D1124B70108
:1020F0000E94E533E230F105B1F040F4309779F019
:10210000319711F5832F242F461B21C0E430F105B0
:10211000A1F068F03597C1F4842F861B18C0832F77
:10212000262F230F14C0862F830FE42F03C0E42F24
:10213000E61B842F432F2E2F0AC0842F462F430FD8
:1021400006C0842F242F03C080E020E040E0E42F6D
:10215000F0E0EE53F64F4491E22FF0E0EE53F64FED
:102160009491E82FF0E0EE53F64FE4914983988381
:10217000EA83DF91CF911F910F91FF90EF90089527
:1021800088E090E00C941B34AB01BC0188E090E047
:102190000C943934E2E6F3E083E080831092630329
:1021A0008FEF8283838360916203709163038091D8
:1021B0006403909165030C94C4106091620360FF06
:1021C00006C066956F7370E080E090E0089560E06F
:1021D00070E0CB0108958091620380FF06C06FE03C
:1021E00070E08AE693E00C94641680E090E0FC01D5
:1021F000E659FC4F11821082128204968C339105AD
:10220000B1F7EDCF9091620390FF0FC020E030E076
:10221000F901E659FC4F8183608342832C5F3F4F75
:102220002C333105A9F70C94EB100895EF92FF922F
:102230000F931F93CF93DF9300D000D0CDB7DEB7BD
:102240000091620310916303209164033091650350
:102250000093660310936703209368033093690328
:102260002091620320FF21C0042FF62EE92E182FA3
:102270009E012F5F3F4F0E944C108091660310FB20
:1022800087F9809366031695809167038078182BF1
:10229000E0FA17F910936703F0926803009369035B
:1022A0004B8169818A810E9402110F900F900F90DB
:1022B0000F90DF91CF911F910F91FF90EF900895B4
:1022C0008F929F92AF92BF92CF92DF92EF92FF9246
:1022D0000F931F93CF93DF93EC01062F142F809160
:1022E000620380FF8CC0982F9E77923021F4CE013C
:1022F0000E9416115AC0E82FE695EF739EE39E0FD9
:102300009F73943018F4109165034FC09AE39E0FA9
:102310009F73993070F4881F8827881F90916303FA
:10232000292F220FC22FC82B97FB992790F9D92F5D
:102330003CC087E28E0F8F738A30B8F5F0E0799752
:10234000E0FD02C021E001C02FEFEE7FE855F64F1F
:10235000859194916FE070E00E94E533260360015F
:10236000279FD00C11244E0188E9881A8EEF980A15
:102370008AE6E82E83E0F82E98E6A92EBB24B394D3
:10238000C401B5010E94E5339701412F602F0E94DF
:102390004C108C0C9D1C94E0E90EF11C86EAE816AA
:1023A00083E0F80669F70E94EB10809162039C2F8E
:1023B000C0FB87F9809362039695809163038078D0
:1023C000892BD0FB87F980936303009364031093F8
:1023D000650360916203709163038091640390913F
:1023E0006503DF91CF911F910F91FF90EF90DF90E8
:1023F000CF90BF90AF909F908F900C94C410DF91BE
:10240000CF911F910F91FF90EF90DF90CF90BF90F1
:10241000AF909F908F900895E2E6F3E02081221F15
:102420002227221F30916303432F440F842F822BD6
:1024300037FB992790F90C9668E671E00E94F93312
:10244000438162810C94601120916203221F222734
:10245000221F30916303432F440F842F822B37FBBD
:10246000992790F98C3091051CF4845A9E4F01C035
:102470000C9768E671E00E94F93340916503609122
:1024800064030C946011E2E6F3E08081881F8827E2
:10249000881F90916303292F220F97FB992790F9AA
:1024A00043816FEF822B0C946011E2E6F3E08081B0
:1024B000881F8827881F90916303292F220F97FB7D
:1024C000992790F9438160E0822B0C946011409130
:1024D0006503842F90E0843F910514F4445F01C0AC
:1024E0004FEF80916203881F8827881F90916303B4
:1024F000292F220F97FB992790F960916403822B73
:102500000C94601140916503842F90E00C9714F0B7
:102510004C5001C040E080916203881F8827881FCB
:1025200090916303292F220F97FB992790F96091CF
:102530006403822B0C9460119091620390FF42C05F
:102540009178811102C0926007C0833210F09464C8
:1025500003C08F73880F982B90936203609162037E
:102560007091630380916403909165030E94C4108D
:1025700080916203982F9E77923019F410926C022A
:1025800010C0982F96959F732EE3290F2F73273134
:1025900020F491E090936C0204C0995D9F739A308F
:1025A00068F3881F8827881F90916303292F220FC3
:1025B00097FB992790F94091650360916403822B02
:1025C0000C946011089580913003816080933003F2
:1025D00081E080936D020E947623811104C00E94E5
:1025E00055230E94CA100E94C0106093620370932A
:1025F000630380936403909365036E7761F40E9494
:10260000CA100E94C01060936203709363038093AA
:1026100064039093650381E080936C028091620370
:1026200080FF04C086958F730C949C12089580914E
:10263000620386958F738F5F833208F081E00C947C
:102640009C128091620386958F73815009F482E217
:102650000C949C12CF93DF93C2E6D3E08881816013
:102660008883609162037091630380916403909109
:1026700065030E94C410888186958F73DF91CF9186
:102680000C949C12E2E6F3E080818E7F808360915F
:1026900062037091630380916403909165030E94CB
:1026A000C41010926C022FEF80E792E0215080401E
:1026B0009040E1F700C000000C94EB1080916203A1
:1026C00080FD0C9442130C942A13CF93C82F809151
:1026D0006A0290916B020E949124EC2FF0E0E25488
:1026E000F64FE491F0E08E179F0708F443C00E9474
:1026F000852490936B0280936A026091690270E076
:1027000080E090E00E94E63120E030E04FE753E4C3
:102710000E9409312BED3FE049E450E40E940F3361
:102720000E947C330E9483312BE43AE34EE25FE364
:102730000E949C3020EF3BEF48ED52E40E940F33A3
:102740000E94B531462F80916203881F8827881F19
:1027500090916303292F220F97FB992790F960919D
:102760006403822B0E9416118091690290E0019609
:1027700080936902CF910895CF93C82F809167020B
:10278000909168020E949124EC2FF0E0E554F64FFE
:10279000E491F0E08E179F07E8F00E948524909363
:1027A00068028093670240916503609164038091A1
:1027B0006502909166020E941611809165029091C7
:1027C0006602019668E671E00E94E5339093660226
:1027D00080936502CF910895CF92DF92FF920F937D
:1027E0001F93CF93DF93F82E809163029091640240
:1027F0000E949124EF2DE695F0E0E854F64FE49125
:10280000F0E08E179F07E8F10E9485249093640200
:10281000809363020AE613E0C0E0D0E088E6C82EA9
:10282000DD24D39480916102909162028C0F9D1FF0
:10283000B6010E94E53398014091650360916403FD
:102840000E944C1068960C5F1F4FC83681E0D80775
:1028500049F70E94EB102091610230916202F0FE74
:102860000AC0C9010196BE010E94E533909362023D
:102870008093610206C02150310930936202209397
:102880006102DF91CF911F910F91FF90DF90CF9068
:102890000895AF92BF92CF92DF92EF92FF920F9383
:1028A0001F93CF93DF93C82F80FF02C01FEF01C09B
:1028B00011E080915F02909160020E949124C69580
:1028C000EC2FF0E0EB54F64FE491F0E08E179F0709
:1028D00008F466C00E9485249093600280935F0292
:1028E0002AE6C22E23E0D22E3CE6E32E33E0F32E7E
:1028F000C0E0D0E0F70131971082F6011082F701B5
:10290000108294E0A92EB12C00E080915E02800F2D
:1029100087FD815F082E000C990BC817D907E9F4D1
:10292000809165038A9DA0018B9D500D11245595C2
:1029300047955595479580916203881F8827881F82
:1029400090916303592F550F97FB992790F99601A2
:1029500060916403852B0E944C10010FF1E0AF1AC7
:10296000B10899F6219684E0C80ED11CE4E0EE0E81
:10297000F11CCF30D10509F0BDCF0E94EB10809142
:102980005E02113031F4811102C08EE007C0815027
:1029900005C090E00196BE010E94F93380935E026B
:1029A000DF91CF911F910F91FF90EF90DF90CF902B
:1029B000BF90AF9008950F931F93CF93DF93C82FCD
:1029C00080915C0290915D020E949124EC2FF0E0D6
:1029D000EE54F64FE491F0E08E179F0708F464C0C0
:1029E0000E94852490935D0280935C0280E090E0D9
:1029F000FC01E659FC4F11821082128204968C333E
:102A00009105B1F7C0E0D0E00FE010E0CE01B801D1
:102A10000E94F933FC0180915B02082E000C990B97
:102A2000EE0FFF1FEE0FFF1FC817D907FCF08091B4
:102A30000201082E000C990B8C179D07BCF09F011A
:102A400026593C4F80916203881F8827881F9091E8
:102A50006303592F550F97FB992790F94091650310
:102A600060916403852B0E944C1005C0E659FC4F11
:102A70001182108212822196CF30D10539F60E9440
:102A8000EB108091010190915B02980F90935B0293
:102A900020910201280F20930201121614F49E3097
:102AA0001CF0819580930101DF91CF911F910F91CF
:102AB0000895EF92FF920F931F93CF93DF9380912E
:102AC000590290915A020E949124883E9340D0F17D
:102AD0000E94852490935A0280935902C091570214
:102AE000D09158022196C170DD27D0935802C0932F
:102AF00057028AE6E82E83E0F82E10E008E7812FDF
:102B00008695FE01E80FF11DCF018170992797018D
:102B10004091650360916403FC010E9FC0010F9F0B
:102B2000900D11240E944C101F5FF4E0EF0EF11C79
:102B30001F3029F7DF91CF911F910F91FF90EF90F8
:102B40000C94EB10DF91CF911F910F91FF90EF90BC
:102B5000089580916C02882391F190916203892FEE
:102B600086958F732EE3280F2F73243018F482502C
:102B70000C9465132AE3280F2F73233018F4865022
:102B80000C94BC1327E3280F2F73263018F48950B8
:102B90000C94EC1321E3280F2F73263018F48F5078
:102BA0000C9449142BE2280F2F73233018F485510D
:102BB0000C94DB149E77903311F40C9459150895FE
:102BC000882319F05198599A02C0519A59985098EF
:102BD000589A95E09A95F1F70000509A589895E028
:102BE0009A95F1F70000882311F0519A599885E0E1
:102BF0008A95F1F7000008958BB18C7F8BB95098BE
:102C0000589A5198599A85E08A95F1F700000895ED
:102C10008AB18C7F8AB985E08A95F1F70000519AD4
:102C2000599885E08A95F1F70000509A589885E008
:102C30008A95F1F7000008955098589A85E08A9592
:102C4000F1F700005198599A85E08A95F1F7000054
:102C50000895CF93DF93D82FC8E08D2F80780E94FE
:102C6000E015DD0FC150C9F780E00E94E01585E056
:102C70008A95F1F7000085E08A95F1F7000080E081
:102C8000DF91CF9108952BB1342F309523233BB1A1
:102C9000432B3FB7F894FC01680F791FE617F7073D
:102CA00089F0819198E04BB9000000C087FF2BB9F3
:102CB000880F000000C000C000C02BB900C09A956A
:102CC00091F7ECCF3FBF0895AF92BF92CF92DF92C2
:102CD000EF92FF920F931F93CF93DF938C01EB0141
:102CE000CFB6D090BC00F8948091BC008B7F8093CD
:102CF000BC000E94FC150E94081684E80E94291658
:102D0000CC0FDD1FCC0FDD1F78015801AC0EBD1EAE
:102D1000EA14FB0431F0F70181917F010E9429162A
:102D2000F7CF0E941C16CFBED092BC00579A40E845
:102D3000BE01C801DF91CF911F910F91FF90EF90DD
:102D4000DF90CF90BF90AF900C9443169093730296
:102D5000809372020895E0917202F09173023097AD
:102D600021F00190F081E02D099480E00895E09138
:102D70007202F0917302309721F00280F381E02D0E
:102D800009940895E0917202F0917302309721F056
:102D90000480F581E02D099408952091700230910E
:102DA00071028217930771F0909371028093700201
:102DB000E0917202F0917302309721F00680F78162
:102DC000E02D0994089520916E0230916F028217D0
:102DD000930771F090936F0280936E02E0917202FC
:102DE000F0917302309721F00084F185E02D099471
:102DF000089508950C94F91681E008950E947C24AA
:102E00000E9435070E9413250C94E312CF92DF92A3
:102E1000EF92FF920F931F93CF93DF93CDB7DEB75F
:102E20002B970FB6F894DEBF0FBECDBF0E94A1074F
:102E30000E94FC16811111C08FEF89838A831B8247
:102E40000E9485248160782F9D838C8349815A81DB
:102E50006B818D810E94EA1756C085E7C82E82E0FB
:102E6000D82E00E010E0E02E802F0E940A08F60124
:102E700041916F01F42EF82631F40F5F1F4F0E3091
:102E8000110589F7D9CF9091300391FF04C08B874A
:102E90000E9410088B8520E030E04F2D50E0922FEB
:102EA000BA01022E02C0759567950A94E2F760FF99
:102EB00024C02E83EF8221E030E0690102C0CC0CF7
:102EC000DD1C9A95E2F790E08C219D21892B09F475
:102ED00020E028870E9485248160782F9A8789873F
:102EE0004E815F8168858A850E94EA17F801EB5858
:102EF000FD4F8081C826C08206C02F5F3F4F26301D
:102F0000310569F6BACF0E94A626109174020E947C
:102F1000AB161817A1F00E94AB16809374022B9683
:102F20000FB6F894DEBF0FBECDBFDF91CF911F91DA
:102F30000F91FF90EF90DF90CF900C946E0C2B963A
:102F40000FB6F894DEBF0FBECDBFDF91CF911F91BA
:102F50000F91FF90EF90DF90CF900895DC011196D4
:102F60002C9111978C91682F70E041E050E001C0E6
:102F7000440F8A95EAF712968C91129730E08823D5
:102F800029F0809193028823E9F006C0F901ED57FA
:102F9000FD4F90819423B1F086E0829FF001839FE2
:102FA000F00D1124E60FF71FEE0FFF1FEB5EFE4F33
:102FB000808191818D939C93F901ED57FD4F808124
:102FC000482B06C0F901ED57FD4F409580814823FD
:102FD00040830895CF93DF93CDB7DEB72B970FB61D
:102FE000F894DEBF0FBECDBF942F4F83252F588797
:102FF00069877A878B874A855B85452B21F02F3F30
:1030000009F59F3FF9F4DE01119686E0FD0111926A
:103010008A95E9F785E0FE01379601900D928A9531
:10302000E1F749815A816B817C818D819E810E946B
:10303000711F2B960FB6F894DEBF0FBECDBFDF9188
:10304000CF910895CE0107960E94AE17DCCFFC0108
:10305000808191810E943A2292959F70963041F42E
:103060008091930291E0892780939302909392023A
:103070000895CF93DF931F92CDB7DEB7882309F46D
:1030800003C1682F8238C1F40E94AB1681FDFCC0D9
:1030900069E380910301909104010E94EE230E9454
:1030A00099222FEF81EE94E0215080409040E1F78B
:1030B00000C0000069E319C0833811F50E94AB1607
:1030C00080FDE2C063E580910301909104010E94BC
:1030D000EE230E9499222FEF81EE94E02150804050
:1030E0009040E1F700C0000063E5809103019091FA
:1030F00004010E94F9230F90DF91CF910C94992243
:103100008438C1F40E94AB1682FDBEC067E4809192
:103110000301909104010E94EE230E9499222FEF57
:1031200081EE94E0215080409040E1F700C0000023
:1031300067E4DBCF8CEF860F813A70F4862F6983CA
:103140000E94CF28698181119FC0809103019091D5
:1031500004010E94EE23CFCF80E2860F883048F42E
:10316000677081E001C0880F6A95EAF70E94CF225C
:10317000C2CF8BE5860F833088F4653A29F0663A32
:1031800031F083E890E005C081E890E002C082E879
:1031900090E00F90DF91CF910C94CD1688E5860FCB
:1031A000853108F071C0683A61F1693A69F16A3AAB
:1031B00071F16B3A79F16C3A81F16B3B89F16C3BBF
:1031C00091F16D3A99F1603BA1F16E3AA9F16F3A34
:1031D000B1F1613BB9F1623BC1F1633BC9F1643BC1
:1031E000D1F1653BD9F1663BE1F1673BE9F1683B21
:1031F000F1F1693BF9F16A3B09F43FC080E090E0EE
:103200003EC082EE90E03BC089EE90E038C08AEE8E
:1032100090E035C085EB90E032C086EB90E02FC0A7
:1032200083EB90E02CC084EB90E029C087EB90E02A
:1032300026C08CEC90E023C08DEC90E020C083E8A9
:1032400091E01DC08AE891E01AC082E991E017C0C0
:1032500084E991E014C081E292E011C083E292E03F
:103260000EC084E292E00BC085E292E008C086E2E4
:1032700092E005C087E292E002C08AE292E00F90FD
:10328000DF91CF910C94E3160F90DF91CF910895C9
:10329000882309F45BC0682F823879F40E94AB164A
:1032A00081FF54C069E380910301909104010E9461
:1032B000EE230E94992269E310C08338B1F40E9482
:1032C000AB1680FF43C063E5809103019091040138
:1032D0000E94EE230E94992263E580910301909160
:1032E00004010E94F9230C949922843879F40E94F5
:1032F000AB1682FF2BC067E480910301909104011B
:103300000E94EE230E94992267E4E7CF8CEF860F9C
:10331000813A18F380E2860F883048F4677081E0C4
:1033200001C0880F6A95EAF70E94D522DCCF8BE5B1
:10333000860F833020F480E090E00C94CD16685A1C
:10334000653120F480E090E00C94E3160895882322
:1033500021F00E94CF220C9499220895882321F015
:103360000E94D5220C94992208958F929F92AF9239
:10337000BF92CF92DF92EF92FF920F931F93CF9362
:10338000DF931F92CDB7DEB77C01C72EFC0105810C
:1033900002950F701281112321F069830E94EC22A3
:1033A000698169830E9492226981882381F01123B7
:1033B00071F080E2860F883050F082E00E947B221C
:1033C0000E94922291E0D82ED926698101C0D12C89
:1033D000AC2CA2948FE0A822B12CF501EA58FF4F43
:1033E0000C940D348C2D807F0C2D0F70882311F0E0
:1033F0000295007F1123C1F0002309F4D2C180E2BD
:10340000860F883010F0611105C0802F69830E94FB
:10341000CF2204C0802F69830E94DF2269816983E3
:103420000E9499226981BDC1862F69830E94481933
:103430006981002309F431C280E2860F883010F0E0
:10344000611104C0802F0E94D52203C0802F0E94EA
:10345000E5220E94992221C29C2D907F8C2D8F7095
:10346000903211F08295807F662319F06130B1F0BF
:103470001EC0112349F0002309F44BC1013009F0AB
:1034800048C10E94FF2209C2002319F0013009F44B
:1034900004C289830E940223898141C1112321F042
:1034A000023008F0FAC135C10111F7C138C111234A
:1034B00021F0002309F42DC174C1002309F42FC1A8
:1034C00081C18C2D86958695837090E0009719F0C8
:1034D000019761F0E2C1112321F0862F9C2D93709A
:1034E00002C080E090E00E94CD16E7C1112321F0D8
:1034F000862F9C2D937002C080E090E00E94E3161E
:10350000DCC11123F9F0653F51F0663F71F0643F73
:10351000A9F48091A6039091A70381600BC08091CC
:10352000A6039091A703826005C08091A6039091A5
:10353000A70384609093A7038093A603862F0E941D
:10354000AE251EC0653F51F0663F71F0643FA9F49F
:103550008091A6039091A7038E7F0BC08091A60354
:103560009091A7038D7F05C08091A6039091A7033A
:103570008B7F9093A7038093A603862F0E94162625
:103580000E949B269AC18C2D837009F052C01111A4
:1035900090C1862F829586958770880F880F962F09
:1035A0009F70892E912CA12CB12C082E04C0880C60
:1035B000991CAA1CBB1C0A94D2F764FF14C00FE02C
:1035C00010E020E030E0B901A80104C0440F551F0D
:1035D000661F771F8A95D2F7CB01BA016095709567
:1035E0008095909503C060E070E0CB012C2D26956E
:1035F0002695237030E02230310569F02330310503
:1036000089F0682979298A299B292130310571F0AF
:103610000E94B4204EC1682979298A299B290E94D9
:10362000C62047C10E94B420C501B4010E94A22057
:1036300040C1112319F08C2D817001C0869588231B
:1036400009F437C1862F829586958770880F880F79
:10365000962F9F70892E912CA12CB12C082E04C07E
:10366000880C991CAA1CBB1C0A94D2F764FF14C0D6
:103670000FE010E020E030E0B901A80104C0440FE1
:10368000551F661F771F8A95D2F7CB01BA01609547
:1036900070958095909503C060E070E0CB012C2D73
:1036A000269526952370422F50E04230510569F04F
:1036B0004330510589F0682979298A299B294130AD
:1036C000510571F00E947921F4C0682979298A296D
:1036D0009B290E948B21EDC00E947921C501B40174
:1036E0000E946721E6C0862F90E0FC01E05EF109B0
:1036F000E531F10508F051C0EA57FF4F0C940D3445
:10370000062F0F708C2D8F71112331F00E94002134
:10371000802F0E94A719C1C00E942121802F0E94E2
:10372000AE19BBC0112339F00111B7C08C2D8F71B8
:103730000E944621B2C0023008F0AFC0F7CF11237B
:1037400039F08C2D8F710E940021A7C01123C9F37D
:103750008C2D8F710E942121A0C0112329F08C2D66
:103760008F710E94EB2099C00E94E62096C0112321
:1037700051F01C2D1F71812F0E94002163E0812FC9
:103780000E9472228AC081E00E947B22023008F4EB
:1037900084C082E00E947B2280C0112331F000238C
:1037A00081F2862F0E94391878C0002389F269338C
:1037B00049F45FEF77EE83E0515070408040E1F7CD
:1037C00000C00000862F0E94481967C04C2D4F7022
:1037D000C7010E94CE080E9415206FC0623FB1F061
:1037E00028F4603F49F0613FF9F028C0643FB9F028
:1037F00058F0653F71F022C0112309F449C090913F
:10380000930281E0892708C081E018271093930272
:103810003FC011113DC081E08093930239C0111166
:1038200037C01092930234C0112329F08091920284
:10383000882329F32BC0002311F32AC08091920220
:103840000023D1F0882341F09091930281E08927F1
:103850008093930210929202862F6983112319F0AC
:103860000E94391807C00E94481986E0F70111929A
:103870008A95E9F769810CC0882351F0111108C0BD
:103880009091930281E08927809393021092920293
:103890004C2D4F70C7010E94700CF8E0AF16B104B8
:1038A00041F05CF04AE0A41AB10852E0A516B10458
:1038B00020F40E94AB160E946E0CDD20F1F00E94F5
:1038C0006E2280FD1AC0F70112820E9468220E94B7
:1038D0000021C7010E948B1C0E9468220F90DF917B
:1038E000CF911F910F91FF90EF90DF90CF90BF90FD
:1038F000AF909F908F900C9421210F90DF91CF91EA
:103900001F910F91FF90EF90DF90CF90BF90AF90FD
:103910009F908F9008950F931F93CF93DF93EC01A7
:10392000888199812B813C81232BB9F09F3F11F431
:103930008F3F99F0CE010E944309882371F068817E
:1039400079818A810E9445228C010E949D210E94DA
:103950009F20B801CE010E94B519DF91CF911F9130
:103960000F9108950E94EC220E94FC228091030195
:10397000909104010E9404240E9499220E943427FD
:103980000E949B2680E090E00E94CD1680E090E0AF
:103990000C94E3160E94DC220C94B21C0E943A2282
:1039A000E92FE295EF70F0E03297EE30F105B0F4D8
:1039B000E556FF4F0C940D34803F91F018F4803E93
:1039C00068F40EC0843F51F40BC0803E48F0813F44
:1039D00029F406C093FB882780F9089580E00895B4
:1039E00081E00895CF93DF9300D000D01F92CDB730
:1039F000DEB70F900F900F900F900F90DF91CF9147
:103A00000895CF93DF9300D000D000D0CDB7DEB7BC
:103A100026960FB6F894DEBF0FBECDBFDF91CF91D3
:103A200008951F93CF93DF93C091940216E0809185
:103A30009502C81799F0D0E01C9FF0011D9FF00D72
:103A40001124EA56FD4F4081518162817381848146
:103A500095810E94011D2196C770E9CFDF91CF911A
:103A60001F9108954091C6025091C7026091C8020B
:103A70007091C9028091CA029091CB020C94011DF1
:103A80008091CB0282958F7009F054C08091C8025A
:103A9000882309F44FC080919402A091950260910F
:103AA000C6027091C7024091C9025091CA02B6E0A5
:103AB0008A1709F43FC090E041155105C1F17F3FDD
:103AC00011F46F3FA1F1B89FF001B99FF00D1124DF
:103AD000EA56FD4F218172132AC02081621327C04C
:103AE0002281211124C0238134812417350710F449
:103AF00021503109241B350B283C3105C0F420919D
:103B0000CB022F7020612093CB0226E0289FF0018A
:103B1000299FF00D1124E556FD4F80818F70806143
:103B2000808386EC92E00E948B1C0C94111D019600
:103B30008770BECF0895CF92DF92EF92FF920F93DE
:103B40001F93CF93DF93CDB7DEB762970FB6F8948C
:103B5000DEBF0FBECDBF8C0185E0F801DE011D96F2
:103B600001900D928A95E1F7D8014C9111965C91E4
:103B7000119712966C9112971396CD90DC90149732
:103B80003091C6027091C7028091C9029091CA0219
:103B9000009709F46BC17F3F19F43F3F09F466C1F8
:103BA000E090C802EE2009F4C0C02091CB02C816F4
:103BB000D90628F0F601E81BF90BCF0104C0809567
:103BC00090958C0D9D1DFF24F394883C910578F011
:103BD000F12C207F09F0C6C07C2DD98AC88A89893A
:103BE0000E94F21C86EC92E00E948B1CB1C0822FD6
:103BF000807F09F046C0751314C0341312C06111E0
:103C000010C02F7020612093CB020E94321D86ECE1
:103C100092E00E948B1C8091CB02D80115968C9368
:103C20002EC0CD2819F15F3F11F44F3FF9F0F62E69
:103C300061111CC0809194022091950236E0821798
:103C400009F45AC090E0389FF001399FF00D11241B
:103C5000EA56FD4F7181571306C07081471303C0A8
:103C60007281711103C001968770E9CFF62E662329
:103C700009F427C18091CB0281608093CB02F12CA3
:103C800020C1751308C0341306C0611104C08091AF
:103C9000CB02D801C3C04D875E878D859E856A8B18
:103CA0000E94CE1C6A898823E1F16623D1F120911C
:103CB000CB02822F82958F7090E0029774F08091F2
:103CC000C6029091C70298878F831986DB86CA86C1
:103CD0002C87CE0107960E948B1C86E0F801A6EC8B
:103CE000B2E001900D928A95E1F70E94401D0E947A
:103CF000321DFF24F394E5C04D875E878D859E8538
:103D00000E943A22292F22952F7030E0223031056F
:103D10000CF0CBC09F7009F0C5C0805E883008F4FD
:103D2000D0C0C8010E948B1CE4CFC816D90608F485
:103D300053C0F601E81BF90BCF01883C910508F44C
:103D400050C0F12C7C2DD98AC88A89890E94F21C26
:103D5000E6ECF2E086E0DF011D928A95E9F70E9429
:103D6000321DAFC0751314C0341312C0611110C0DE
:103D70008091CB02F8018583C8010E948B1C86E0EC
:103D8000E6ECF2E0DF011D928A95E9F7FE2C99C07E
:103D90004D875E878D859E856A8B0E94CE1C6A89C1
:103DA000882309F4BECF662309F4BBCF2091CB0250
:103DB000822F82958F7090E002970CF48ECF8091C5
:103DC000C6029091C7029A8389831B82DD82CC82CE
:103DD0002E83CE0101967FCF809590958C0D9D1DF1
:103DE000ACCFF62E662309F49CCF75132EC0341386
:103DF0002CC02091CB0220FD1FC0822F82958F7096
:103E0000D9F0D80115962C9315978F3049F08F5F14
:103E1000982F9295907F822F8F70892B15968C9377
:103E2000C8010E948B1C86E0F801A6ECB2E001906C
:103E30000D928A95E1F793CF86E0F801A6ECB2E007
:103E400001900D928A95E1F73CC04D875E878D8584
:103E50009E850E94CE1C811140CF8091CB02816053
:103E60008093CB02C8010E948B1C2BC0662309F4EF
:103E700058CF4D875E878D859E850E94CE1CF82E7B
:103E8000882309F44ECF86E0F801A6ECB2E0019059
:103E90000D928A95E1F786EC92E00E9427180E9425
:103EA000401D5DCF811139CF0CC0243031050CF09D
:103EB00038CF9F7009F431CFF8019581907F09F0D8
:103EC0002CCF8F2D62960FB6F894DEBF0FBECDBFFC
:103ED000DF91CF911F910F91FF90EF90DF90CF90E6
:103EE00008951F93CF93DF93CDB7DEB72C970FB60E
:103EF000F894DEBF0FBECDBF4F83588769877A879E
:103F00008B879C87CE0107960E949B1D882369F0B2
:103F10008F8198852A853B85232BF1F19F3F09F0FE
:103F200063C08F3F09F060C037C086E0FE0137965E
:103F3000DE01119601900D928A95E1F76F817885E7
:103F4000EA85FB85309741F17F3F11F46F3F21F106
:103F50002091950230E0C901019687709927409120
:103F6000940250E08417950709F447C069837A8367
:103F7000FD83EC8396E0929FD001939FB00D1124B6
:103F8000AA56BD4FFE01319601900D929A95E1F728
:103F9000809395020E94111D16E0809194029091E9
:103FA00095028917C1F1189FC00111248A569D4FAF
:103FB0000E949B1D882379F1E09194021E9FF001DD
:103FC0001124EA56FD4F40815181628173818481C1
:103FD00095810E94011D8091940290E00196877066
:103FE000992780939402D9CF4F81588569857A8526
:103FF0008B859C850E94011DCFCF0E94CA1C109208
:10400000950210929402E6ECF2E086E0DF011D9248
:104010008A95E9F7C1CF2C960FB6F894DEBF0FBE94
:10402000CDBFDF91CF911F910895EF92FF920F9333
:104030001F93CF93DF938C01892B09F46CC0F12C73
:10404000EE24E394E8012196F8018491843740F44A
:10405000843008F051C0813081F0823019F15BC0AA
:10406000853709F444C0A8F19CE7980F903708F011
:1040700052C08F770E94481941C00E5F1F4FFE014A
:10408000C49180E28C0F883048F4C7708E2D01C037
:10409000880FCA95EAF70E94EF2214C08C2F0E9465
:1040A00039182DC00E5F1F4FFE01C49180E28C0FA6
:1040B000883058F4C7708E2D01C0880FCA95EAF772
:1040C0000E94F5220E9499221AC08C2F0E94481942
:1040D00016C00E5F1F4FFE01C491CC2381F08FE903
:1040E0009FE00197F1F700C00000C150F6CF0E5FCE
:1040F0001F4FFE01F49003C00E9439188E018F2DCE
:10410000882309F49FCFEFE9FFE03197F1F700C072
:1041100000008150F5CFDF91CF911F910F91FF905B
:10412000EF90089508950E94922060930703709382
:1041300008038093090390930A030C94B21C08951A
:104140000C9493200F931F93009107031091080381
:104150002091090330910A03602B712B822B932B42
:104160001F910F910C9493200F931F9300910703BD
:10417000109108032091090330910A0360237123F1
:10418000822393231F910F910C9493200F931F93DD
:1041900000910703109108032091090330910A034D
:1041A00060277127822793271F910F910C949320EA
:1041B0000C9400090E94D8206093030370930403B9
:1041C00080930503909306030C94B21C60E070E0AA
:1041D000CB010C94DA200F931F9341E050E060E094
:1041E00070E08A019B0104C0000F111F221F331FC2
:1041F0008A95D2F7C901B8011F910F910C94DA206A
:104200000F931F9341E050E060E070E004C0440F62
:10421000551F661F771F8A95D2F7809103039091EF
:104220000403A0910503B09106038A019B01082BAA
:10423000192B2A2B3B2BC901B8011F910F910C940C
:10424000DA200F931F9341E050E060E070E004C07B
:10425000440F551F661F771F8A95D2F740955095DA
:10426000609570958091030390910403A0910503DC
:10427000B09106038A019B01082319232A233B23BB
:10428000C901B8011F910F910C94DA200F931F936D
:1042900041E050E060E070E004C0440F551F661F2D
:1042A000771F8A95D2F78091030390910403A09120
:1042B0000503B09106038A019B01082719272A27C5
:1042C0003B27C901B8011F910F910C94DA200F937D
:1042D0001F93009103031091040320910503309173
:1042E0000603602B712B822B932B1F910F910C9443
:1042F000DA200F931F930091030310910403209180
:1043000005033091060360237123822393231F91B9
:104310000F910C94DA200F931F93009103031091D7
:10432000040320910503309106036027712782273B
:1043300093271F910F910C94DA200895292F220FB3
:10434000920F990F890FA82FA695A695A69587700D
:1043500051E001C0550F8A95EAF785E0A89FD0018A
:10436000112420E030E070E0F901EA0FFB1FE45374
:10437000FD4F4081CB01022E02C0969587950A948D
:10438000E2F781709927819584278523842780838C
:104390002F5F3F4F2530310539F70895292F220F20
:1043A000920F990F890F682F669566956695982FDD
:1043B000977085E0689FB001112440E050E080E0F4
:1043C000FA01E60FF71FE453FD4F208130E0092E7C
:1043D00002C0369527950A94E2F721703327042E00
:1043E00001C0220F0A94EAF7822B4F5F5F4F4530DE
:1043F000510531F70895CF92DF92EF92FF920F931C
:104400001F93CF93DF938C01C0900703D0900803D4
:10441000E0900903F0900A03809103039091040354
:10442000A0910503B0910603C82AD92AEA2AFB2ADB
:10443000CFE1D0E0D701C6010C2E04C0B695A795F8
:10444000979587950A94D2F780FF06C0B8018C2F04
:104450000E948B0C019721F4219760F780E001C046
:104460008C2FDF91CF911F910F91FF90EF90DF90F4
:10447000CF900895CF93DF93EC010E94FB21BE0102
:104480000E948B0CDF91CF9108951F93CF93DF9300
:10449000EB0190919102992321F0CB010E943A22E5
:1044A00013C0882349F0CB010E94FB21182F682FED
:1044B000CE010E949E2104C0CB010E94CE21182F64
:1044C000BE01812F0E948B0CDF91CF911F91089527
:1044D00080910B03859585958595089580910B03B3
:1044E0008770089598E0899F90011124262B2093CE
:1044F0000B030C94002120910B0380958223809361
:104500000B03982F977069F430E0482F082E000CA9
:10451000550B2417350729F08595859585950C94BD
:104520002121089590910B03977081E009F480E0B8
:104530000895E0910301F091040180912F0380839D
:10454000E0910301F0910401908180912E03892B69
:104550008083E0910301F0910401908180912D030B
:10456000892B808380910C03882381F0E0910301E3
:10457000F09104019081892B8083809103019091B7
:1045800004010E949223811110920C038091030177
:10459000909104010C94B71680912F030895909187
:1045A0002F03892B80932F030895809590912F03DB
:1045B000892380932F03089510922F0308959091DB
:1045C0002E03892B80932E030895809590912E03BE
:1045D000892380932E03089510922E0308959091BD
:1045E0002D03892B80932D030895809590912D03A1
:1045F000892380932D03089510922D0308958093AD
:104600000C03089510920C030895CF92DF92EF925D
:10461000FF926C01EE24FF24C114D104E104F104E3
:1046200021F0C701B60120E101C020E0C72ED82E3D
:10463000E92EFF24C114D104E104F10419F0285F2C
:10464000C701B6016B017C0154E0F694E794D7945E
:10465000C7945A95D1F7C114D104E104F10419F0BB
:104660002C5FC701B6016B017C0142E0F694E79430
:10467000D794C7944A95D1F7C114D104E104F10449
:1046800019F02E5FC701B601DC01CB01B695A795E5
:1046900097958795892B8A2B8B2B09F02F5F822F7B
:1046A000FF90EF90DF90CF9008956DEE7EEF80E069
:1046B00090E00E94453460E082E090E00E94273460
:1046C00060E083E090E00E94273460E084E090E0C6
:1046D0000E94273460E085E090E00E94273440E0AB
:1046E00050E0BA0188E090E00C94393480E090E02A
:1046F0000E94213421E08D3E9E4F09F020E0822F60
:10470000089582E090E00C94133483E090E00C94E0
:10471000133484E090E00C941334682F84E090E02C
:104720000C942734FC0131969C01205E3F4F80E0C1
:10473000919191118F5FE217F307D1F708959C01D2
:10474000FC0132969FEF80E04191461789F09F3F30
:1047500019F4411101C0982F8F5F8E31A9F79F3F47
:1047600039F0F901E90FF11D97FDFA95628308957B
:104770000895FC01329680962081261301C0108294
:104780003196E817F907C1F70895262F2695269543
:1047900026952F3168F4FC01E20FF11D677021E0CE
:1047A00030E001C0220F6A95EAF78181282B21832E
:1047B0000895262F2695269526952F3170F4FC0115
:1047C000E20FF11D677021E030E001C0220F6A9511
:1047D000EAF72095818128232183089520911401EF
:1047E000222329F02091AC0327FD0C94C5230C94BF
:1047F0009F2320911401222329F02091AC0327FD4F
:104800000C94D9230C94B923FC0131968096119213
:10481000E817F907E1F708958091B203843039F180
:104820001092310320E488E190E00FB6F894A89547
:10483000809360000FBE2093600080E00E946E0CA9
:1048400083B7817F846083BF83B7816083BF78949F
:10485000889583B78E7F83BF0FB6F894A895809113
:104860006000886180936000109260000FBE089520
:104870000895CF930E9454070E94A1070E943824F4
:10488000C0E08C2F0E940A08811104C0CF5FCE3097
:10489000C1F701C081E0CF9108950E94CA1C0E9417
:1048A000AB160C946E0C1F920F920FB60F92112440
:1048B0008F939F93AF93BF9380913103811113C066
:1048C0008091A8039091A903A091AA03B091AB0392
:1048D0004196A11DB11D8093A8039093A903A093B5
:1048E000AA03B093AB03BF91AF919F918F910F90AB
:1048F0000FBE0F901F90189582E084BD93E095BD88
:104900009AEF97BD80936E0008952FB7F894809129
:10491000A8039091A903A091AA03B091AB032FBF64
:104920000895CF92DF92EF92FF920F931F932FB7CC
:10493000F8944091A8035091A9036091AA03709143
:10494000AB032FBF6A017B01EE24FF248C0120E022
:1049500030E0C016D106E206F30610F441505109CA
:104960009A01281B390BC9011F910F91FF90EF90FD
:10497000DF90CF90089578941F920F920FB60F9208
:1049800011248F939F93AF93BF938091A80390912D
:10499000A903A091AA03B091AB030196A11DB11D7B
:1049A0008093A8039093A903A093AA03B093AB03A9
:1049B000BF91AF919F918F910F900FBE0F901F905D
:1049C0001895F89481E08093E00080E28093D8000D
:1049D000E9ECF0E010828FE19EE40197F1F700C06E
:1049E00000001DBA109268001CBC10BE1FBA1092C5
:1049F0007A0010926E0010926F0010927100109267
:104A000072001082ECEBF0E0108214B817B81AB8FC
:104A10001DB810BA108215B818B81BB81EB811BA54
:104A20000C94003F08950E947623811102C00E94D9
:104A300055230E948123809330030E94892390E0B4
:104A40009093AD038093AC030E948523682F70E0A0
:104A500080E090E00C94A0208091350380FF0BC093
:104A60006091080185E0689FB001112475956795F4
:104A7000759567952BC081FF09C06091080185E09D
:104A8000689FB00111247595679520C082FF07C00B
:104A90006091080185E0689FB001112417C09091D2
:104AA00036039923D1F060910701961788F720917A
:104AB000080185E0289F90011124929FA001939FF7
:104AC000500D112470E0CA010E94F933603871055D
:104AD00040F46115710539F002C065E070E0862F81
:104AE00008958FE7089581E008958091350380FF50
:104AF00008C06091060170E075956795759567959A
:104B000021C081FF06C06091060170E07595679530
:104B100019C082FF04C06091060170E010C090913E
:104B200036039923C1F0609105019617A0F7809193
:104B30000601899FC001112470E00E94F93360389A
:104B4000710528F46115710521F0862F08958FE70E
:104B5000089581E0089561E070E0F4CF803F21F492
:104B60000E942C25819504C0813F29F40E942C25A8
:104B7000809339030895823F21F40E942C2581956A
:104B800004C0833F29F40E942C25809338030895A4
:104B9000893F19F40E94752505C08A3F31F40E94AF
:104BA0007525819580933A0308958B3F21F40E94E7
:104BB0007525819504C08C3F29F40E94752580934A
:104BC0003B030895843F21F480913703816017C02F
:104BD000853F21F480913703826011C0863F21F424
:104BE0008091370384600BC0873F21F480913703A5
:104BF000886005C0883F31F48091370380618093DD
:104C0000370308958D3F21F48091350381600BC0F7
:104C10008E3F21F480913503826005C08F3F29F4D7
:104C2000809135038460809335030895803F39F483
:104C30008091390387FF6CC01092390369C0813FAE
:104C400029F4809139031816BCF362C0909138039F
:104C5000823F29F497FF5CC01092380359C0833F0C
:104C600019F41916CCF354C0893F41F480913A03EA
:104C700018160CF04DC010923A034AC08A3F29F42E
:104C800080913A0387FF44C0F6CF8B3F39F480917F
:104C90003B0387FF3DC010923B033AC08C3F29F491
:104CA00080913B031816BCF333C0843F21F48091FC
:104CB00037038E7F17C0853F21F4809137038D7FA6
:104CC00011C0863F21F4809137038B7F0BC0873F53
:104CD00021F480913703877F05C0883F31F48091AC
:104CE00037038F7E8093370313C08D3F21F480916B
:104CF00035038E7F0BC08E3F21F4809135038D7F6D
:104D000005C08F3F29F4809135038B7F8093350355
:104D10008091380381110EC08091390381110AC03E
:104D200080913A03811106C080913B03811102C03A
:104D300010923603089587E393E00E94C2160E9402
:104D40008524909333038093320308951F93CF9368
:104D5000DF9380913203909133030E949124AC0140
:104D600090913603992321F02091090130E006C08B
:104D7000209134038AE0289F9001112442175307A1
:104D800008F46EC080913803C0913903D0913A0382
:104D900010913B03811107C0C1115EC0D1115CC0ED
:104DA00011115AC05DC09F3F19F09F5F9093360369
:104DB000181624F40E942C25809338038091380320
:104DC00087FF05C00E942C258195809338031C160F
:104DD00024F40E942C25809339038091390387FFA6
:104DE00005C00E942C25819580933903409138039A
:104DF000442379F030913903332359F025EB4203F2
:104E0000A0011124509338033203C0011124909360
:104E100039031D1624F40E94752580933A0380916E
:104E20003A0387FF05C00E947525819580933A0358
:104E3000111624F40E94752580933B0380913B0357
:104E400087FF05C00E947525819580933B03DF9104
:104E5000CF911F910C949B269F3F09F0A6CFAECF18
:104E6000DF91CF911F910895E7E3F3E085E0DF0143
:104E70001D928A95E9F71092360310923503089532
:104E8000833081F128F4813059F08230D1F00895D7
:104E9000853009F449C0B8F1863009F456C0089548
:104EA00080913403262F30E0280F311D2F3F31052C
:104EB00024F4680F6093340308958FEF80933403D4
:104EC000089580910901262F30E0280F311D2F3FD2
:104ED000310524F4680F6093090108958FEF8093E2
:104EE0000901089580910801262F30E0280F311D17
:104EF0002F3F310524F4680F6093080108958FEF68
:104F000080930801089580910701262F30E0280F33
:104F1000311D2F3F310524F4680F60930701089578
:104F20008FEF80930701089580910601262F30E0CE
:104F3000280F311D2F3F310524F4680F60930601BF
:104F400008958FEF80930601089580910501262F23
:104F500030E0280F311D2F3F310524F4680F609396
:104F6000050108958FEF809305010895833011F1B5
:104F700028F4813049F0823091F00895853081F134
:104F800020F18630C1F1089580913403681720F430
:104F9000861B809334030895109234030895809102
:104FA0000901681720F4861B809309010895109267
:104FB0000901089580910801681720F4861B8093E9
:104FC000080108951092080108958091070168175B
:104FD00020F4861B8093070108951092070108951D
:104FE00080910601681720F4861B809306010895BE
:104FF00010920601089580910501681720F4861B20
:105000008093050108951092050108950F931F9351
:10501000873208F04DC08E3108F093C0803109F41A
:105020007DC008F5873009F46BC068F4863009F05C
:10503000A3C080913003817F8E7F8093300381E015
:1050400080933D039AC08B3009F48FC08E3009F0F5
:1050500093C08091300382FB222720F991E09227B0
:1050600090FB82F964C0863109F47FC088F48131F5
:1050700009F082C00E94CA1C8091AC0387FB2227E2
:1050800020F991E0922790FB87F98093AC036DC0E3
:10509000893109F46AC08B3109F06EC08091300308
:1050A00081FB222720F991E0922790FB81F93FC0F4
:1050B000883309F45AC050F4893209F458C0853352
:1050C00009F455C0873209F452C056C0833409F43C
:1050D0004EC028F48A3308F44FC0895333C0883453
:1050E00009F04AC00E94CA1C0FEF13ED20E30150E3
:1050F00010402040E1F700C000000E94E12435C0CC
:1051000080913003982F9095917090FB80F9809357
:10511000300391112AC0897F877F10C080913003AE
:1051200083FB222720F991E0922790FB83F980935B
:1051300030039923D1F08091300381608093300354
:1051400014C08D5141E050E060E070E08A019B01A5
:1051500004C0000F111F221F331F8A95D2F7C90107
:10516000B8010E94A0200E94CA1C81E006C061E034
:1051700070E080E090E0F5CF80E01F910F910895FE
:1051800080E0089580E008958E518A3030F4E82F51
:10519000F0E0E354FE4F8081089580E00895CF93BE
:1051A000C82F80913D03813079F018F08230E9F109
:1051B00085C0E0910301F09104018081813169F0A3
:1051C000823209F07DC009C0E0910301F091040131
:1051D0008081813111F0823261F48C2F0E94C028CD
:1051E000811104C08C2F0E9406281DC081E090E030
:1051F0001AC08C2F0E94C228811114C0C43179F0CA
:1052000048F4CB3079F0C03109F05EC082E0809381
:105210003D0308C0C93219F0C83321F055C01092BF
:105220003D0352C081E0817051C0C93279F108F567
:10523000C43161F1A0F4C73009F044C010923403C6
:1052400084E180930901C09308018CE380930701F6
:1052500088E08093060188E28093050133C082EEE6
:105260008C0F863078F58C2F0E94C42880933C03E5
:1052700029C0CE34E9F020F4CB3421F56AE013C024
:10528000C13579F0C235F1F461E00DC080913C0385
:10529000882319F010923C0315C081E080933D03F0
:1052A00015C061E006C080913C030E9440270AC0FF
:1052B0006AE080913C030E94B62704C010923D032F
:1052C00080E004C081E002C080E0ADCFCF910895BE
:1052D00080915E0308950F931F93CF93DF9300D0C7
:1052E0001F92CDB7DEB78C010E94E32B823011F004
:1052F000843019F593E099831B830A839093E90026
:105300008FEF9091E800815095FD06C095ED9A953C
:10531000F1F700008111F5CF8091E80085FF0DC005
:1053200040E050E063E070E0CE0101960E94002C66
:105330008091E8008E778093E8000F900F900F9097
:10534000DF91CF911F910F910895CF93DF9300D0FC
:105350001F92CDB7DEB72091B203243031F522E0A1
:105360002983805891099B838A8383E08093E90095
:105370008FEF9091E800815095FD06C095ED9A95CC
:10538000F1F700008111F5CF8091E80085FF0DC095
:1053900040E050E063E070E0CE0101960E94002CF6
:1053A0008091E8008E778093E8000F900F900F9027
:1053B000DF91CF910895CF93DF93EC010E94E32B0F
:1053C000823011F08430F9F482E08093E9009FEF9D
:1053D0008091E800915085FD06C085ED8A95F1F732
:1053E00000009111F5CF8091E80085FF0CC040E0EE
:1053F00050E065E070E0CE010E94002C8091E80052
:105400008E778093E800DF91CF910895CF93DF935B
:10541000EC010E94E32B823019F0843009F047C080
:10542000809114018823E1F08091AC0387FF18C0BC
:1054300084E08093E9008FEF9091E800815095FD22
:1054400006C095E19A95F1F700008111F5CF8091A2
:10545000E80085FF2CC040E050E060E270E017C03B
:1054600081E08093E9008FEF9091E800815095FDF5
:1054700006C095ED9A95F1F700008111F5CF809166
:10548000E80085FF14C040E050E068E070E0CE0125
:105490000E94002C8091E8008E778093E80080E2E3
:1054A000FE01AEE3B3E001900D928A95E1F7DF9142
:1054B000CF9108958091B103811109C00E94952D6B
:1054C0000E94F22D8091E20084608093E2000895B2
:1054D0001092B1030895089508950C944D2442E06C
:1054E00061EC81E00E940F2D42E061EC82E00E94BD
:1054F0000F2D42E061EC83E00E940F2D42E261EC4F
:1055000084E00C940F2D8091B403833009F455C0CE
:1055100030F4813071F0823009F48EC008958A3001
:1055200009F47AC08B3009F460C0893009F09CC05E
:1055300020C08091B303813A09F096C08091E800C1
:10554000877F8093E8008091B7039091B803892BFF
:1055500021F460E28EE393E003C060E080E090E03D
:1055600070E00E944B2C8091E8008B778093E800DC
:1055700008958091B303813209F076C08091B7031A
:105580009091B803009719F0039709F06DC08091CE
:10559000E800877F8093E8008091E80082FD05C0E5
:1055A0008091B2038111F8CF5FC08091F1008093A8
:1055B0005E038091E8008B7753C08091B303813AFA
:1055C00009F052C08091B7039091B803892B09F07C
:1055D0004BC08091E800877F8093E8008091E800CD
:1055E00080FFFCCF8091140136C08091B3038132DB
:1055F000D9F58091B7039091B803892BA9F58091D3
:10560000E800877F8093E8000E94442D8091B503D5
:10561000809314010C94CA1C8091B303813221F54C
:105620008091E800877F8093E8000E94442D80915C
:10563000B60380935F0308958091B303813AA1F488
:105640008091E800877F8093E8008091E80080FFE8
:10565000FCCF80915F038093F1008091E8008E770A
:105660008093E8000C94442D089584B7877F84BF0D
:105670000FB6F894A89580916000886180936000CF
:10568000109260000FBE80E880936100109261006C
:105690000E94FA160E94952D0E94F22D8091E20040
:1056A00084608093E20078940E9481300E94FE160C
:1056B0008AE091E00E94A6168091B203853069F4D9
:1056C0000E940C248091B0038823B1F30E943924F6
:1056D000882391F30E94EA2BEFCF0E9406170E94C5
:1056E000A915EACF0C94742B292F332723303105C9
:1056F000C9F064F42130310581F02230310509F020
:1057000049C08DE690E02CEF3AE048C021323105E7
:1057100021F12232310571F13DC082E190E029E6AC
:105720003BE03CC099278130910571F02CF4892B26
:1057300089F5E8EFFAE00DC08230910541F003975A
:1057400049F5E2ECFAE005C0E0EEFAE002C0E8EC70
:10575000FAE0849190E09F0121C064307105D0F49B
:10576000660F771FFB01ED52FE4F2081318189E0EA
:1057700090E014C06430710568F4FB01EE0FFF1F68
:10578000E553FE4F20813181FB01E953FE4F8081BB
:1057900090E004C080E090E020E030E0FA01318346
:1057A000208308950895CF93C82F0E94D22BC093D1
:1057B0006003CF9108958091B203843011F081E0AD
:1057C000089582E0089580916003811102C00C94D5
:1057D000DB2B089580E189BD82E189BD09B400FE1B
:1057E000FDCF8091D8008F7D8093D8008091E0001C
:1057F00082608093E0008091E00081FDFCCF0895FD
:10580000CF92DF92EF92FF920F931F93CF93DF938C
:10581000EC018B016A010E94632D811133C0C11418
:10582000D10439F0F60180819181081B190BC80F52
:10583000D91FE12CF12C0115110519F18091E80017
:1058400085FD16C08091E8008E778093E800C11432
:10585000D10449F0F60180819181E80EF91EF182B0
:10586000E08285E00FC00E94632D882321F30AC0E7
:1058700089918093F10001501109FFEFEF1AFF0A9F
:10588000DACF80E0DF91CF911F910F91FF90EF90E1
:10589000DF90CF9008952091B9033091BA03261775
:1058A000370748F06115710539F42091E8002E772B
:1058B0002093E80001C0B90140E061157105A9F12C
:1058C0002091B203222309F443C0253009F442C0D9
:1058D0002091E80023FD40C02091E80022FD32C065
:1058E0002091E80020FFE9CF4091F3002091F200E1
:1058F00030E0342BFC01CF016115710559F02830DF
:10590000310540F481918093F100615071092F5F5E
:105910003F4FF1CF41E02830310509F040E02091C0
:10592000E8002E772093E800C8CF4111C9CF0AC004
:105930008091B203882361F0853061F08091E800A6
:1059400083FD0AC08091E80082FFF2CF80E00895D5
:1059500082E0089583E0089581E008952091B903DD
:105960003091BA032617370748F06115710539F4ED
:105970002091E8002E772093E80001C0B901FC01D6
:1059800020E06115710591F18091B203882309F43B
:1059900040C0853009F43FC08091E80083FD3DC0E0
:1059A0008091E80082FD2FC08091E80080FFE9CF60
:1059B0002091F3008091F20090E0922B6115710527
:1059C00059F08830910540F424912093F1003196EC
:1059D000615071090196F2CF21E0089709F020E0AB
:1059E0008091E8008E778093E800CBCF2111CCCF57
:1059F0000AC08091B203882361F0853061F0809104
:105A0000E80083FD0AC08091E80082FFF2CF80E0C9
:105A1000089582E0089583E0089581E00895982F25
:105A2000973058F59093E900981739F07091EC0091
:105A30002091ED005091F00003C0242F762F50E00C
:105A400021FF19C03091EB003E7F3093EB00309185
:105A5000ED003D7F3093ED003091EB0031603093ED
:105A6000EB007093EC002093ED005093F000209138
:105A7000EE0027FF07C09F5FD3CF8F708093E900B0
:105A800081E0089580E008958091B30387FF11C0FD
:105A90008091E80082FD05C08091B2038111F8CFAA
:105AA00011C08091E8008B770BC08091B2038823EE
:105AB00049F08091E80080FFF8CF8091E8008E7770
:105AC0008093E80008952091E4003091E50095E688
:105AD0004091EC00842F817040FF22C08091E8004B
